{
  "_format": "hh-sol-artifact-1",
  "contractName": "MetapassFactory",
  "sourceName": "contracts/MetapassFactory.sol",
  "abi": [
    {
      "inputs": [
        {
          "internalType": "address",
          "name": "_storageProxy",
          "type": "address"
        }
      ],
      "stateMutability": "nonpayable",
      "type": "constructor"
    },
    {
      "anonymous": false,
      "inputs": [
        {
          "indexed": true,
          "internalType": "address",
          "name": "previousOwner",
          "type": "address"
        },
        {
          "indexed": true,
          "internalType": "address",
          "name": "newOwner",
          "type": "address"
        }
      ],
      "name": "OwnershipTransferred",
      "type": "event"
    },
    {
      "inputs": [
        {
          "internalType": "address",
          "name": "",
          "type": "address"
        },
        {
          "internalType": "uint256",
          "name": "",
          "type": "uint256"
        }
      ],
      "name": "addressToEventMap",
      "outputs": [
        {
          "internalType": "contract Metapass",
          "name": "",
          "type": "address"
        }
      ],
      "stateMutability": "view",
      "type": "function"
    },
    {
      "inputs": [
        {
          "internalType": "string",
          "name": "title",
          "type": "string"
        },
        {
          "internalType": "uint256",
          "name": "fee",
          "type": "uint256"
        },
        {
          "internalType": "uint256",
          "name": "seats",
          "type": "uint256"
        },
        {
          "internalType": "string",
          "name": "image",
          "type": "string"
        },
        {
          "internalType": "address",
          "name": "eventHostAddress",
          "type": "address"
        },
        {
          "internalType": "string",
          "name": "description",
          "type": "string"
        },
        {
          "internalType": "string",
          "name": "link",
          "type": "string"
        },
        {
          "internalType": "string",
          "name": "date",
          "type": "string"
        },
        {
          "internalType": "string",
          "name": "category",
          "type": "string"
        }
      ],
      "name": "createEvent",
      "outputs": [],
      "stateMutability": "nonpayable",
      "type": "function"
    },
    {
      "inputs": [],
      "name": "getEventChildren",
      "outputs": [
        {
          "internalType": "contract Metapass[]",
          "name": "",
          "type": "address[]"
        }
      ],
      "stateMutability": "view",
      "type": "function"
    },
    {
      "inputs": [],
      "name": "getRewards",
      "outputs": [],
      "stateMutability": "payable",
      "type": "function"
    },
    {
      "inputs": [],
      "name": "owner",
      "outputs": [
        {
          "internalType": "address",
          "name": "",
          "type": "address"
        }
      ],
      "stateMutability": "view",
      "type": "function"
    },
    {
      "inputs": [],
      "name": "renounceOwnership",
      "outputs": [],
      "stateMutability": "nonpayable",
      "type": "function"
    },
    {
      "inputs": [
        {
          "internalType": "address",
          "name": "newOwner",
          "type": "address"
        }
      ],
      "name": "transferOwnership",
      "outputs": [],
      "stateMutability": "nonpayable",
      "type": "function"
    },
    {
      "inputs": [
        {
          "internalType": "uint256",
          "name": "num",
          "type": "uint256"
        },
        {
          "internalType": "uint256",
          "name": "den",
          "type": "uint256"
        }
      ],
      "name": "updateRewards",
      "outputs": [],
      "stateMutability": "nonpayable",
      "type": "function"
    }
  ],
  "bytecode": "0x6080604052600060025560646003553480156200001b57600080fd5b5060405162004b9338038062004b9383398181016040528101906200004191906200018c565b6200006162000055620000a960201b60201c565b620000b160201b60201c565b80600160006101000a81548173ffffffffffffffffffffffffffffffffffffffff021916908373ffffffffffffffffffffffffffffffffffffffff1602179055505062000206565b600033905090565b60008060009054906101000a900473ffffffffffffffffffffffffffffffffffffffff169050816000806101000a81548173ffffffffffffffffffffffffffffffffffffffff021916908373ffffffffffffffffffffffffffffffffffffffff1602179055508173ffffffffffffffffffffffffffffffffffffffff168173ffffffffffffffffffffffffffffffffffffffff167f8be0079c531659141344cd1fd0a4f28419497f9722a3daafe3b4186f6b6457e060405160405180910390a35050565b6000815190506200018681620001ec565b92915050565b6000602082840312156200019f57600080fd5b6000620001af8482850162000175565b91505092915050565b6000620001c582620001cc565b9050919050565b600073ffffffffffffffffffffffffffffffffffffffff82169050919050565b620001f781620001b8565b81146200020357600080fd5b50565b61497d80620002166000396000f3fe608060405260043610620000865760003560e01c80638da5cb5b11620000555780638da5cb5b146200012357806395239b1d146200015357806397e508181462000183578063f2fde38b14620001b15762000086565b80630572b0cc146200008b5780633e4946c9146200009757806354d8832f14620000c5578063715018a61462000109575b600080fd5b62000095620001df565b005b348015620000a457600080fd5b50620000c36004803603810190620000bd9190620009c5565b620002b5565b005b348015620000d257600080fd5b50620000f16004803603810190620000eb919062000984565b6200046f565b60405162000100919062000d0d565b60405180910390f35b3480156200011657600080fd5b5062000121620004be565b005b3480156200013057600080fd5b506200013b6200054f565b6040516200014a919062000ccc565b60405180910390f35b3480156200016057600080fd5b506200016b62000578565b6040516200017a919062000ce9565b60405180910390f35b3480156200019057600080fd5b50620001af6004803603810190620001a9919062000b34565b62000645565b005b348015620001be57600080fd5b50620001dd6004803603810190620001d7919062000958565b620006da565b005b620001e9620007de565b73ffffffffffffffffffffffffffffffffffffffff16620002096200054f565b73ffffffffffffffffffffffffffffffffffffffff161462000262576040517f08c379a0000000000000000000000000000000000000000000000000000000008152600401620002599062000e26565b60405180910390fd5b6200026c6200054f565b73ffffffffffffffffffffffffffffffffffffffff166108fc479081150290604051600060405180830381858888f19350505050158015620002b2573d6000803e3d6000fd5b50565b6000600254600354878b600160009054906101000a900473ffffffffffffffffffffffffffffffffffffffff16604051620002f090620008aa565b6200030095949392919062000e48565b604051809103906000f0801580156200031d573d6000803e3d6000fd5b509050600460003373ffffffffffffffffffffffffffffffffffffffff1673ffffffffffffffffffffffffffffffffffffffff168152602001908152602001600020819080600181540180825580915050600190039060005260206000200160009091909190916101000a81548173ffffffffffffffffffffffffffffffffffffffff021916908373ffffffffffffffffffffffffffffffffffffffff160217905550600160009054906101000a900473ffffffffffffffffffffffffffffffffffffffff1673ffffffffffffffffffffffffffffffffffffffff16632996da378b8b8b8b8b8b8b8b8a8c6040518b63ffffffff1660e01b81526004016200042f9a9998979695949392919062000d2a565b600060405180830381600087803b1580156200044a57600080fd5b505af11580156200045f573d6000803e3d6000fd5b5050505050505050505050505050565b600460205281600052604060002081815481106200048c57600080fd5b906000526020600020016000915091509054906101000a900473ffffffffffffffffffffffffffffffffffffffff1681565b620004c8620007de565b73ffffffffffffffffffffffffffffffffffffffff16620004e86200054f565b73ffffffffffffffffffffffffffffffffffffffff161462000541576040517f08c379a0000000000000000000000000000000000000000000000000000000008152600401620005389062000e26565b60405180910390fd5b6200054d6000620007e6565b565b60008060009054906101000a900473ffffffffffffffffffffffffffffffffffffffff16905090565b6060600460003373ffffffffffffffffffffffffffffffffffffffff1673ffffffffffffffffffffffffffffffffffffffff1681526020019081526020016000208054806020026020016040519081016040528092919081815260200182805480156200063b57602002820191906000526020600020905b8160009054906101000a900473ffffffffffffffffffffffffffffffffffffffff1673ffffffffffffffffffffffffffffffffffffffff1681526020019060010190808311620005f0575b5050505050905090565b6200064f620007de565b73ffffffffffffffffffffffffffffffffffffffff166200066f6200054f565b73ffffffffffffffffffffffffffffffffffffffff1614620006c8576040517f08c379a0000000000000000000000000000000000000000000000000000000008152600401620006bf9062000e26565b60405180910390fd5b81600281905550806003819055505050565b620006e4620007de565b73ffffffffffffffffffffffffffffffffffffffff16620007046200054f565b73ffffffffffffffffffffffffffffffffffffffff16146200075d576040517f08c379a0000000000000000000000000000000000000000000000000000000008152600401620007549062000e26565b60405180910390fd5b600073ffffffffffffffffffffffffffffffffffffffff168173ffffffffffffffffffffffffffffffffffffffff161415620007d0576040517f08c379a0000000000000000000000000000000000000000000000000000000008152600401620007c79062000e04565b60405180910390fd5b620007db81620007e6565b50565b600033905090565b60008060009054906101000a900473ffffffffffffffffffffffffffffffffffffffff169050816000806101000a81548173ffffffffffffffffffffffffffffffffffffffff021916908373ffffffffffffffffffffffffffffffffffffffff1602179055508173ffffffffffffffffffffffffffffffffffffffff168173ffffffffffffffffffffffffffffffffffffffff167f8be0079c531659141344cd1fd0a4f28419497f9722a3daafe3b4186f6b6457e060405160405180910390a35050565b613821806200112783390190565b6000620008cf620008c98462000ece565b62000ea5565b905082815260208101848484011115620008e857600080fd5b620008f584828562000fbf565b509392505050565b6000813590506200090e81620010f2565b92915050565b600082601f8301126200092657600080fd5b813562000938848260208601620008b8565b91505092915050565b60008135905062000952816200110c565b92915050565b6000602082840312156200096b57600080fd5b60006200097b84828501620008fd565b91505092915050565b600080604083850312156200099857600080fd5b6000620009a885828601620008fd565b9250506020620009bb8582860162000941565b9150509250929050565b60008060008060008060008060006101208a8c031215620009e557600080fd5b60008a013567ffffffffffffffff81111562000a0057600080fd5b62000a0e8c828d0162000914565b995050602062000a218c828d0162000941565b985050604062000a348c828d0162000941565b97505060608a013567ffffffffffffffff81111562000a5257600080fd5b62000a608c828d0162000914565b965050608062000a738c828d01620008fd565b95505060a08a013567ffffffffffffffff81111562000a9157600080fd5b62000a9f8c828d0162000914565b94505060c08a013567ffffffffffffffff81111562000abd57600080fd5b62000acb8c828d0162000914565b93505060e08a013567ffffffffffffffff81111562000ae957600080fd5b62000af78c828d0162000914565b9250506101008a013567ffffffffffffffff81111562000b1657600080fd5b62000b248c828d0162000914565b9150509295985092959850929598565b6000806040838503121562000b4857600080fd5b600062000b588582860162000941565b925050602062000b6b8582860162000941565b9150509250929050565b600062000b83838362000c0a565b60208301905092915050565b62000b9a8162000f59565b82525050565b600062000bad8262000f14565b62000bb9818562000f37565b935062000bc68362000f04565b8060005b8381101562000bfd57815162000be1888262000b75565b975062000bee8362000f2a565b92505060018101905062000bca565b5085935050505092915050565b62000c158162000f97565b82525050565b62000c268162000f97565b82525050565b600062000c398262000f1f565b62000c45818562000f48565b935062000c5781856020860162000fce565b62000c628162001069565b840191505092915050565b600062000c7c60268362000f48565b915062000c89826200107a565b604082019050919050565b600062000ca360208362000f48565b915062000cb082620010c9565b602082019050919050565b62000cc68162000f8d565b82525050565b600060208201905062000ce3600083018462000b8f565b92915050565b6000602082019050818103600083015262000d05818462000ba0565b905092915050565b600060208201905062000d24600083018462000c1b565b92915050565b600061014082019050818103600083015262000d47818d62000c2c565b905062000d58602083018c62000cbb565b62000d67604083018b62000cbb565b818103606083015262000d7b818a62000c2c565b905062000d8c608083018962000b8f565b81810360a083015262000da0818862000c2c565b905081810360c083015262000db6818762000c2c565b905081810360e083015262000dcc818662000c2c565b905062000dde61010083018562000b8f565b81810361012083015262000df3818462000c2c565b90509b9a5050505050505050505050565b6000602082019050818103600083015262000e1f8162000c6d565b9050919050565b6000602082019050818103600083015262000e418162000c94565b9050919050565b600060a08201905062000e5f600083018862000cbb565b62000e6e602083018762000cbb565b62000e7d604083018662000b8f565b62000e8c606083018562000cbb565b62000e9b608083018462000b8f565b9695505050505050565b600062000eb162000ec4565b905062000ebf828262001004565b919050565b6000604051905090565b600067ffffffffffffffff82111562000eec5762000eeb6200103a565b5b62000ef78262001069565b9050602081019050919050565b6000819050602082019050919050565b600081519050919050565b600081519050919050565b6000602082019050919050565b600082825260208201905092915050565b600082825260208201905092915050565b600062000f668262000f6d565b9050919050565b600073ffffffffffffffffffffffffffffffffffffffff82169050919050565b6000819050919050565b600062000fa48262000fab565b9050919050565b600062000fb88262000f6d565b9050919050565b82818337600083830152505050565b60005b8381101562000fee57808201518184015260208101905062000fd1565b8381111562000ffe576000848401525b50505050565b6200100f8262001069565b810181811067ffffffffffffffff821117156200103157620010306200103a565b5b80604052505050565b7f4e487b7100000000000000000000000000000000000000000000000000000000600052604160045260246000fd5b6000601f19601f8301169050919050565b7f4f776e61626c653a206e6577206f776e657220697320746865207a65726f206160008201527f6464726573730000000000000000000000000000000000000000000000000000602082015250565b7f4f776e61626c653a2063616c6c6572206973206e6f7420746865206f776e6572600082015250565b620010fd8162000f59565b81146200110957600080fd5b50565b620011178162000f8d565b81146200112357600080fd5b5056fe6080604052600060085560646009553480156200001b57600080fd5b50604051620038213803806200382183398181016040528101906200004191906200034f565b6040518060400160405280600f81526020017f4d657461706173735469636b65747300000000000000000000000000000000008152506040518060400160405280600881526020017f4d455441504153530000000000000000000000000000000000000000000000008152508160009080519060200190620000c592919062000271565b508060019080519060200190620000de92919062000271565b50505062000101620000f5620001a360201b60201c565b620001ab60201b60201c565b846008819055508360098190555081600c8190555082600b60006101000a81548173ffffffffffffffffffffffffffffffffffffffff021916908373ffffffffffffffffffffffffffffffffffffffff16021790555080600d60006101000a81548173ffffffffffffffffffffffffffffffffffffffff021916908373ffffffffffffffffffffffffffffffffffffffff1602179055505050505050620004a8565b600033905090565b6000600760009054906101000a900473ffffffffffffffffffffffffffffffffffffffff16905081600760006101000a81548173ffffffffffffffffffffffffffffffffffffffff021916908373ffffffffffffffffffffffffffffffffffffffff1602179055508173ffffffffffffffffffffffffffffffffffffffff168173ffffffffffffffffffffffffffffffffffffffff167f8be0079c531659141344cd1fd0a4f28419497f9722a3daafe3b4186f6b6457e060405160405180910390a35050565b8280546200027f906200040f565b90600052602060002090601f016020900481019282620002a35760008555620002ef565b82601f10620002be57805160ff1916838001178555620002ef565b82800160010185558215620002ef579182015b82811115620002ee578251825591602001919060010190620002d1565b5b509050620002fe919062000302565b5090565b5b808211156200031d57600081600090555060010162000303565b5090565b600081519050620003328162000474565b92915050565b60008151905062000349816200048e565b92915050565b600080600080600060a086880312156200036857600080fd5b6000620003788882890162000338565b95505060206200038b8882890162000338565b94505060406200039e8882890162000321565b9350506060620003b18882890162000338565b9250506080620003c48882890162000321565b9150509295509295909350565b6000620003de82620003e5565b9050919050565b600073ffffffffffffffffffffffffffffffffffffffff82169050919050565b6000819050919050565b600060028204905060018216806200042857607f821691505b602082108114156200043f576200043e62000445565b5b50919050565b7f4e487b7100000000000000000000000000000000000000000000000000000000600052602260045260246000fd5b6200047f81620003d1565b81146200048b57600080fd5b50565b620004998162000405565b8114620004a557600080fd5b50565b61336980620004b86000396000f3fe60806040526004361061012a5760003560e01c8063715018a6116100ab578063a22cb4651161006f578063a22cb465146103d3578063abf0f573146103fc578063b88d4fde14610427578063c87b56dd14610450578063e985e9c51461048d578063f2fde38b146104ca5761012a565b8063715018a61461031f57806383c4c00d1461033657806387ab7517146103615780638da5cb5b1461037d57806395d89b41146103a85761012a565b806322e8f845116100f257806322e8f8451461022857806323b872dd1461025357806342842e0e1461027c5780636352211e146102a557806370a08231146102e25761012a565b806301ffc9a71461012f57806306fdde031461016c578063081812fc14610197578063089eb32d146101d4578063095ea7b3146101ff575b600080fd5b34801561013b57600080fd5b5061015660048036038101906101519190612254565b6104f3565b604051610163919061270a565b60405180910390f35b34801561017857600080fd5b506101816105d5565b60405161018e9190612725565b60405180910390f35b3480156101a357600080fd5b506101be60048036038101906101b991906122e7565b610667565b6040516101cb919061267a565b60405180910390f35b3480156101e057600080fd5b506101e96106ec565b6040516101f69190612987565b60405180910390f35b34801561020b57600080fd5b5061022660048036038101906102219190612218565b6106f2565b005b34801561023457600080fd5b5061023d61080a565b60405161024a919061267a565b60405180910390f35b34801561025f57600080fd5b5061027a60048036038101906102759190612112565b610830565b005b34801561028857600080fd5b506102a3600480360381019061029e9190612112565b610890565b005b3480156102b157600080fd5b506102cc60048036038101906102c791906122e7565b6108b0565b6040516102d9919061267a565b60405180910390f35b3480156102ee57600080fd5b50610309600480360381019061030491906120ad565b610962565b6040516103169190612987565b60405180910390f35b34801561032b57600080fd5b50610334610a1a565b005b34801561034257600080fd5b5061034b610aa2565b6040516103589190612987565b60405180910390f35b61037b600480360381019061037691906122a6565b610abf565b005b34801561038957600080fd5b50610392610c62565b60405161039f919061267a565b60405180910390f35b3480156103b457600080fd5b506103bd610c8c565b6040516103ca9190612725565b60405180910390f35b3480156103df57600080fd5b506103fa60048036038101906103f591906121dc565b610d1e565b005b34801561040857600080fd5b50610411610e9f565b60405161041e9190612987565b60405180910390f35b34801561043357600080fd5b5061044e60048036038101906104499190612161565b610ea5565b005b34801561045c57600080fd5b50610477600480360381019061047291906122e7565b610f07565b6040516104849190612725565b60405180910390f35b34801561049957600080fd5b506104b460048036038101906104af91906120d6565b611059565b6040516104c1919061270a565b60405180910390f35b3480156104d657600080fd5b506104f160048036038101906104ec91906120ad565b6110ed565b005b60007f80ac58cd000000000000000000000000000000000000000000000000000000007bffffffffffffffffffffffffffffffffffffffffffffffffffffffff1916827bffffffffffffffffffffffffffffffffffffffffffffffffffffffff191614806105be57507f5b5e139f000000000000000000000000000000000000000000000000000000007bffffffffffffffffffffffffffffffffffffffffffffffffffffffff1916827bffffffffffffffffffffffffffffffffffffffffffffffffffffffff1916145b806105ce57506105cd826111e5565b5b9050919050565b6060600080546105e490612c37565b80601f016020809104026020016040519081016040528092919081815260200182805461061090612c37565b801561065d5780601f106106325761010080835404028352916020019161065d565b820191906000526020600020905b81548152906001019060200180831161064057829003601f168201915b5050505050905090565b60006106728261124f565b6106b1576040517f08c379a00000000000000000000000000000000000000000000000000000000081526004016106a8906128c7565b60405180910390fd5b6004600083815260200190815260200160002060009054906101000a900473ffffffffffffffffffffffffffffffffffffffff169050919050565b60095481565b60006106fd826108b0565b90508073ffffffffffffffffffffffffffffffffffffffff168373ffffffffffffffffffffffffffffffffffffffff16141561076e576040517f08c379a000000000000000000000000000000000000000000000000000000000815260040161076590612947565b60405180910390fd5b8073ffffffffffffffffffffffffffffffffffffffff1661078d6112bb565b73ffffffffffffffffffffffffffffffffffffffff1614806107bc57506107bb816107b66112bb565b611059565b5b6107fb576040517f08c379a00000000000000000000000000000000000000000000000000000000081526004016107f290612807565b60405180910390fd5b61080583836112c3565b505050565b600b60009054906101000a900473ffffffffffffffffffffffffffffffffffffffff1681565b61084161083b6112bb565b8261137c565b610880576040517f08c379a000000000000000000000000000000000000000000000000000000000815260040161087790612967565b60405180910390fd5b61088b83838361145a565b505050565b6108ab83838360405180602001604052806000815250610ea5565b505050565b6000806002600084815260200190815260200160002060009054906101000a900473ffffffffffffffffffffffffffffffffffffffff169050600073ffffffffffffffffffffffffffffffffffffffff168173ffffffffffffffffffffffffffffffffffffffff161415610959576040517f08c379a000000000000000000000000000000000000000000000000000000000815260040161095090612847565b60405180910390fd5b80915050919050565b60008073ffffffffffffffffffffffffffffffffffffffff168273ffffffffffffffffffffffffffffffffffffffff1614156109d3576040517f08c379a00000000000000000000000000000000000000000000000000000000081526004016109ca90612827565b60405180910390fd5b600360008373ffffffffffffffffffffffffffffffffffffffff1673ffffffffffffffffffffffffffffffffffffffff168152602001908152602001600020549050919050565b610a226112bb565b73ffffffffffffffffffffffffffffffffffffffff16610a40610c62565b73ffffffffffffffffffffffffffffffffffffffff1614610a96576040517f08c379a0000000000000000000000000000000000000000000000000000000008152600401610a8d906128e7565b60405180910390fd5b610aa060006116b6565b565b60006001610ab0600a61177c565b610aba9190612b4d565b905090565b610ad233610acd600a61177c565b61178a565b610ae5610adf600a61177c565b826117a8565b610aef600a61181c565b600060095460085434610b029190612af3565b610b0c9190612ac2565b90506000811115610b6657610b1f610c62565b73ffffffffffffffffffffffffffffffffffffffff166108fc829081150290604051600060405180830381858888f19350505050158015610b64573d6000803e3d6000fd5b505b600b60009054906101000a900473ffffffffffffffffffffffffffffffffffffffff1673ffffffffffffffffffffffffffffffffffffffff166108fc479081150290604051600060405180830381858888f19350505050158015610bce573d6000803e3d6000fd5b50600d60009054906101000a900473ffffffffffffffffffffffffffffffffffffffff1673ffffffffffffffffffffffffffffffffffffffff166397c996a330336040518363ffffffff1660e01b8152600401610c2c929190612695565b600060405180830381600087803b158015610c4657600080fd5b505af1158015610c5a573d6000803e3d6000fd5b505050505050565b6000600760009054906101000a900473ffffffffffffffffffffffffffffffffffffffff16905090565b606060018054610c9b90612c37565b80601f0160208091040260200160405190810160405280929190818152602001828054610cc790612c37565b8015610d145780601f10610ce957610100808354040283529160200191610d14565b820191906000526020600020905b815481529060010190602001808311610cf757829003601f168201915b5050505050905090565b610d266112bb565b73ffffffffffffffffffffffffffffffffffffffff168273ffffffffffffffffffffffffffffffffffffffff161415610d94576040517f08c379a0000000000000000000000000000000000000000000000000000000008152600401610d8b906127c7565b60405180910390fd5b8060056000610da16112bb565b73ffffffffffffffffffffffffffffffffffffffff1673ffffffffffffffffffffffffffffffffffffffff16815260200190815260200160002060008473ffffffffffffffffffffffffffffffffffffffff1673ffffffffffffffffffffffffffffffffffffffff16815260200190815260200160002060006101000a81548160ff0219169083151502179055508173ffffffffffffffffffffffffffffffffffffffff16610e4e6112bb565b73ffffffffffffffffffffffffffffffffffffffff167f17307eab39ab6107e8899845ad3d59bd9653f200f220920489ca2b5937696c3183604051610e93919061270a565b60405180910390a35050565b60085481565b610eb6610eb06112bb565b8361137c565b610ef5576040517f08c379a0000000000000000000000000000000000000000000000000000000008152600401610eec90612967565b60405180910390fd5b610f0184848484611832565b50505050565b6060610f128261124f565b610f51576040517f08c379a0000000000000000000000000000000000000000000000000000000008152600401610f48906128a7565b60405180910390fd5b6000600660008481526020019081526020016000208054610f7190612c37565b80601f0160208091040260200160405190810160405280929190818152602001828054610f9d90612c37565b8015610fea5780601f10610fbf57610100808354040283529160200191610fea565b820191906000526020600020905b815481529060010190602001808311610fcd57829003601f168201915b505050505090506000610ffb61188e565b9050600081511415611011578192505050611054565b60008251111561104657808260405160200161102e929190612656565b60405160208183030381529060405292505050611054565b61104f846118a5565b925050505b919050565b6000600560008473ffffffffffffffffffffffffffffffffffffffff1673ffffffffffffffffffffffffffffffffffffffff16815260200190815260200160002060008373ffffffffffffffffffffffffffffffffffffffff1673ffffffffffffffffffffffffffffffffffffffff16815260200190815260200160002060009054906101000a900460ff16905092915050565b6110f56112bb565b73ffffffffffffffffffffffffffffffffffffffff16611113610c62565b73ffffffffffffffffffffffffffffffffffffffff1614611169576040517f08c379a0000000000000000000000000000000000000000000000000000000008152600401611160906128e7565b60405180910390fd5b600073ffffffffffffffffffffffffffffffffffffffff168173ffffffffffffffffffffffffffffffffffffffff1614156111d9576040517f08c379a00000000000000000000000000000000000000000000000000000000081526004016111d090612767565b60405180910390fd5b6111e2816116b6565b50565b60007f01ffc9a7000000000000000000000000000000000000000000000000000000007bffffffffffffffffffffffffffffffffffffffffffffffffffffffff1916827bffffffffffffffffffffffffffffffffffffffffffffffffffffffff1916149050919050565b60008073ffffffffffffffffffffffffffffffffffffffff166002600084815260200190815260200160002060009054906101000a900473ffffffffffffffffffffffffffffffffffffffff1673ffffffffffffffffffffffffffffffffffffffff1614159050919050565b600033905090565b816004600083815260200190815260200160002060006101000a81548173ffffffffffffffffffffffffffffffffffffffff021916908373ffffffffffffffffffffffffffffffffffffffff160217905550808273ffffffffffffffffffffffffffffffffffffffff16611336836108b0565b73ffffffffffffffffffffffffffffffffffffffff167f8c5be1e5ebec7d5bd14f71427d1e84f3dd0314c0f7b2291e5b200ac8c7c3b92560405160405180910390a45050565b60006113878261124f565b6113c6576040517f08c379a00000000000000000000000000000000000000000000000000000000081526004016113bd906127e7565b60405180910390fd5b60006113d1836108b0565b90508073ffffffffffffffffffffffffffffffffffffffff168473ffffffffffffffffffffffffffffffffffffffff16148061144057508373ffffffffffffffffffffffffffffffffffffffff1661142884610667565b73ffffffffffffffffffffffffffffffffffffffff16145b8061145157506114508185611059565b5b91505092915050565b8273ffffffffffffffffffffffffffffffffffffffff1661147a826108b0565b73ffffffffffffffffffffffffffffffffffffffff16146114d0576040517f08c379a00000000000000000000000000000000000000000000000000000000081526004016114c790612907565b60405180910390fd5b600073ffffffffffffffffffffffffffffffffffffffff168273ffffffffffffffffffffffffffffffffffffffff161415611540576040517f08c379a0000000000000000000000000000000000000000000000000000000008152600401611537906127a7565b60405180910390fd5b61154b83838361194c565b6115566000826112c3565b6001600360008573ffffffffffffffffffffffffffffffffffffffff1673ffffffffffffffffffffffffffffffffffffffff16815260200190815260200160002060008282546115a69190612b4d565b925050819055506001600360008473ffffffffffffffffffffffffffffffffffffffff1673ffffffffffffffffffffffffffffffffffffffff16815260200190815260200160002060008282546115fd9190612a6c565b92505081905550816002600083815260200190815260200160002060006101000a81548173ffffffffffffffffffffffffffffffffffffffff021916908373ffffffffffffffffffffffffffffffffffffffff160217905550808273ffffffffffffffffffffffffffffffffffffffff168473ffffffffffffffffffffffffffffffffffffffff167fddf252ad1be2c89b69c2b068fc378daa952ba7f163c4a11628f55a4df523b3ef60405160405180910390a4505050565b6000600760009054906101000a900473ffffffffffffffffffffffffffffffffffffffff16905081600760006101000a81548173ffffffffffffffffffffffffffffffffffffffff021916908373ffffffffffffffffffffffffffffffffffffffff1602179055508173ffffffffffffffffffffffffffffffffffffffff168173ffffffffffffffffffffffffffffffffffffffff167f8be0079c531659141344cd1fd0a4f28419497f9722a3daafe3b4186f6b6457e060405160405180910390a35050565b600081600001549050919050565b6117a4828260405180602001604052806000815250611951565b5050565b6117b18261124f565b6117f0576040517f08c379a00000000000000000000000000000000000000000000000000000000081526004016117e790612867565b60405180910390fd5b80600660008481526020019081526020016000209080519060200190611817929190611ed1565b505050565b6001816000016000828254019250508190555050565b61183d84848461145a565b611849848484846119ac565b611888576040517f08c379a000000000000000000000000000000000000000000000000000000000815260040161187f90612747565b60405180910390fd5b50505050565b606060405180602001604052806000815250905090565b60606118b08261124f565b6118ef576040517f08c379a00000000000000000000000000000000000000000000000000000000081526004016118e690612927565b60405180910390fd5b60006118f961188e565b905060008151116119195760405180602001604052806000815250611944565b8061192384611b43565b604051602001611934929190612656565b6040516020818303038152906040525b915050919050565b505050565b61195b8383611cf0565b61196860008484846119ac565b6119a7576040517f08c379a000000000000000000000000000000000000000000000000000000000815260040161199e90612747565b60405180910390fd5b505050565b60006119cd8473ffffffffffffffffffffffffffffffffffffffff16611ebe565b15611b36578373ffffffffffffffffffffffffffffffffffffffff1663150b7a026119f66112bb565b8786866040518563ffffffff1660e01b8152600401611a1894939291906126be565b602060405180830381600087803b158015611a3257600080fd5b505af1925050508015611a6357506040513d601f19601f82011682018060405250810190611a60919061227d565b60015b611ae6573d8060008114611a93576040519150601f19603f3d011682016040523d82523d6000602084013e611a98565b606091505b50600081511415611ade576040517f08c379a0000000000000000000000000000000000000000000000000000000008152600401611ad590612747565b60405180910390fd5b805181602001fd5b63150b7a0260e01b7bffffffffffffffffffffffffffffffffffffffffffffffffffffffff1916817bffffffffffffffffffffffffffffffffffffffffffffffffffffffff191614915050611b3b565b600190505b949350505050565b60606000821415611b8b576040518060400160405280600181526020017f30000000000000000000000000000000000000000000000000000000000000008152509050611ceb565b600082905060005b60008214611bbd578080611ba690612c9a565b915050600a82611bb69190612ac2565b9150611b93565b60008167ffffffffffffffff811115611bff577f4e487b7100000000000000000000000000000000000000000000000000000000600052604160045260246000fd5b6040519080825280601f01601f191660200182016040528015611c315781602001600182028036833780820191505090505b5090505b60008514611ce457600182611c4a9190612b4d565b9150600a85611c599190612ce3565b6030611c659190612a6c565b60f81b818381518110611ca1577f4e487b7100000000000000000000000000000000000000000000000000000000600052603260045260246000fd5b60200101907effffffffffffffffffffffffffffffffffffffffffffffffffffffffffffff1916908160001a905350600a85611cdd9190612ac2565b9450611c35565b8093505050505b919050565b600073ffffffffffffffffffffffffffffffffffffffff168273ffffffffffffffffffffffffffffffffffffffff161415611d60576040517f08c379a0000000000000000000000000000000000000000000000000000000008152600401611d5790612887565b60405180910390fd5b611d698161124f565b15611da9576040517f08c379a0000000000000000000000000000000000000000000000000000000008152600401611da090612787565b60405180910390fd5b611db56000838361194c565b6001600360008473ffffffffffffffffffffffffffffffffffffffff1673ffffffffffffffffffffffffffffffffffffffff1681526020019081526020016000206000828254611e059190612a6c565b92505081905550816002600083815260200190815260200160002060006101000a81548173ffffffffffffffffffffffffffffffffffffffff021916908373ffffffffffffffffffffffffffffffffffffffff160217905550808273ffffffffffffffffffffffffffffffffffffffff16600073ffffffffffffffffffffffffffffffffffffffff167fddf252ad1be2c89b69c2b068fc378daa952ba7f163c4a11628f55a4df523b3ef60405160405180910390a45050565b600080823b905060008111915050919050565b828054611edd90612c37565b90600052602060002090601f016020900481019282611eff5760008555611f46565b82601f10611f1857805160ff1916838001178555611f46565b82800160010185558215611f46579182015b82811115611f45578251825591602001919060010190611f2a565b5b509050611f539190611f57565b5090565b5b80821115611f70576000816000905550600101611f58565b5090565b6000611f87611f82846129c7565b6129a2565b905082815260208101848484011115611f9f57600080fd5b611faa848285612bf5565b509392505050565b6000611fc5611fc0846129f8565b6129a2565b905082815260208101848484011115611fdd57600080fd5b611fe8848285612bf5565b509392505050565b600081359050611fff816132d7565b92915050565b600081359050612014816132ee565b92915050565b60008135905061202981613305565b92915050565b60008151905061203e81613305565b92915050565b600082601f83011261205557600080fd5b8135612065848260208601611f74565b91505092915050565b600082601f83011261207f57600080fd5b813561208f848260208601611fb2565b91505092915050565b6000813590506120a78161331c565b92915050565b6000602082840312156120bf57600080fd5b60006120cd84828501611ff0565b91505092915050565b600080604083850312156120e957600080fd5b60006120f785828601611ff0565b925050602061210885828601611ff0565b9150509250929050565b60008060006060848603121561212757600080fd5b600061213586828701611ff0565b935050602061214686828701611ff0565b925050604061215786828701612098565b9150509250925092565b6000806000806080858703121561217757600080fd5b600061218587828801611ff0565b945050602061219687828801611ff0565b93505060406121a787828801612098565b925050606085013567ffffffffffffffff8111156121c457600080fd5b6121d087828801612044565b91505092959194509250565b600080604083850312156121ef57600080fd5b60006121fd85828601611ff0565b925050602061220e85828601612005565b9150509250929050565b6000806040838503121561222b57600080fd5b600061223985828601611ff0565b925050602061224a85828601612098565b9150509250929050565b60006020828403121561226657600080fd5b60006122748482850161201a565b91505092915050565b60006020828403121561228f57600080fd5b600061229d8482850161202f565b91505092915050565b6000602082840312156122b857600080fd5b600082013567ffffffffffffffff8111156122d257600080fd5b6122de8482850161206e565b91505092915050565b6000602082840312156122f957600080fd5b600061230784828501612098565b91505092915050565b61231981612b81565b82525050565b61232881612b93565b82525050565b600061233982612a29565b6123438185612a3f565b9350612353818560208601612c04565b61235c81612dd0565b840191505092915050565b600061237282612a34565b61237c8185612a50565b935061238c818560208601612c04565b61239581612dd0565b840191505092915050565b60006123ab82612a34565b6123b58185612a61565b93506123c5818560208601612c04565b80840191505092915050565b60006123de603283612a50565b91506123e982612de1565b604082019050919050565b6000612401602683612a50565b915061240c82612e30565b604082019050919050565b6000612424601c83612a50565b915061242f82612e7f565b602082019050919050565b6000612447602483612a50565b915061245282612ea8565b604082019050919050565b600061246a601983612a50565b915061247582612ef7565b602082019050919050565b600061248d602c83612a50565b915061249882612f20565b604082019050919050565b60006124b0603883612a50565b91506124bb82612f6f565b604082019050919050565b60006124d3602a83612a50565b91506124de82612fbe565b604082019050919050565b60006124f6602983612a50565b91506125018261300d565b604082019050919050565b6000612519602e83612a50565b91506125248261305c565b604082019050919050565b600061253c602083612a50565b9150612547826130ab565b602082019050919050565b600061255f603183612a50565b915061256a826130d4565b604082019050919050565b6000612582602c83612a50565b915061258d82613123565b604082019050919050565b60006125a5602083612a50565b91506125b082613172565b602082019050919050565b60006125c8602983612a50565b91506125d38261319b565b604082019050919050565b60006125eb602f83612a50565b91506125f6826131ea565b604082019050919050565b600061260e602183612a50565b915061261982613239565b604082019050919050565b6000612631603183612a50565b915061263c82613288565b604082019050919050565b61265081612beb565b82525050565b600061266282856123a0565b915061266e82846123a0565b91508190509392505050565b600060208201905061268f6000830184612310565b92915050565b60006040820190506126aa6000830185612310565b6126b76020830184612310565b9392505050565b60006080820190506126d36000830187612310565b6126e06020830186612310565b6126ed6040830185612647565b81810360608301526126ff818461232e565b905095945050505050565b600060208201905061271f600083018461231f565b92915050565b6000602082019050818103600083015261273f8184612367565b905092915050565b60006020820190508181036000830152612760816123d1565b9050919050565b60006020820190508181036000830152612780816123f4565b9050919050565b600060208201905081810360008301526127a081612417565b9050919050565b600060208201905081810360008301526127c08161243a565b9050919050565b600060208201905081810360008301526127e08161245d565b9050919050565b6000602082019050818103600083015261280081612480565b9050919050565b60006020820190508181036000830152612820816124a3565b9050919050565b60006020820190508181036000830152612840816124c6565b9050919050565b60006020820190508181036000830152612860816124e9565b9050919050565b600060208201905081810360008301526128808161250c565b9050919050565b600060208201905081810360008301526128a08161252f565b9050919050565b600060208201905081810360008301526128c081612552565b9050919050565b600060208201905081810360008301526128e081612575565b9050919050565b6000602082019050818103600083015261290081612598565b9050919050565b60006020820190508181036000830152612920816125bb565b9050919050565b60006020820190508181036000830152612940816125de565b9050919050565b6000602082019050818103600083015261296081612601565b9050919050565b6000602082019050818103600083015261298081612624565b9050919050565b600060208201905061299c6000830184612647565b92915050565b60006129ac6129bd565b90506129b88282612c69565b919050565b6000604051905090565b600067ffffffffffffffff8211156129e2576129e1612da1565b5b6129eb82612dd0565b9050602081019050919050565b600067ffffffffffffffff821115612a1357612a12612da1565b5b612a1c82612dd0565b9050602081019050919050565b600081519050919050565b600081519050919050565b600082825260208201905092915050565b600082825260208201905092915050565b600081905092915050565b6000612a7782612beb565b9150612a8283612beb565b9250827fffffffffffffffffffffffffffffffffffffffffffffffffffffffffffffffff03821115612ab757612ab6612d14565b5b828201905092915050565b6000612acd82612beb565b9150612ad883612beb565b925082612ae857612ae7612d43565b5b828204905092915050565b6000612afe82612beb565b9150612b0983612beb565b9250817fffffffffffffffffffffffffffffffffffffffffffffffffffffffffffffffff0483118215151615612b4257612b41612d14565b5b828202905092915050565b6000612b5882612beb565b9150612b6383612beb565b925082821015612b7657612b75612d14565b5b828203905092915050565b6000612b8c82612bcb565b9050919050565b60008115159050919050565b60007fffffffff0000000000000000000000000000000000000000000000000000000082169050919050565b600073ffffffffffffffffffffffffffffffffffffffff82169050919050565b6000819050919050565b82818337600083830152505050565b60005b83811015612c22578082015181840152602081019050612c07565b83811115612c31576000848401525b50505050565b60006002820490506001821680612c4f57607f821691505b60208210811415612c6357612c62612d72565b5b50919050565b612c7282612dd0565b810181811067ffffffffffffffff82111715612c9157612c90612da1565b5b80604052505050565b6000612ca582612beb565b91507fffffffffffffffffffffffffffffffffffffffffffffffffffffffffffffffff821415612cd857612cd7612d14565b5b600182019050919050565b6000612cee82612beb565b9150612cf983612beb565b925082612d0957612d08612d43565b5b828206905092915050565b7f4e487b7100000000000000000000000000000000000000000000000000000000600052601160045260246000fd5b7f4e487b7100000000000000000000000000000000000000000000000000000000600052601260045260246000fd5b7f4e487b7100000000000000000000000000000000000000000000000000000000600052602260045260246000fd5b7f4e487b7100000000000000000000000000000000000000000000000000000000600052604160045260246000fd5b6000601f19601f8301169050919050565b7f4552433732313a207472616e7366657220746f206e6f6e20455243373231526560008201527f63656976657220696d706c656d656e7465720000000000000000000000000000602082015250565b7f4f776e61626c653a206e6577206f776e657220697320746865207a65726f206160008201527f6464726573730000000000000000000000000000000000000000000000000000602082015250565b7f4552433732313a20746f6b656e20616c7265616479206d696e74656400000000600082015250565b7f4552433732313a207472616e7366657220746f20746865207a65726f2061646460008201527f7265737300000000000000000000000000000000000000000000000000000000602082015250565b7f4552433732313a20617070726f766520746f2063616c6c657200000000000000600082015250565b7f4552433732313a206f70657261746f7220717565727920666f72206e6f6e657860008201527f697374656e7420746f6b656e0000000000000000000000000000000000000000602082015250565b7f4552433732313a20617070726f76652063616c6c6572206973206e6f74206f7760008201527f6e6572206e6f7220617070726f76656420666f7220616c6c0000000000000000602082015250565b7f4552433732313a2062616c616e636520717565727920666f7220746865207a6560008201527f726f206164647265737300000000000000000000000000000000000000000000602082015250565b7f4552433732313a206f776e657220717565727920666f72206e6f6e657869737460008201527f656e7420746f6b656e0000000000000000000000000000000000000000000000602082015250565b7f45524337323155524953746f726167653a2055524920736574206f66206e6f6e60008201527f6578697374656e7420746f6b656e000000000000000000000000000000000000602082015250565b7f4552433732313a206d696e7420746f20746865207a65726f2061646472657373600082015250565b7f45524337323155524953746f726167653a2055524920717565727920666f722060008201527f6e6f6e6578697374656e7420746f6b656e000000000000000000000000000000602082015250565b7f4552433732313a20617070726f76656420717565727920666f72206e6f6e657860008201527f697374656e7420746f6b656e0000000000000000000000000000000000000000602082015250565b7f4f776e61626c653a2063616c6c6572206973206e6f7420746865206f776e6572600082015250565b7f4552433732313a207472616e73666572206f6620746f6b656e2074686174206960008201527f73206e6f74206f776e0000000000000000000000000000000000000000000000602082015250565b7f4552433732314d657461646174613a2055524920717565727920666f72206e6f60008201527f6e6578697374656e7420746f6b656e0000000000000000000000000000000000602082015250565b7f4552433732313a20617070726f76616c20746f2063757272656e74206f776e6560008201527f7200000000000000000000000000000000000000000000000000000000000000602082015250565b7f4552433732313a207472616e736665722063616c6c6572206973206e6f74206f60008201527f776e6572206e6f7220617070726f766564000000000000000000000000000000602082015250565b6132e081612b81565b81146132eb57600080fd5b50565b6132f781612b93565b811461330257600080fd5b50565b61330e81612b9f565b811461331957600080fd5b50565b61332581612beb565b811461333057600080fd5b5056fea2646970667358221220e71e0b9e0215108033a5bdfc9558bc0a606b5c9d7aa41603a82c499e7a81f6b264736f6c63430008040033a2646970667358221220546336059fa536564328f1085e6593e2ee2dbf33f6bc9d7737a1e73efda41bcd64736f6c63430008040033",
  "linkReferences": {},
  "deployedLinkReferences": {}
}