{
  "_format": "hh-sol-artifact-1",
  "contractName": "MetapassFactory",
  "sourceName": "contracts/MetapassFactory.sol",
  "abi": [
    {
      "inputs": [
        {
          "internalType": "address",
          "name": "_storageProxy",
          "type": "address"
        }
      ],
      "stateMutability": "nonpayable",
      "type": "constructor"
    },
    {
      "anonymous": false,
      "inputs": [
        {
          "indexed": true,
          "internalType": "address",
          "name": "previousOwner",
          "type": "address"
        },
        {
          "indexed": true,
          "internalType": "address",
          "name": "newOwner",
          "type": "address"
        }
      ],
      "name": "OwnershipTransferred",
      "type": "event"
    },
    {
      "anonymous": false,
      "inputs": [
        {
          "indexed": false,
          "internalType": "address",
          "name": "child",
          "type": "address"
        }
      ],
      "name": "childEvent",
      "type": "event"
    },
    {
      "inputs": [
        {
          "internalType": "address",
          "name": "",
          "type": "address"
        },
        {
          "internalType": "uint256",
          "name": "",
          "type": "uint256"
        }
      ],
      "name": "addressToEventMap",
      "outputs": [
        {
          "internalType": "contract Metapass",
          "name": "",
          "type": "address"
        }
      ],
      "stateMutability": "view",
      "type": "function"
    },
    {
      "inputs": [
        {
          "internalType": "string",
          "name": "title",
          "type": "string"
        },
        {
          "internalType": "uint256",
          "name": "fee",
          "type": "uint256"
        },
        {
          "internalType": "uint256",
          "name": "seats",
          "type": "uint256"
        },
        {
          "internalType": "string",
          "name": "image",
          "type": "string"
        },
        {
          "internalType": "address",
          "name": "eventHostAddress",
          "type": "address"
        },
        {
          "internalType": "string",
          "name": "description",
          "type": "string"
        },
        {
          "internalType": "string",
          "name": "link",
          "type": "string"
        },
        {
          "internalType": "string",
          "name": "date",
          "type": "string"
        },
        {
          "internalType": "string",
          "name": "category",
          "type": "string"
        },
        {
          "internalType": "string",
          "name": "venue",
          "type": "string"
        }
      ],
      "name": "createEvent",
      "outputs": [],
      "stateMutability": "nonpayable",
      "type": "function"
    },
    {
      "inputs": [],
      "name": "getEventChildren",
      "outputs": [
        {
          "internalType": "contract Metapass[]",
          "name": "",
          "type": "address[]"
        }
      ],
      "stateMutability": "view",
      "type": "function"
    },
    {
      "inputs": [],
      "name": "owner",
      "outputs": [
        {
          "internalType": "address",
          "name": "",
          "type": "address"
        }
      ],
      "stateMutability": "view",
      "type": "function"
    },
    {
      "inputs": [],
      "name": "renounceOwnership",
      "outputs": [],
      "stateMutability": "nonpayable",
      "type": "function"
    },
    {
      "inputs": [
        {
          "internalType": "address",
          "name": "newOwner",
          "type": "address"
        }
      ],
      "name": "transferOwnership",
      "outputs": [],
      "stateMutability": "nonpayable",
      "type": "function"
    },
    {
      "inputs": [
        {
          "internalType": "uint256",
          "name": "num",
          "type": "uint256"
        },
        {
          "internalType": "uint256",
          "name": "den",
          "type": "uint256"
        }
      ],
      "name": "updateRewards",
      "outputs": [],
      "stateMutability": "nonpayable",
      "type": "function"
    }
  ],
  "bytecode": "0x6080604052600060025560646003553480156200001b57600080fd5b5060405162004d8438038062004d8483398181016040528101906200004191906200018c565b6200006162000055620000a960201b60201c565b620000b160201b60201c565b80600160006101000a81548173ffffffffffffffffffffffffffffffffffffffff021916908373ffffffffffffffffffffffffffffffffffffffff1602179055505062000206565b600033905090565b60008060009054906101000a900473ffffffffffffffffffffffffffffffffffffffff169050816000806101000a81548173ffffffffffffffffffffffffffffffffffffffff021916908373ffffffffffffffffffffffffffffffffffffffff1602179055508173ffffffffffffffffffffffffffffffffffffffff168173ffffffffffffffffffffffffffffffffffffffff167f8be0079c531659141344cd1fd0a4f28419497f9722a3daafe3b4186f6b6457e060405160405180910390a35050565b6000815190506200018681620001ec565b92915050565b6000602082840312156200019f57600080fd5b6000620001af8482850162000175565b91505092915050565b6000620001c582620001cc565b9050919050565b600073ffffffffffffffffffffffffffffffffffffffff82169050919050565b620001f781620001b8565b81146200020357600080fd5b50565b614b6e80620002166000396000f3fe60806040523480156200001157600080fd5b5060043610620000885760003560e01c80638da5cb5b11620000635780638da5cb5b14620000ef57806395239b1d146200011157806397e508181462000133578063f2fde38b14620001535762000088565b806326b8a9f2146200008d57806354d8832f14620000ad578063715018a614620000e3575b600080fd5b620000ab6004803603810190620000a59190620008bf565b62000173565b005b620000cb6004803603810190620000c591906200087e565b62000369565b604051620000da919062000c37565b60405180910390f35b620000ed620003b8565b005b620000f962000449565b60405162000108919062000bf6565b60405180910390f35b6200011b62000472565b6040516200012a919062000c13565b60405180910390f35b6200015160048036038101906200014b919062000a5e565b6200053f565b005b6200017160048036038101906200016b919062000852565b620005d4565b005b6000600254600354888c600160009054906101000a900473ffffffffffffffffffffffffffffffffffffffff16604051620001ae90620007a4565b620001be95949392919062000d8a565b604051809103906000f080158015620001db573d6000803e3d6000fd5b5090507fac019feb294291d1eeb94a1764f5788029ff617ba51acc0f47416b4725da610c816040516200020f919062000bf6565b60405180910390a1600460003373ffffffffffffffffffffffffffffffffffffffff1673ffffffffffffffffffffffffffffffffffffffff168152602001908152602001600020819080600181540180825580915050600190039060005260206000200160009091909190916101000a81548173ffffffffffffffffffffffffffffffffffffffff021916908373ffffffffffffffffffffffffffffffffffffffff160217905550600160009054906101000a900473ffffffffffffffffffffffffffffffffffffffff1673ffffffffffffffffffffffffffffffffffffffff16630d93805f8c8c8c8c8c8c8c8c8a8d8d6040518c63ffffffff1660e01b8152600401620003289b9a9998979695949392919062000c54565b600060405180830381600087803b1580156200034357600080fd5b505af115801562000358573d6000803e3d6000fd5b505050505050505050505050505050565b600460205281600052604060002081815481106200038657600080fd5b906000526020600020016000915091509054906101000a900473ffffffffffffffffffffffffffffffffffffffff1681565b620003c2620006d8565b73ffffffffffffffffffffffffffffffffffffffff16620003e262000449565b73ffffffffffffffffffffffffffffffffffffffff16146200043b576040517f08c379a0000000000000000000000000000000000000000000000000000000008152600401620004329062000d68565b60405180910390fd5b620004476000620006e0565b565b60008060009054906101000a900473ffffffffffffffffffffffffffffffffffffffff16905090565b6060600460003373ffffffffffffffffffffffffffffffffffffffff1673ffffffffffffffffffffffffffffffffffffffff1681526020019081526020016000208054806020026020016040519081016040528092919081815260200182805480156200053557602002820191906000526020600020905b8160009054906101000a900473ffffffffffffffffffffffffffffffffffffffff1673ffffffffffffffffffffffffffffffffffffffff1681526020019060010190808311620004ea575b5050505050905090565b62000549620006d8565b73ffffffffffffffffffffffffffffffffffffffff166200056962000449565b73ffffffffffffffffffffffffffffffffffffffff1614620005c2576040517f08c379a0000000000000000000000000000000000000000000000000000000008152600401620005b99062000d68565b60405180910390fd5b81600281905550806003819055505050565b620005de620006d8565b73ffffffffffffffffffffffffffffffffffffffff16620005fe62000449565b73ffffffffffffffffffffffffffffffffffffffff161462000657576040517f08c379a00000000000000000000000000000000000000000000000000000000081526004016200064e9062000d68565b60405180910390fd5b600073ffffffffffffffffffffffffffffffffffffffff168173ffffffffffffffffffffffffffffffffffffffff161415620006ca576040517f08c379a0000000000000000000000000000000000000000000000000000000008152600401620006c19062000d46565b60405180910390fd5b620006d581620006e0565b50565b600033905090565b60008060009054906101000a900473ffffffffffffffffffffffffffffffffffffffff169050816000806101000a81548173ffffffffffffffffffffffffffffffffffffffff021916908373ffffffffffffffffffffffffffffffffffffffff1602179055508173ffffffffffffffffffffffffffffffffffffffff168173ffffffffffffffffffffffffffffffffffffffff167f8be0079c531659141344cd1fd0a4f28419497f9722a3daafe3b4186f6b6457e060405160405180910390a35050565b613ad0806200106983390190565b6000620007c9620007c38462000e10565b62000de7565b905082815260208101848484011115620007e257600080fd5b620007ef84828562000f01565b509392505050565b600081359050620008088162001034565b92915050565b600082601f8301126200082057600080fd5b813562000832848260208601620007b2565b91505092915050565b6000813590506200084c816200104e565b92915050565b6000602082840312156200086557600080fd5b60006200087584828501620007f7565b91505092915050565b600080604083850312156200089257600080fd5b6000620008a285828601620007f7565b9250506020620008b5858286016200083b565b9150509250929050565b6000806000806000806000806000806101408b8d031215620008e057600080fd5b60008b013567ffffffffffffffff811115620008fb57600080fd5b620009098d828e016200080e565b9a505060206200091c8d828e016200083b565b99505060406200092f8d828e016200083b565b98505060608b013567ffffffffffffffff8111156200094d57600080fd5b6200095b8d828e016200080e565b97505060806200096e8d828e01620007f7565b96505060a08b013567ffffffffffffffff8111156200098c57600080fd5b6200099a8d828e016200080e565b95505060c08b013567ffffffffffffffff811115620009b857600080fd5b620009c68d828e016200080e565b94505060e08b013567ffffffffffffffff811115620009e457600080fd5b620009f28d828e016200080e565b9350506101008b013567ffffffffffffffff81111562000a1157600080fd5b62000a1f8d828e016200080e565b9250506101208b013567ffffffffffffffff81111562000a3e57600080fd5b62000a4c8d828e016200080e565b9150509295989b9194979a5092959850565b6000806040838503121562000a7257600080fd5b600062000a82858286016200083b565b925050602062000a95858286016200083b565b9150509250929050565b600062000aad838362000b34565b60208301905092915050565b62000ac48162000e9b565b82525050565b600062000ad78262000e56565b62000ae3818562000e79565b935062000af08362000e46565b8060005b8381101562000b2757815162000b0b888262000a9f565b975062000b188362000e6c565b92505060018101905062000af4565b5085935050505092915050565b62000b3f8162000ed9565b82525050565b62000b508162000ed9565b82525050565b600062000b638262000e61565b62000b6f818562000e8a565b935062000b8181856020860162000f10565b62000b8c8162000fab565b840191505092915050565b600062000ba660268362000e8a565b915062000bb38262000fbc565b604082019050919050565b600062000bcd60208362000e8a565b915062000bda826200100b565b602082019050919050565b62000bf08162000ecf565b82525050565b600060208201905062000c0d600083018462000ab9565b92915050565b6000602082019050818103600083015262000c2f818462000aca565b905092915050565b600060208201905062000c4e600083018462000b45565b92915050565b600061016082019050818103600083015262000c71818e62000b56565b905062000c82602083018d62000be5565b62000c91604083018c62000be5565b818103606083015262000ca5818b62000b56565b905062000cb6608083018a62000ab9565b81810360a083015262000cca818962000b56565b905081810360c083015262000ce0818862000b56565b905081810360e083015262000cf6818762000b56565b905062000d0861010083018662000ab9565b81810361012083015262000d1d818562000b56565b905081810361014083015262000d34818462000b56565b90509c9b505050505050505050505050565b6000602082019050818103600083015262000d618162000b97565b9050919050565b6000602082019050818103600083015262000d838162000bbe565b9050919050565b600060a08201905062000da1600083018862000be5565b62000db0602083018762000be5565b62000dbf604083018662000ab9565b62000dce606083018562000be5565b62000ddd608083018462000ab9565b9695505050505050565b600062000df362000e06565b905062000e01828262000f46565b919050565b6000604051905090565b600067ffffffffffffffff82111562000e2e5762000e2d62000f7c565b5b62000e398262000fab565b9050602081019050919050565b6000819050602082019050919050565b600081519050919050565b600081519050919050565b6000602082019050919050565b600082825260208201905092915050565b600082825260208201905092915050565b600062000ea88262000eaf565b9050919050565b600073ffffffffffffffffffffffffffffffffffffffff82169050919050565b6000819050919050565b600062000ee68262000eed565b9050919050565b600062000efa8262000eaf565b9050919050565b82818337600083830152505050565b60005b8381101562000f3057808201518184015260208101905062000f13565b8381111562000f40576000848401525b50505050565b62000f518262000fab565b810181811067ffffffffffffffff8211171562000f735762000f7262000f7c565b5b80604052505050565b7f4e487b7100000000000000000000000000000000000000000000000000000000600052604160045260246000fd5b6000601f19601f8301169050919050565b7f4f776e61626c653a206e6577206f776e657220697320746865207a65726f206160008201527f6464726573730000000000000000000000000000000000000000000000000000602082015250565b7f4f776e61626c653a2063616c6c6572206973206e6f7420746865206f776e6572600082015250565b6200103f8162000e9b565b81146200104b57600080fd5b50565b620010598162000ecf565b81146200106557600080fd5b5056fe6080604052600060085560646009553480156200001b57600080fd5b5060405162003ad038038062003ad08339818101604052810190620000419190620004c2565b6040518060400160405280600f81526020017f4d657461706173735469636b65747300000000000000000000000000000000008152506040518060400160405280600881526020017f4d455441504153530000000000000000000000000000000000000000000000008152508160009080519060200190620000c5929190620003e4565b508060019080519060200190620000de929190620003e4565b50505062000101620000f5620001d660201b60201c565b620001de60201b60201c565b846008819055508360098190555081600c8190555082600b60006101000a81548173ffffffffffffffffffffffffffffffffffffffff021916908373ffffffffffffffffffffffffffffffffffffffff16021790555080600d60006101000a81548173ffffffffffffffffffffffffffffffffffffffff021916908373ffffffffffffffffffffffffffffffffffffffff160217905550620001cb600b60009054906101000a900473ffffffffffffffffffffffffffffffffffffffff16620002a460201b60201c565b505050505062000736565b600033905090565b6000600760009054906101000a900473ffffffffffffffffffffffffffffffffffffffff16905081600760006101000a81548173ffffffffffffffffffffffffffffffffffffffff021916908373ffffffffffffffffffffffffffffffffffffffff1602179055508173ffffffffffffffffffffffffffffffffffffffff168173ffffffffffffffffffffffffffffffffffffffff167f8be0079c531659141344cd1fd0a4f28419497f9722a3daafe3b4186f6b6457e060405160405180910390a35050565b620002b4620001d660201b60201c565b73ffffffffffffffffffffffffffffffffffffffff16620002da620003ba60201b60201c565b73ffffffffffffffffffffffffffffffffffffffff161462000333576040517f08c379a00000000000000000000000000000000000000000000000000000000081526004016200032a90620005b4565b60405180910390fd5b600073ffffffffffffffffffffffffffffffffffffffff168173ffffffffffffffffffffffffffffffffffffffff161415620003a6576040517f08c379a00000000000000000000000000000000000000000000000000000000081526004016200039d9062000592565b60405180910390fd5b620003b781620001de60201b60201c565b50565b6000600760009054906101000a900473ffffffffffffffffffffffffffffffffffffffff16905090565b828054620003f29062000625565b90600052602060002090601f01602090048101928262000416576000855562000462565b82601f106200043157805160ff191683800117855562000462565b8280016001018555821562000462579182015b828111156200046157825182559160200191906001019062000444565b5b50905062000471919062000475565b5090565b5b808211156200049057600081600090555060010162000476565b5090565b600081519050620004a58162000702565b92915050565b600081519050620004bc816200071c565b92915050565b600080600080600060a08688031215620004db57600080fd5b6000620004eb88828901620004ab565b9550506020620004fe88828901620004ab565b9450506040620005118882890162000494565b93505060606200052488828901620004ab565b9250506080620005378882890162000494565b9150509295509295909350565b600062000553602683620005d6565b915062000560826200068a565b604082019050919050565b60006200057a602083620005d6565b91506200058782620006d9565b602082019050919050565b60006020820190508181036000830152620005ad8162000544565b9050919050565b60006020820190508181036000830152620005cf816200056b565b9050919050565b600082825260208201905092915050565b6000620005f482620005fb565b9050919050565b600073ffffffffffffffffffffffffffffffffffffffff82169050919050565b6000819050919050565b600060028204905060018216806200063e57607f821691505b602082108114156200065557620006546200065b565b5b50919050565b7f4e487b7100000000000000000000000000000000000000000000000000000000600052602260045260246000fd5b7f4f776e61626c653a206e6577206f776e657220697320746865207a65726f206160008201527f6464726573730000000000000000000000000000000000000000000000000000602082015250565b7f4f776e61626c653a2063616c6c6572206973206e6f7420746865206f776e6572600082015250565b6200070d81620005e7565b81146200071957600080fd5b50565b62000727816200061b565b81146200073357600080fd5b50565b61338a80620007466000396000f3fe60806040526004361061011f5760003560e01c8063715018a6116100a0578063abf0f57311610064578063abf0f573146103c6578063b88d4fde146103f1578063c87b56dd1461041a578063e985e9c514610457578063f2fde38b146104945761011f565b8063715018a61461031457806387ab75171461032b5780638da5cb5b1461034757806395d89b4114610372578063a22cb4651461039d5761011f565b806322e8f845116100e757806322e8f8451461021d57806323b872dd1461024857806342842e0e146102715780636352211e1461029a57806370a08231146102d75761011f565b806301ffc9a71461012457806306fdde0314610161578063081812fc1461018c578063089eb32d146101c9578063095ea7b3146101f4575b600080fd5b34801561013057600080fd5b5061014b60048036038101906101469190612267565b6104bd565b604051610158919061272b565b60405180910390f35b34801561016d57600080fd5b5061017661059f565b6040516101839190612746565b60405180910390f35b34801561019857600080fd5b506101b360048036038101906101ae91906122fa565b610631565b6040516101c0919061268d565b60405180910390f35b3480156101d557600080fd5b506101de6106b6565b6040516101eb91906129a8565b60405180910390f35b34801561020057600080fd5b5061021b6004803603810190610216919061222b565b6106bc565b005b34801561022957600080fd5b506102326107d4565b60405161023f919061268d565b60405180910390f35b34801561025457600080fd5b5061026f600480360381019061026a9190612125565b6107fa565b005b34801561027d57600080fd5b5061029860048036038101906102939190612125565b61085a565b005b3480156102a657600080fd5b506102c160048036038101906102bc91906122fa565b61087a565b6040516102ce919061268d565b60405180910390f35b3480156102e357600080fd5b506102fe60048036038101906102f991906120c0565b61092c565b60405161030b91906129a8565b60405180910390f35b34801561032057600080fd5b506103296109e4565b005b610345600480360381019061034091906122b9565b610a6c565b005b34801561035357600080fd5b5061035c610c75565b604051610369919061268d565b60405180910390f35b34801561037e57600080fd5b50610387610c9f565b6040516103949190612746565b60405180910390f35b3480156103a957600080fd5b506103c460048036038101906103bf91906121ef565b610d31565b005b3480156103d257600080fd5b506103db610eb2565b6040516103e891906129a8565b60405180910390f35b3480156103fd57600080fd5b5061041860048036038101906104139190612174565b610eb8565b005b34801561042657600080fd5b50610441600480360381019061043c91906122fa565b610f1a565b60405161044e9190612746565b60405180910390f35b34801561046357600080fd5b5061047e600480360381019061047991906120e9565b61106c565b60405161048b919061272b565b60405180910390f35b3480156104a057600080fd5b506104bb60048036038101906104b691906120c0565b611100565b005b60007f80ac58cd000000000000000000000000000000000000000000000000000000007bffffffffffffffffffffffffffffffffffffffffffffffffffffffff1916827bffffffffffffffffffffffffffffffffffffffffffffffffffffffff1916148061058857507f5b5e139f000000000000000000000000000000000000000000000000000000007bffffffffffffffffffffffffffffffffffffffffffffffffffffffff1916827bffffffffffffffffffffffffffffffffffffffffffffffffffffffff1916145b806105985750610597826111f8565b5b9050919050565b6060600080546105ae90612c58565b80601f01602080910402602001604051908101604052809291908181526020018280546105da90612c58565b80156106275780601f106105fc57610100808354040283529160200191610627565b820191906000526020600020905b81548152906001019060200180831161060a57829003601f168201915b5050505050905090565b600061063c82611262565b61067b576040517f08c379a0000000000000000000000000000000000000000000000000000000008152600401610672906128e8565b60405180910390fd5b6004600083815260200190815260200160002060009054906101000a900473ffffffffffffffffffffffffffffffffffffffff169050919050565b60095481565b60006106c78261087a565b90508073ffffffffffffffffffffffffffffffffffffffff168373ffffffffffffffffffffffffffffffffffffffff161415610738576040517f08c379a000000000000000000000000000000000000000000000000000000000815260040161072f90612968565b60405180910390fd5b8073ffffffffffffffffffffffffffffffffffffffff166107576112ce565b73ffffffffffffffffffffffffffffffffffffffff1614806107865750610785816107806112ce565b61106c565b5b6107c5576040517f08c379a00000000000000000000000000000000000000000000000000000000081526004016107bc90612828565b60405180910390fd5b6107cf83836112d6565b505050565b600b60009054906101000a900473ffffffffffffffffffffffffffffffffffffffff1681565b61080b6108056112ce565b8261138f565b61084a576040517f08c379a000000000000000000000000000000000000000000000000000000000815260040161084190612988565b60405180910390fd5b61085583838361146d565b505050565b61087583838360405180602001604052806000815250610eb8565b505050565b6000806002600084815260200190815260200160002060009054906101000a900473ffffffffffffffffffffffffffffffffffffffff169050600073ffffffffffffffffffffffffffffffffffffffff168173ffffffffffffffffffffffffffffffffffffffff161415610923576040517f08c379a000000000000000000000000000000000000000000000000000000000815260040161091a90612868565b60405180910390fd5b80915050919050565b60008073ffffffffffffffffffffffffffffffffffffffff168273ffffffffffffffffffffffffffffffffffffffff16141561099d576040517f08c379a000000000000000000000000000000000000000000000000000000000815260040161099490612848565b60405180910390fd5b600360008373ffffffffffffffffffffffffffffffffffffffff1673ffffffffffffffffffffffffffffffffffffffff168152602001908152602001600020549050919050565b6109ec6112ce565b73ffffffffffffffffffffffffffffffffffffffff16610a0a610c75565b73ffffffffffffffffffffffffffffffffffffffff1614610a60576040517f08c379a0000000000000000000000000000000000000000000000000000000008152600401610a5790612908565b60405180910390fd5b610a6a60006116c9565b565b610a7f33610a7a600a61178f565b61179d565b610a92610a8c600a61178f565b826117bb565b7f176b02bb2d12439ff7a20b59f402cca16c76f50508b13ef3166a600eb719354a610abd600a61178f565b604051610aca91906129a8565b60405180910390a1600060095460085434610ae59190612b14565b610aef9190612ae3565b90506000811115610b6457600d60009054906101000a900473ffffffffffffffffffffffffffffffffffffffff1673ffffffffffffffffffffffffffffffffffffffff166108fc829081150290604051600060405180830381858888f19350505050158015610b62573d6000803e3d6000fd5b505b600b60009054906101000a900473ffffffffffffffffffffffffffffffffffffffff1673ffffffffffffffffffffffffffffffffffffffff166108fc479081150290604051600060405180830381858888f19350505050158015610bcc573d6000803e3d6000fd5b50600d60009054906101000a900473ffffffffffffffffffffffffffffffffffffffff1673ffffffffffffffffffffffffffffffffffffffff1663701ebddd3033610c17600a61178f565b6040518463ffffffff1660e01b8152600401610c35939291906126a8565b600060405180830381600087803b158015610c4f57600080fd5b505af1158015610c63573d6000803e3d6000fd5b50505050610c71600a61182f565b5050565b6000600760009054906101000a900473ffffffffffffffffffffffffffffffffffffffff16905090565b606060018054610cae90612c58565b80601f0160208091040260200160405190810160405280929190818152602001828054610cda90612c58565b8015610d275780601f10610cfc57610100808354040283529160200191610d27565b820191906000526020600020905b815481529060010190602001808311610d0a57829003601f168201915b5050505050905090565b610d396112ce565b73ffffffffffffffffffffffffffffffffffffffff168273ffffffffffffffffffffffffffffffffffffffff161415610da7576040517f08c379a0000000000000000000000000000000000000000000000000000000008152600401610d9e906127e8565b60405180910390fd5b8060056000610db46112ce565b73ffffffffffffffffffffffffffffffffffffffff1673ffffffffffffffffffffffffffffffffffffffff16815260200190815260200160002060008473ffffffffffffffffffffffffffffffffffffffff1673ffffffffffffffffffffffffffffffffffffffff16815260200190815260200160002060006101000a81548160ff0219169083151502179055508173ffffffffffffffffffffffffffffffffffffffff16610e616112ce565b73ffffffffffffffffffffffffffffffffffffffff167f17307eab39ab6107e8899845ad3d59bd9653f200f220920489ca2b5937696c3183604051610ea6919061272b565b60405180910390a35050565b60085481565b610ec9610ec36112ce565b8361138f565b610f08576040517f08c379a0000000000000000000000000000000000000000000000000000000008152600401610eff90612988565b60405180910390fd5b610f1484848484611845565b50505050565b6060610f2582611262565b610f64576040517f08c379a0000000000000000000000000000000000000000000000000000000008152600401610f5b906128c8565b60405180910390fd5b6000600660008481526020019081526020016000208054610f8490612c58565b80601f0160208091040260200160405190810160405280929190818152602001828054610fb090612c58565b8015610ffd5780601f10610fd257610100808354040283529160200191610ffd565b820191906000526020600020905b815481529060010190602001808311610fe057829003601f168201915b50505050509050600061100e6118a1565b9050600081511415611024578192505050611067565b600082511115611059578082604051602001611041929190612669565b60405160208183030381529060405292505050611067565b611062846118b8565b925050505b919050565b6000600560008473ffffffffffffffffffffffffffffffffffffffff1673ffffffffffffffffffffffffffffffffffffffff16815260200190815260200160002060008373ffffffffffffffffffffffffffffffffffffffff1673ffffffffffffffffffffffffffffffffffffffff16815260200190815260200160002060009054906101000a900460ff16905092915050565b6111086112ce565b73ffffffffffffffffffffffffffffffffffffffff16611126610c75565b73ffffffffffffffffffffffffffffffffffffffff161461117c576040517f08c379a000000000000000000000000000000000000000000000000000000000815260040161117390612908565b60405180910390fd5b600073ffffffffffffffffffffffffffffffffffffffff168173ffffffffffffffffffffffffffffffffffffffff1614156111ec576040517f08c379a00000000000000000000000000000000000000000000000000000000081526004016111e390612788565b60405180910390fd5b6111f5816116c9565b50565b60007f01ffc9a7000000000000000000000000000000000000000000000000000000007bffffffffffffffffffffffffffffffffffffffffffffffffffffffff1916827bffffffffffffffffffffffffffffffffffffffffffffffffffffffff1916149050919050565b60008073ffffffffffffffffffffffffffffffffffffffff166002600084815260200190815260200160002060009054906101000a900473ffffffffffffffffffffffffffffffffffffffff1673ffffffffffffffffffffffffffffffffffffffff1614159050919050565b600033905090565b816004600083815260200190815260200160002060006101000a81548173ffffffffffffffffffffffffffffffffffffffff021916908373ffffffffffffffffffffffffffffffffffffffff160217905550808273ffffffffffffffffffffffffffffffffffffffff166113498361087a565b73ffffffffffffffffffffffffffffffffffffffff167f8c5be1e5ebec7d5bd14f71427d1e84f3dd0314c0f7b2291e5b200ac8c7c3b92560405160405180910390a45050565b600061139a82611262565b6113d9576040517f08c379a00000000000000000000000000000000000000000000000000000000081526004016113d090612808565b60405180910390fd5b60006113e48361087a565b90508073ffffffffffffffffffffffffffffffffffffffff168473ffffffffffffffffffffffffffffffffffffffff16148061145357508373ffffffffffffffffffffffffffffffffffffffff1661143b84610631565b73ffffffffffffffffffffffffffffffffffffffff16145b806114645750611463818561106c565b5b91505092915050565b8273ffffffffffffffffffffffffffffffffffffffff1661148d8261087a565b73ffffffffffffffffffffffffffffffffffffffff16146114e3576040517f08c379a00000000000000000000000000000000000000000000000000000000081526004016114da90612928565b60405180910390fd5b600073ffffffffffffffffffffffffffffffffffffffff168273ffffffffffffffffffffffffffffffffffffffff161415611553576040517f08c379a000000000000000000000000000000000000000000000000000000000815260040161154a906127c8565b60405180910390fd5b61155e83838361195f565b6115696000826112d6565b6001600360008573ffffffffffffffffffffffffffffffffffffffff1673ffffffffffffffffffffffffffffffffffffffff16815260200190815260200160002060008282546115b99190612b6e565b925050819055506001600360008473ffffffffffffffffffffffffffffffffffffffff1673ffffffffffffffffffffffffffffffffffffffff16815260200190815260200160002060008282546116109190612a8d565b92505081905550816002600083815260200190815260200160002060006101000a81548173ffffffffffffffffffffffffffffffffffffffff021916908373ffffffffffffffffffffffffffffffffffffffff160217905550808273ffffffffffffffffffffffffffffffffffffffff168473ffffffffffffffffffffffffffffffffffffffff167fddf252ad1be2c89b69c2b068fc378daa952ba7f163c4a11628f55a4df523b3ef60405160405180910390a4505050565b6000600760009054906101000a900473ffffffffffffffffffffffffffffffffffffffff16905081600760006101000a81548173ffffffffffffffffffffffffffffffffffffffff021916908373ffffffffffffffffffffffffffffffffffffffff1602179055508173ffffffffffffffffffffffffffffffffffffffff168173ffffffffffffffffffffffffffffffffffffffff167f8be0079c531659141344cd1fd0a4f28419497f9722a3daafe3b4186f6b6457e060405160405180910390a35050565b600081600001549050919050565b6117b7828260405180602001604052806000815250611964565b5050565b6117c482611262565b611803576040517f08c379a00000000000000000000000000000000000000000000000000000000081526004016117fa90612888565b60405180910390fd5b8060066000848152602001908152602001600020908051906020019061182a929190611ee4565b505050565b6001816000016000828254019250508190555050565b61185084848461146d565b61185c848484846119bf565b61189b576040517f08c379a000000000000000000000000000000000000000000000000000000000815260040161189290612768565b60405180910390fd5b50505050565b606060405180602001604052806000815250905090565b60606118c382611262565b611902576040517f08c379a00000000000000000000000000000000000000000000000000000000081526004016118f990612948565b60405180910390fd5b600061190c6118a1565b9050600081511161192c5760405180602001604052806000815250611957565b8061193684611b56565b604051602001611947929190612669565b6040516020818303038152906040525b915050919050565b505050565b61196e8383611d03565b61197b60008484846119bf565b6119ba576040517f08c379a00000000000000000000000000000000000000000000000000000000081526004016119b190612768565b60405180910390fd5b505050565b60006119e08473ffffffffffffffffffffffffffffffffffffffff16611ed1565b15611b49578373ffffffffffffffffffffffffffffffffffffffff1663150b7a02611a096112ce565b8786866040518563ffffffff1660e01b8152600401611a2b94939291906126df565b602060405180830381600087803b158015611a4557600080fd5b505af1925050508015611a7657506040513d601f19601f82011682018060405250810190611a739190612290565b60015b611af9573d8060008114611aa6576040519150601f19603f3d011682016040523d82523d6000602084013e611aab565b606091505b50600081511415611af1576040517f08c379a0000000000000000000000000000000000000000000000000000000008152600401611ae890612768565b60405180910390fd5b805181602001fd5b63150b7a0260e01b7bffffffffffffffffffffffffffffffffffffffffffffffffffffffff1916817bffffffffffffffffffffffffffffffffffffffffffffffffffffffff191614915050611b4e565b600190505b949350505050565b60606000821415611b9e576040518060400160405280600181526020017f30000000000000000000000000000000000000000000000000000000000000008152509050611cfe565b600082905060005b60008214611bd0578080611bb990612cbb565b915050600a82611bc99190612ae3565b9150611ba6565b60008167ffffffffffffffff811115611c12577f4e487b7100000000000000000000000000000000000000000000000000000000600052604160045260246000fd5b6040519080825280601f01601f191660200182016040528015611c445781602001600182028036833780820191505090505b5090505b60008514611cf757600182611c5d9190612b6e565b9150600a85611c6c9190612d04565b6030611c789190612a8d565b60f81b818381518110611cb4577f4e487b7100000000000000000000000000000000000000000000000000000000600052603260045260246000fd5b60200101907effffffffffffffffffffffffffffffffffffffffffffffffffffffffffffff1916908160001a905350600a85611cf09190612ae3565b9450611c48565b8093505050505b919050565b600073ffffffffffffffffffffffffffffffffffffffff168273ffffffffffffffffffffffffffffffffffffffff161415611d73576040517f08c379a0000000000000000000000000000000000000000000000000000000008152600401611d6a906128a8565b60405180910390fd5b611d7c81611262565b15611dbc576040517f08c379a0000000000000000000000000000000000000000000000000000000008152600401611db3906127a8565b60405180910390fd5b611dc86000838361195f565b6001600360008473ffffffffffffffffffffffffffffffffffffffff1673ffffffffffffffffffffffffffffffffffffffff1681526020019081526020016000206000828254611e189190612a8d565b92505081905550816002600083815260200190815260200160002060006101000a81548173ffffffffffffffffffffffffffffffffffffffff021916908373ffffffffffffffffffffffffffffffffffffffff160217905550808273ffffffffffffffffffffffffffffffffffffffff16600073ffffffffffffffffffffffffffffffffffffffff167fddf252ad1be2c89b69c2b068fc378daa952ba7f163c4a11628f55a4df523b3ef60405160405180910390a45050565b600080823b905060008111915050919050565b828054611ef090612c58565b90600052602060002090601f016020900481019282611f125760008555611f59565b82601f10611f2b57805160ff1916838001178555611f59565b82800160010185558215611f59579182015b82811115611f58578251825591602001919060010190611f3d565b5b509050611f669190611f6a565b5090565b5b80821115611f83576000816000905550600101611f6b565b5090565b6000611f9a611f95846129e8565b6129c3565b905082815260208101848484011115611fb257600080fd5b611fbd848285612c16565b509392505050565b6000611fd8611fd384612a19565b6129c3565b905082815260208101848484011115611ff057600080fd5b611ffb848285612c16565b509392505050565b600081359050612012816132f8565b92915050565b6000813590506120278161330f565b92915050565b60008135905061203c81613326565b92915050565b60008151905061205181613326565b92915050565b600082601f83011261206857600080fd5b8135612078848260208601611f87565b91505092915050565b600082601f83011261209257600080fd5b81356120a2848260208601611fc5565b91505092915050565b6000813590506120ba8161333d565b92915050565b6000602082840312156120d257600080fd5b60006120e084828501612003565b91505092915050565b600080604083850312156120fc57600080fd5b600061210a85828601612003565b925050602061211b85828601612003565b9150509250929050565b60008060006060848603121561213a57600080fd5b600061214886828701612003565b935050602061215986828701612003565b925050604061216a868287016120ab565b9150509250925092565b6000806000806080858703121561218a57600080fd5b600061219887828801612003565b94505060206121a987828801612003565b93505060406121ba878288016120ab565b925050606085013567ffffffffffffffff8111156121d757600080fd5b6121e387828801612057565b91505092959194509250565b6000806040838503121561220257600080fd5b600061221085828601612003565b925050602061222185828601612018565b9150509250929050565b6000806040838503121561223e57600080fd5b600061224c85828601612003565b925050602061225d858286016120ab565b9150509250929050565b60006020828403121561227957600080fd5b60006122878482850161202d565b91505092915050565b6000602082840312156122a257600080fd5b60006122b084828501612042565b91505092915050565b6000602082840312156122cb57600080fd5b600082013567ffffffffffffffff8111156122e557600080fd5b6122f184828501612081565b91505092915050565b60006020828403121561230c57600080fd5b600061231a848285016120ab565b91505092915050565b61232c81612ba2565b82525050565b61233b81612bb4565b82525050565b600061234c82612a4a565b6123568185612a60565b9350612366818560208601612c25565b61236f81612df1565b840191505092915050565b600061238582612a55565b61238f8185612a71565b935061239f818560208601612c25565b6123a881612df1565b840191505092915050565b60006123be82612a55565b6123c88185612a82565b93506123d8818560208601612c25565b80840191505092915050565b60006123f1603283612a71565b91506123fc82612e02565b604082019050919050565b6000612414602683612a71565b915061241f82612e51565b604082019050919050565b6000612437601c83612a71565b915061244282612ea0565b602082019050919050565b600061245a602483612a71565b915061246582612ec9565b604082019050919050565b600061247d601983612a71565b915061248882612f18565b602082019050919050565b60006124a0602c83612a71565b91506124ab82612f41565b604082019050919050565b60006124c3603883612a71565b91506124ce82612f90565b604082019050919050565b60006124e6602a83612a71565b91506124f182612fdf565b604082019050919050565b6000612509602983612a71565b91506125148261302e565b604082019050919050565b600061252c602e83612a71565b91506125378261307d565b604082019050919050565b600061254f602083612a71565b915061255a826130cc565b602082019050919050565b6000612572603183612a71565b915061257d826130f5565b604082019050919050565b6000612595602c83612a71565b91506125a082613144565b604082019050919050565b60006125b8602083612a71565b91506125c382613193565b602082019050919050565b60006125db602983612a71565b91506125e6826131bc565b604082019050919050565b60006125fe602f83612a71565b91506126098261320b565b604082019050919050565b6000612621602183612a71565b915061262c8261325a565b604082019050919050565b6000612644603183612a71565b915061264f826132a9565b604082019050919050565b61266381612c0c565b82525050565b600061267582856123b3565b915061268182846123b3565b91508190509392505050565b60006020820190506126a26000830184612323565b92915050565b60006060820190506126bd6000830186612323565b6126ca6020830185612323565b6126d7604083018461265a565b949350505050565b60006080820190506126f46000830187612323565b6127016020830186612323565b61270e604083018561265a565b81810360608301526127208184612341565b905095945050505050565b60006020820190506127406000830184612332565b92915050565b60006020820190508181036000830152612760818461237a565b905092915050565b60006020820190508181036000830152612781816123e4565b9050919050565b600060208201905081810360008301526127a181612407565b9050919050565b600060208201905081810360008301526127c18161242a565b9050919050565b600060208201905081810360008301526127e18161244d565b9050919050565b6000602082019050818103600083015261280181612470565b9050919050565b6000602082019050818103600083015261282181612493565b9050919050565b60006020820190508181036000830152612841816124b6565b9050919050565b60006020820190508181036000830152612861816124d9565b9050919050565b60006020820190508181036000830152612881816124fc565b9050919050565b600060208201905081810360008301526128a18161251f565b9050919050565b600060208201905081810360008301526128c181612542565b9050919050565b600060208201905081810360008301526128e181612565565b9050919050565b6000602082019050818103600083015261290181612588565b9050919050565b60006020820190508181036000830152612921816125ab565b9050919050565b60006020820190508181036000830152612941816125ce565b9050919050565b60006020820190508181036000830152612961816125f1565b9050919050565b6000602082019050818103600083015261298181612614565b9050919050565b600060208201905081810360008301526129a181612637565b9050919050565b60006020820190506129bd600083018461265a565b92915050565b60006129cd6129de565b90506129d98282612c8a565b919050565b6000604051905090565b600067ffffffffffffffff821115612a0357612a02612dc2565b5b612a0c82612df1565b9050602081019050919050565b600067ffffffffffffffff821115612a3457612a33612dc2565b5b612a3d82612df1565b9050602081019050919050565b600081519050919050565b600081519050919050565b600082825260208201905092915050565b600082825260208201905092915050565b600081905092915050565b6000612a9882612c0c565b9150612aa383612c0c565b9250827fffffffffffffffffffffffffffffffffffffffffffffffffffffffffffffffff03821115612ad857612ad7612d35565b5b828201905092915050565b6000612aee82612c0c565b9150612af983612c0c565b925082612b0957612b08612d64565b5b828204905092915050565b6000612b1f82612c0c565b9150612b2a83612c0c565b9250817fffffffffffffffffffffffffffffffffffffffffffffffffffffffffffffffff0483118215151615612b6357612b62612d35565b5b828202905092915050565b6000612b7982612c0c565b9150612b8483612c0c565b925082821015612b9757612b96612d35565b5b828203905092915050565b6000612bad82612bec565b9050919050565b60008115159050919050565b60007fffffffff0000000000000000000000000000000000000000000000000000000082169050919050565b600073ffffffffffffffffffffffffffffffffffffffff82169050919050565b6000819050919050565b82818337600083830152505050565b60005b83811015612c43578082015181840152602081019050612c28565b83811115612c52576000848401525b50505050565b60006002820490506001821680612c7057607f821691505b60208210811415612c8457612c83612d93565b5b50919050565b612c9382612df1565b810181811067ffffffffffffffff82111715612cb257612cb1612dc2565b5b80604052505050565b6000612cc682612c0c565b91507fffffffffffffffffffffffffffffffffffffffffffffffffffffffffffffffff821415612cf957612cf8612d35565b5b600182019050919050565b6000612d0f82612c0c565b9150612d1a83612c0c565b925082612d2a57612d29612d64565b5b828206905092915050565b7f4e487b7100000000000000000000000000000000000000000000000000000000600052601160045260246000fd5b7f4e487b7100000000000000000000000000000000000000000000000000000000600052601260045260246000fd5b7f4e487b7100000000000000000000000000000000000000000000000000000000600052602260045260246000fd5b7f4e487b7100000000000000000000000000000000000000000000000000000000600052604160045260246000fd5b6000601f19601f8301169050919050565b7f4552433732313a207472616e7366657220746f206e6f6e20455243373231526560008201527f63656976657220696d706c656d656e7465720000000000000000000000000000602082015250565b7f4f776e61626c653a206e6577206f776e657220697320746865207a65726f206160008201527f6464726573730000000000000000000000000000000000000000000000000000602082015250565b7f4552433732313a20746f6b656e20616c7265616479206d696e74656400000000600082015250565b7f4552433732313a207472616e7366657220746f20746865207a65726f2061646460008201527f7265737300000000000000000000000000000000000000000000000000000000602082015250565b7f4552433732313a20617070726f766520746f2063616c6c657200000000000000600082015250565b7f4552433732313a206f70657261746f7220717565727920666f72206e6f6e657860008201527f697374656e7420746f6b656e0000000000000000000000000000000000000000602082015250565b7f4552433732313a20617070726f76652063616c6c6572206973206e6f74206f7760008201527f6e6572206e6f7220617070726f76656420666f7220616c6c0000000000000000602082015250565b7f4552433732313a2062616c616e636520717565727920666f7220746865207a6560008201527f726f206164647265737300000000000000000000000000000000000000000000602082015250565b7f4552433732313a206f776e657220717565727920666f72206e6f6e657869737460008201527f656e7420746f6b656e0000000000000000000000000000000000000000000000602082015250565b7f45524337323155524953746f726167653a2055524920736574206f66206e6f6e60008201527f6578697374656e7420746f6b656e000000000000000000000000000000000000602082015250565b7f4552433732313a206d696e7420746f20746865207a65726f2061646472657373600082015250565b7f45524337323155524953746f726167653a2055524920717565727920666f722060008201527f6e6f6e6578697374656e7420746f6b656e000000000000000000000000000000602082015250565b7f4552433732313a20617070726f76656420717565727920666f72206e6f6e657860008201527f697374656e7420746f6b656e0000000000000000000000000000000000000000602082015250565b7f4f776e61626c653a2063616c6c6572206973206e6f7420746865206f776e6572600082015250565b7f4552433732313a207472616e73666572206f6620746f6b656e2074686174206960008201527f73206e6f74206f776e0000000000000000000000000000000000000000000000602082015250565b7f4552433732314d657461646174613a2055524920717565727920666f72206e6f60008201527f6e6578697374656e7420746f6b656e0000000000000000000000000000000000602082015250565b7f4552433732313a20617070726f76616c20746f2063757272656e74206f776e6560008201527f7200000000000000000000000000000000000000000000000000000000000000602082015250565b7f4552433732313a207472616e736665722063616c6c6572206973206e6f74206f60008201527f776e6572206e6f7220617070726f766564000000000000000000000000000000602082015250565b61330181612ba2565b811461330c57600080fd5b50565b61331881612bb4565b811461332357600080fd5b50565b61332f81612bc0565b811461333a57600080fd5b50565b61334681612c0c565b811461335157600080fd5b5056fea2646970667358221220b7e0d7a427ed676841d15aeb807a265221e8adae6872c051fef102d03ffdcf3a64736f6c63430008040033a2646970667358221220643ceb04c340aaf588293bbd72416f3707b0116f7dccdeee160688c0074f9fda64736f6c63430008040033",
  "linkReferences": {},
  "deployedLinkReferences": {}
}