{
  "_format": "hh-sol-artifact-1",
  "contractName": "MetapassFactory",
  "sourceName": "contracts/MetapassFactory.sol",
  "abi": [
    {
      "inputs": [
        {
          "internalType": "address",
          "name": "_storageProxy",
          "type": "address"
        }
      ],
      "stateMutability": "nonpayable",
      "type": "constructor"
    },
    {
      "anonymous": false,
      "inputs": [
        {
          "indexed": false,
          "internalType": "address",
          "name": "child",
          "type": "address"
        }
      ],
      "name": "childEvent",
      "type": "event"
    },
    {
      "inputs": [
        {
          "internalType": "address",
          "name": "",
          "type": "address"
        },
        {
          "internalType": "uint256",
          "name": "",
          "type": "uint256"
        }
      ],
      "name": "addressToEventMap",
      "outputs": [
        {
          "internalType": "contract Metapass",
          "name": "",
          "type": "address"
        }
      ],
      "stateMutability": "view",
      "type": "function"
    },
    {
      "inputs": [
        {
          "internalType": "string",
          "name": "title",
          "type": "string"
        },
        {
          "internalType": "uint256",
          "name": "fee",
          "type": "uint256"
        },
        {
          "internalType": "uint256",
          "name": "seats",
          "type": "uint256"
        },
        {
          "internalType": "string",
          "name": "image",
          "type": "string"
        },
        {
          "internalType": "address",
          "name": "eventHostAddress",
          "type": "address"
        },
        {
          "internalType": "string",
          "name": "description",
          "type": "string"
        },
        {
          "internalType": "string",
          "name": "link",
          "type": "string"
        },
        {
          "internalType": "string",
          "name": "date",
          "type": "string"
        },
        {
          "internalType": "string",
          "name": "category",
          "type": "string"
        },
        {
          "internalType": "string",
          "name": "venue",
          "type": "string"
        },
        {
          "internalType": "address",
          "name": "customToken",
          "type": "address"
        }
      ],
      "name": "createEvent",
      "outputs": [],
      "stateMutability": "nonpayable",
      "type": "function"
    },
    {
      "inputs": [],
      "name": "getEventChildren",
      "outputs": [
        {
          "internalType": "contract Metapass[]",
          "name": "",
          "type": "address[]"
        }
      ],
      "stateMutability": "view",
      "type": "function"
    },
    {
      "inputs": [
        {
          "internalType": "address",
          "name": "forwarder",
          "type": "address"
        }
      ],
      "name": "updateForwarderAuthority",
      "outputs": [],
      "stateMutability": "nonpayable",
      "type": "function"
    },
    {
      "inputs": [
        {
          "internalType": "address",
          "name": "_event",
          "type": "address"
        },
        {
          "internalType": "string",
          "name": "_link",
          "type": "string"
        }
      ],
      "name": "updateLink",
      "outputs": [],
      "stateMutability": "nonpayable",
      "type": "function"
    },
    {
      "inputs": [
        {
          "internalType": "uint256",
          "name": "num",
          "type": "uint256"
        },
        {
          "internalType": "uint256",
          "name": "den",
          "type": "uint256"
        }
      ],
      "name": "updateRewards",
      "outputs": [],
      "stateMutability": "nonpayable",
      "type": "function"
    }
  ],
  "bytecode": "0x608060405273f0511f123164602042ab2bcf02111fa5d3fe97cd600260006101000a81548173ffffffffffffffffffffffffffffffffffffffff021916908373ffffffffffffffffffffffffffffffffffffffff1602179055506000600355606460045534801561006f57600080fd5b50604051620061a4380380620061a48339818101604052810190610093919061012f565b806000806101000a81548173ffffffffffffffffffffffffffffffffffffffff021916908373ffffffffffffffffffffffffffffffffffffffff16021790555033600160006101000a81548173ffffffffffffffffffffffffffffffffffffffff021916908373ffffffffffffffffffffffffffffffffffffffff160217905550506101a1565b6000815190506101298161018a565b92915050565b60006020828403121561014157600080fd5b600061014f8482850161011a565b91505092915050565b60006101638261016a565b9050919050565b600073ffffffffffffffffffffffffffffffffffffffff82169050919050565b61019381610158565b811461019e57600080fd5b50565b615ff380620001b16000396000f3fe60806040523480156200001157600080fd5b50600436106200006a5760003560e01c806321ea6546146200006f57806350db400f146200008f57806354d8832f14620000af57806395239b1d14620000e557806397e508181462000107578063fa29ab931462000127575b600080fd5b6200008d60048036038101906200008791906200082a565b62000147565b005b620000ad6004803603810190620000a7919062000882565b620001e6565b005b620000cd6004803603810190620000c79190620008e0565b62000376565b604051620000dc919062000cf2565b60405180910390f35b620000ef620003c5565b604051620000fe919062000cce565b60405180910390f35b6200012560048036038101906200011f919062000ad7565b62000492565b005b6200014560048036038101906200013f919062000921565b620004ff565b005b600160009054906101000a900473ffffffffffffffffffffffffffffffffffffffff1673ffffffffffffffffffffffffffffffffffffffff163373ffffffffffffffffffffffffffffffffffffffff1614620001a257600080fd5b80600260006101000a81548173ffffffffffffffffffffffffffffffffffffffff021916908373ffffffffffffffffffffffffffffffffffffffff16021790555050565b60008390503373ffffffffffffffffffffffffffffffffffffffff168173ffffffffffffffffffffffffffffffffffffffff16638da5cb5b6040518163ffffffff1660e01b815260040160206040518083038186803b1580156200024957600080fd5b505afa1580156200025e573d6000803e3d6000fd5b505050506040513d601f19601f8201168201806040525081019062000284919062000856565b73ffffffffffffffffffffffffffffffffffffffff1614620002dd576040517f08c379a0000000000000000000000000000000000000000000000000000000008152600401620002d49062000e01565b60405180910390fd5b60008054906101000a900473ffffffffffffffffffffffffffffffffffffffff1673ffffffffffffffffffffffffffffffffffffffff1663c1846b088585856040518463ffffffff1660e01b81526004016200033c9392919062000c98565b600060405180830381600087803b1580156200035757600080fd5b505af11580156200036c573d6000803e3d6000fd5b5050505050505050565b600560205281600052604060002081815481106200039357600080fd5b906000526020600020016000915091509054906101000a900473ffffffffffffffffffffffffffffffffffffffff1681565b6060600560003373ffffffffffffffffffffffffffffffffffffffff1673ffffffffffffffffffffffffffffffffffffffff1681526020019081526020016000208054806020026020016040519081016040528092919081815260200182805480156200048857602002820191906000526020600020905b8160009054906101000a900473ffffffffffffffffffffffffffffffffffffffff1673ffffffffffffffffffffffffffffffffffffffff16815260200190600101908083116200043d575b5050505050905090565b600160009054906101000a900473ffffffffffffffffffffffffffffffffffffffff1673ffffffffffffffffffffffffffffffffffffffff163373ffffffffffffffffffffffffffffffffffffffff1614620004ed57600080fd5b81600381905550806004819055505050565b6000600354600454898d60008054906101000a900473ffffffffffffffffffffffffffffffffffffffff16600260009054906101000a900473ffffffffffffffffffffffffffffffffffffffff16876040516200055c9062000718565b6200056e979695949392919062000e23565b604051809103906000f0801580156200058b573d6000803e3d6000fd5b5090507fac019feb294291d1eeb94a1764f5788029ff617ba51acc0f47416b4725da610c81604051620005bf919062000c7b565b60405180910390a1600560003373ffffffffffffffffffffffffffffffffffffffff1673ffffffffffffffffffffffffffffffffffffffff168152602001908152602001600020819080600181540180825580915050600190039060005260206000200160009091909190916101000a81548173ffffffffffffffffffffffffffffffffffffffff021916908373ffffffffffffffffffffffffffffffffffffffff16021790555060008054906101000a900473ffffffffffffffffffffffffffffffffffffffff1673ffffffffffffffffffffffffffffffffffffffff16630d93805f8d8d8d8d8d8d8d8d8a8e8e6040518c63ffffffff1660e01b8152600401620006d69b9a9998979695949392919062000d0f565b600060405180830381600087803b158015620006f157600080fd5b505af115801562000706573d6000803e3d6000fd5b50505050505050505050505050505050565b614eeb80620010d383390190565b60006200073d620007378462000ec9565b62000ea0565b9050828152602081018484840111156200075657600080fd5b6200076384828562000fba565b509392505050565b6000813590506200077c816200109e565b92915050565b60008151905062000793816200109e565b92915050565b60008083601f840112620007ac57600080fd5b8235905067ffffffffffffffff811115620007c657600080fd5b602083019150836001820283011115620007df57600080fd5b9250929050565b600082601f830112620007f857600080fd5b81356200080a84826020860162000726565b91505092915050565b6000813590506200082481620010b8565b92915050565b6000602082840312156200083d57600080fd5b60006200084d848285016200076b565b91505092915050565b6000602082840312156200086957600080fd5b6000620008798482850162000782565b91505092915050565b6000806000604084860312156200089857600080fd5b6000620008a8868287016200076b565b935050602084013567ffffffffffffffff811115620008c657600080fd5b620008d48682870162000799565b92509250509250925092565b60008060408385031215620008f457600080fd5b600062000904858286016200076b565b9250506020620009178582860162000813565b9150509250929050565b60008060008060008060008060008060006101608c8e0312156200094457600080fd5b60008c013567ffffffffffffffff8111156200095f57600080fd5b6200096d8e828f01620007e6565b9b50506020620009808e828f0162000813565b9a50506040620009938e828f0162000813565b99505060608c013567ffffffffffffffff811115620009b157600080fd5b620009bf8e828f01620007e6565b9850506080620009d28e828f016200076b565b97505060a08c013567ffffffffffffffff811115620009f057600080fd5b620009fe8e828f01620007e6565b96505060c08c013567ffffffffffffffff81111562000a1c57600080fd5b62000a2a8e828f01620007e6565b95505060e08c013567ffffffffffffffff81111562000a4857600080fd5b62000a568e828f01620007e6565b9450506101008c013567ffffffffffffffff81111562000a7557600080fd5b62000a838e828f01620007e6565b9350506101208c013567ffffffffffffffff81111562000aa257600080fd5b62000ab08e828f01620007e6565b92505061014062000ac48e828f016200076b565b9150509295989b509295989b9093969950565b6000806040838503121562000aeb57600080fd5b600062000afb8582860162000813565b925050602062000b0e8582860162000813565b9150509250929050565b600062000b26838362000bad565b60208301905092915050565b62000b3d8162000f54565b82525050565b600062000b508262000f0f565b62000b5c818562000f32565b935062000b698362000eff565b8060005b8381101562000ba057815162000b84888262000b18565b975062000b918362000f25565b92505060018101905062000b6d565b5085935050505092915050565b62000bb88162000f92565b82525050565b62000bc98162000f92565b82525050565b600062000bdd838562000f43565b935062000bec83858462000fba565b62000bf78362001064565b840190509392505050565b600062000c0f8262000f1a565b62000c1b818562000f43565b935062000c2d81856020860162000fc9565b62000c388162001064565b840191505092915050565b600062000c5260128362000f43565b915062000c5f8262001075565b602082019050919050565b62000c758162000f88565b82525050565b600060208201905062000c92600083018462000b32565b92915050565b600060408201905062000caf600083018662000b32565b818103602083015262000cc481848662000bcf565b9050949350505050565b6000602082019050818103600083015262000cea818462000b43565b905092915050565b600060208201905062000d09600083018462000bbe565b92915050565b600061016082019050818103600083015262000d2c818e62000c02565b905062000d3d602083018d62000c6a565b62000d4c604083018c62000c6a565b818103606083015262000d60818b62000c02565b905062000d71608083018a62000b32565b81810360a083015262000d85818962000c02565b905081810360c083015262000d9b818862000c02565b905081810360e083015262000db1818762000c02565b905062000dc361010083018662000b32565b81810361012083015262000dd8818562000c02565b905081810361014083015262000def818462000c02565b90509c9b505050505050505050505050565b6000602082019050818103600083015262000e1c8162000c43565b9050919050565b600060e08201905062000e3a600083018a62000c6a565b62000e49602083018962000c6a565b62000e58604083018862000b32565b62000e67606083018762000c6a565b62000e76608083018662000b32565b62000e8560a083018562000b32565b62000e9460c083018462000b32565b98975050505050505050565b600062000eac62000ebf565b905062000eba828262000fff565b919050565b6000604051905090565b600067ffffffffffffffff82111562000ee75762000ee662001035565b5b62000ef28262001064565b9050602081019050919050565b6000819050602082019050919050565b600081519050919050565b600081519050919050565b6000602082019050919050565b600082825260208201905092915050565b600082825260208201905092915050565b600062000f618262000f68565b9050919050565b600073ffffffffffffffffffffffffffffffffffffffff82169050919050565b6000819050919050565b600062000f9f8262000fa6565b9050919050565b600062000fb38262000f68565b9050919050565b82818337600083830152505050565b60005b8381101562000fe957808201518184015260208101905062000fcc565b8381111562000ff9576000848401525b50505050565b6200100a8262001064565b810181811067ffffffffffffffff821117156200102c576200102b62001035565b5b80604052505050565b7f4e487b7100000000000000000000000000000000000000000000000000000000600052604160045260246000fd5b6000601f19601f8301169050919050565b7f4e6f7420746865204576656e7420486f73740000000000000000000000000000600082015250565b620010a98162000f54565b8114620010b557600080fd5b50565b620010c38162000f88565b8114620010cf57600080fd5b5056fe608060405260006009556064600a556000600f60156101000a81548160ff0219169083151502179055503480156200003657600080fd5b5060405162004eeb38038062004eeb83398181016040528101906200005c919062000696565b816040518060400160405280600f81526020017f4d657461706173735469636b65747300000000000000000000000000000000008152506040518060400160405280600881526020017f4d455441504153530000000000000000000000000000000000000000000000008152508160009080519060200190620000e1929190620005b8565b508060019080519060200190620000fa929190620005b8565b50505080600760006101000a81548173ffffffffffffffffffffffffffffffffffffffff021916908373ffffffffffffffffffffffffffffffffffffffff160217905550506200015f62000153620002ea60201b60201c565b6200030660201b60201c565b8660098190555085600a8190555083600d8190555084600c60006101000a81548173ffffffffffffffffffffffffffffffffffffffff021916908373ffffffffffffffffffffffffffffffffffffffff16021790555082600e60006101000a81548173ffffffffffffffffffffffffffffffffffffffff021916908373ffffffffffffffffffffffffffffffffffffffff16021790555062000229600c60009054906101000a900473ffffffffffffffffffffffffffffffffffffffff16620003cc60201b60201c565b600073ffffffffffffffffffffffffffffffffffffffff168173ffffffffffffffffffffffffffffffffffffffff16141562000280576000600f60146101000a81548160ff021916908315150217905550620002dd565b6001600f60146101000a81548160ff02191690831515021790555080600f60006101000a81548173ffffffffffffffffffffffffffffffffffffffff021916908373ffffffffffffffffffffffffffffffffffffffff1602179055505b5050505050505062000935565b600062000301620004e260201b62001c701760201c565b905090565b6000600860009054906101000a900473ffffffffffffffffffffffffffffffffffffffff16905081600860006101000a81548173ffffffffffffffffffffffffffffffffffffffff021916908373ffffffffffffffffffffffffffffffffffffffff1602179055508173ffffffffffffffffffffffffffffffffffffffff168173ffffffffffffffffffffffffffffffffffffffff167f8be0079c531659141344cd1fd0a4f28419497f9722a3daafe3b4186f6b6457e060405160405180910390a35050565b620003dc620002ea60201b60201c565b73ffffffffffffffffffffffffffffffffffffffff16620004026200052c60201b60201c565b73ffffffffffffffffffffffffffffffffffffffff16146200045b576040517f08c379a00000000000000000000000000000000000000000000000000000000081526004016200045290620007b3565b60405180910390fd5b600073ffffffffffffffffffffffffffffffffffffffff168173ffffffffffffffffffffffffffffffffffffffff161415620004ce576040517f08c379a0000000000000000000000000000000000000000000000000000000008152600401620004c59062000791565b60405180910390fd5b620004df816200030660201b60201c565b50565b6000620004f5336200055660201b60201c565b156200050b57601436033560601c905062000528565b62000520620005b060201b62001ca21760201c565b905062000529565b5b90565b6000600860009054906101000a900473ffffffffffffffffffffffffffffffffffffffff16905090565b6000600760009054906101000a900473ffffffffffffffffffffffffffffffffffffffff1673ffffffffffffffffffffffffffffffffffffffff168273ffffffffffffffffffffffffffffffffffffffff16149050919050565b600033905090565b828054620005c69062000824565b90600052602060002090601f016020900481019282620005ea576000855562000636565b82601f106200060557805160ff191683800117855562000636565b8280016001018555821562000636579182015b828111156200063557825182559160200191906001019062000618565b5b50905062000645919062000649565b5090565b5b80821115620006645760008160009055506001016200064a565b5090565b600081519050620006798162000901565b92915050565b60008151905062000690816200091b565b92915050565b600080600080600080600060e0888a031215620006b257600080fd5b6000620006c28a828b016200067f565b9750506020620006d58a828b016200067f565b9650506040620006e88a828b0162000668565b9550506060620006fb8a828b016200067f565b94505060806200070e8a828b0162000668565b93505060a0620007218a828b0162000668565b92505060c0620007348a828b0162000668565b91505092959891949750929550565b600062000752602683620007d5565b91506200075f8262000889565b604082019050919050565b600062000779602083620007d5565b91506200078682620008d8565b602082019050919050565b60006020820190508181036000830152620007ac8162000743565b9050919050565b60006020820190508181036000830152620007ce816200076a565b9050919050565b600082825260208201905092915050565b6000620007f382620007fa565b9050919050565b600073ffffffffffffffffffffffffffffffffffffffff82169050919050565b6000819050919050565b600060028204905060018216806200083d57607f821691505b602082108114156200085457620008536200085a565b5b50919050565b7f4e487b7100000000000000000000000000000000000000000000000000000000600052602260045260246000fd5b7f4f776e61626c653a206e6577206f776e657220697320746865207a65726f206160008201527f6464726573730000000000000000000000000000000000000000000000000000602082015250565b7f4f776e61626c653a2063616c6c6572206973206e6f7420746865206f776e6572600082015250565b6200090c81620007e6565b81146200091857600080fd5b50565b62000926816200081a565b81146200093257600080fd5b50565b6145a680620009456000396000f3fe6080604052600436106101815760003560e01c806370a08231116100d1578063a22cb4651161008a578063c87b56dd11610064578063c87b56dd1461054d578063e6f1a1891461058a578063e985e9c5146105b5578063f2fde38b146105f257610181565b8063a22cb465146104d0578063abf0f573146104f9578063b88d4fde1461052457610181565b806370a08231146103df578063715018a61461041c57806387ab751714610433578063899e31061461044f5780638da5cb5b1461047a57806395d89b41146104a557610181565b806323b872dd1161013e5780634e964dc3116101185780634e964dc314610313578063560749c31461033c578063572b6c05146103655780636352211e146103a257610181565b806323b872dd146102aa5780633e5ac28f146102d357806342842e0e146102ea57610181565b806301ffc9a71461018657806306fdde03146101c3578063081812fc146101ee578063089eb32d1461022b578063095ea7b31461025657806322e8f8451461027f575b600080fd5b34801561019257600080fd5b506101ad60048036038101906101a8919061300f565b61061b565b6040516101ba91906136d9565b60405180910390f35b3480156101cf57600080fd5b506101d86106fd565b6040516101e5919061370f565b60405180910390f35b3480156101fa57600080fd5b5061021560048036038101906102109190613134565b61078f565b60405161022291906135a3565b60405180910390f35b34801561023757600080fd5b50610240610814565b60405161024d9190613a11565b60405180910390f35b34801561026257600080fd5b5061027d60048036038101906102789190612f35565b61081a565b005b34801561028b57600080fd5b50610294610932565b6040516102a191906135a3565b60405180910390f35b3480156102b657600080fd5b506102d160048036038101906102cc9190612e2f565b610958565b005b3480156102df57600080fd5b506102e86109b8565b005b3480156102f657600080fd5b50610311600480360381019061030c9190612e2f565b610a60565b005b34801561031f57600080fd5b5061033a60048036038101906103359190613061565b610a80565b005b34801561034857600080fd5b50610363600480360381019061035e9190612f71565b610ed2565b005b34801561037157600080fd5b5061038c60048036038101906103879190612dca565b6111af565b60405161039991906136d9565b60405180910390f35b3480156103ae57600080fd5b506103c960048036038101906103c49190613134565b611209565b6040516103d691906135a3565b60405180910390f35b3480156103eb57600080fd5b5061040660048036038101906104019190612dca565b6112bb565b6040516104139190613a11565b60405180910390f35b34801561042857600080fd5b50610431611373565b005b61044d600480360381019061044891906130f3565b6113fb565b005b34801561045b57600080fd5b506104646116b4565b60405161047191906136f4565b60405180910390f35b34801561048657600080fd5b5061048f6116da565b60405161049c91906135a3565b60405180910390f35b3480156104b157600080fd5b506104ba611704565b6040516104c7919061370f565b60405180910390f35b3480156104dc57600080fd5b506104f760048036038101906104f29190612ef9565b611796565b005b34801561050557600080fd5b5061050e611917565b60405161051b9190613a11565b60405180910390f35b34801561053057600080fd5b5061054b60048036038101906105469190612e7e565b61191d565b005b34801561055957600080fd5b50610574600480360381019061056f9190613134565b61197f565b604051610581919061370f565b60405180910390f35b34801561059657600080fd5b5061059f611ad1565b6040516105ac91906136d9565b60405180910390f35b3480156105c157600080fd5b506105dc60048036038101906105d79190612df3565b611ae4565b6040516105e991906136d9565b60405180910390f35b3480156105fe57600080fd5b5061061960048036038101906106149190612dca565b611b78565b005b60007f80ac58cd000000000000000000000000000000000000000000000000000000007bffffffffffffffffffffffffffffffffffffffffffffffffffffffff1916827bffffffffffffffffffffffffffffffffffffffffffffffffffffffff191614806106e657507f5b5e139f000000000000000000000000000000000000000000000000000000007bffffffffffffffffffffffffffffffffffffffffffffffffffffffff1916827bffffffffffffffffffffffffffffffffffffffffffffffffffffffff1916145b806106f657506106f582611caa565b5b9050919050565b60606000805461070c90613d53565b80601f016020809104026020016040519081016040528092919081815260200182805461073890613d53565b80156107855780601f1061075a57610100808354040283529160200191610785565b820191906000526020600020905b81548152906001019060200180831161076857829003601f168201915b5050505050905090565b600061079a82611d14565b6107d9576040517f08c379a00000000000000000000000000000000000000000000000000000000081526004016107d0906138f1565b60405180910390fd5b6004600083815260200190815260200160002060009054906101000a900473ffffffffffffffffffffffffffffffffffffffff169050919050565b600a5481565b600061082582611209565b90508073ffffffffffffffffffffffffffffffffffffffff168373ffffffffffffffffffffffffffffffffffffffff161415610896576040517f08c379a000000000000000000000000000000000000000000000000000000000815260040161088d90613991565b60405180910390fd5b8073ffffffffffffffffffffffffffffffffffffffff166108b5611d80565b73ffffffffffffffffffffffffffffffffffffffff1614806108e457506108e3816108de611d80565b611ae4565b5b610923576040517f08c379a000000000000000000000000000000000000000000000000000000000815260040161091a90613831565b60405180910390fd5b61092d8383611d8f565b505050565b600c60009054906101000a900473ffffffffffffffffffffffffffffffffffffffff1681565b610969610963611d80565b82611e48565b6109a8576040517f08c379a000000000000000000000000000000000000000000000000000000000815260040161099f906139d1565b60405180910390fd5b6109b3838383611f26565b505050565b6109c0611d80565b73ffffffffffffffffffffffffffffffffffffffff166109de6116da565b73ffffffffffffffffffffffffffffffffffffffff1614610a34576040517f08c379a0000000000000000000000000000000000000000000000000000000008152600401610a2b90613911565b60405180910390fd5b600f60159054906101000a900460ff1615600f60156101000a81548160ff021916908315150217905550565b610a7b8383836040518060200160405280600081525061191d565b505050565b600f60149054906101000a900460ff16610acf576040517f08c379a0000000000000000000000000000000000000000000000000000000008152600401610ac6906139f1565b60405180910390fd5b6000610ae1610adc611d80565b6112bb565b14610b21576040517f08c379a0000000000000000000000000000000000000000000000000000000008152600401610b1890613951565b60405180910390fd5b600f60009054906101000a900473ffffffffffffffffffffffffffffffffffffffff1673ffffffffffffffffffffffffffffffffffffffff1663d505accf610b67611d80565b30600d54888888886040518863ffffffff1660e01b8152600401610b919796959493929190613641565b600060405180830381600087803b158015610bab57600080fd5b505af1158015610bbf573d6000803e3d6000fd5b50505050610bdd610bce611d80565b610bd8600b612182565b612190565b610c34610bea600b612182565b87878080601f016020809104026020016040519081016040528093929190818152602001838380828437600081840152601f19601f820116905080830192505050505050506121ae565b6000600a54600954600d54610c499190613bd4565b610c539190613ba3565b90506000811115610d3f576000600f60009054906101000a900473ffffffffffffffffffffffffffffffffffffffff1673ffffffffffffffffffffffffffffffffffffffff1663a9059cbb600e60009054906101000a900473ffffffffffffffffffffffffffffffffffffffff16846040518363ffffffff1660e01b8152600401610cdf9291906136b0565b602060405180830381600087803b158015610cf957600080fd5b505af1158015610d0d573d6000803e3d6000fd5b505050506040513d601f19601f82011682018060405250810190610d319190612fe6565b905080610d3d57600080fd5b505b600f60009054906101000a900473ffffffffffffffffffffffffffffffffffffffff1673ffffffffffffffffffffffffffffffffffffffff1663a9059cbb600c60009054906101000a900473ffffffffffffffffffffffffffffffffffffffff1683600d54610dae9190613c2e565b6040518363ffffffff1660e01b8152600401610dcb9291906136b0565b602060405180830381600087803b158015610de557600080fd5b505af1158015610df9573d6000803e3d6000fd5b505050506040513d601f19601f82011682018060405250810190610e1d9190612fe6565b50600e60009054906101000a900473ffffffffffffffffffffffffffffffffffffffff1673ffffffffffffffffffffffffffffffffffffffff1663701ebddd30610e65611d80565b610e6f600b612182565b6040518463ffffffff1660e01b8152600401610e8d939291906135be565b600060405180830381600087803b158015610ea757600080fd5b505af1158015610ebb573d6000803e3d6000fd5b50505050610ec9600b612222565b50505050505050565b610eda611d80565b73ffffffffffffffffffffffffffffffffffffffff16610ef86116da565b73ffffffffffffffffffffffffffffffffffffffff1614610f4e576040517f08c379a0000000000000000000000000000000000000000000000000000000008152600401610f4590613911565b60405180910390fd5b818190508484905014610f96576040517f08c379a0000000000000000000000000000000000000000000000000000000008152600401610f8d90613751565b60405180910390fd5b60005b848490508110156111a857611004858583818110610fe0577f4e487b7100000000000000000000000000000000000000000000000000000000600052603260045260246000fd5b9050602002016020810190610ff59190612dca565b610fff600b612182565b612190565b6110a4611011600b612182565b84848481811061104a577f4e487b7100000000000000000000000000000000000000000000000000000000600052603260045260246000fd5b905060200281019061105c9190613a2c565b8080601f016020809104026020016040519081016040528093929190818152602001838380828437600081840152601f19601f820116905080830192505050505050506121ae565b600e60009054906101000a900473ffffffffffffffffffffffffffffffffffffffff1673ffffffffffffffffffffffffffffffffffffffff1663701ebddd3087878581811061111c577f4e487b7100000000000000000000000000000000000000000000000000000000600052603260045260246000fd5b90506020020160208101906111319190612dca565b61113b600b612182565b6040518463ffffffff1660e01b8152600401611159939291906135be565b600060405180830381600087803b15801561117357600080fd5b505af1158015611187573d6000803e3d6000fd5b50505050611195600b612222565b80806111a090613db6565b915050610f99565b5050505050565b6000600760009054906101000a900473ffffffffffffffffffffffffffffffffffffffff1673ffffffffffffffffffffffffffffffffffffffff168273ffffffffffffffffffffffffffffffffffffffff16149050919050565b6000806002600084815260200190815260200160002060009054906101000a900473ffffffffffffffffffffffffffffffffffffffff169050600073ffffffffffffffffffffffffffffffffffffffff168173ffffffffffffffffffffffffffffffffffffffff1614156112b2576040517f08c379a00000000000000000000000000000000000000000000000000000000081526004016112a990613871565b60405180910390fd5b80915050919050565b60008073ffffffffffffffffffffffffffffffffffffffff168273ffffffffffffffffffffffffffffffffffffffff16141561132c576040517f08c379a000000000000000000000000000000000000000000000000000000000815260040161132390613851565b60405180910390fd5b600360008373ffffffffffffffffffffffffffffffffffffffff1673ffffffffffffffffffffffffffffffffffffffff168152602001908152602001600020549050919050565b61137b611d80565b73ffffffffffffffffffffffffffffffffffffffff166113996116da565b73ffffffffffffffffffffffffffffffffffffffff16146113ef576040517f08c379a00000000000000000000000000000000000000000000000000000000081526004016113e690613911565b60405180910390fd5b6113f96000612238565b565b600f60149054906101000a900460ff161561144b576040517f08c379a000000000000000000000000000000000000000000000000000000000815260040161144290613731565b60405180910390fd5b600061145d611458611d80565b6112bb565b1461149d576040517f08c379a000000000000000000000000000000000000000000000000000000000815260040161149490613951565b60405180910390fd5b6114b76114a8611d80565b6114b2600b612182565b612190565b6114ca6114c4600b612182565b826121ae565b7f176b02bb2d12439ff7a20b59f402cca16c76f50508b13ef3166a600eb719354a6114f5600b612182565b6040516115029190613a11565b60405180910390a16000600a546009543461151d9190613bd4565b6115279190613ba3565b9050600081111561159c57600e60009054906101000a900473ffffffffffffffffffffffffffffffffffffffff1673ffffffffffffffffffffffffffffffffffffffff166108fc829081150290604051600060405180830381858888f1935050505015801561159a573d6000803e3d6000fd5b505b600c60009054906101000a900473ffffffffffffffffffffffffffffffffffffffff1673ffffffffffffffffffffffffffffffffffffffff166108fc479081150290604051600060405180830381858888f19350505050158015611604573d6000803e3d6000fd5b50600e60009054906101000a900473ffffffffffffffffffffffffffffffffffffffff1673ffffffffffffffffffffffffffffffffffffffff1663701ebddd3061164c611d80565b611656600b612182565b6040518463ffffffff1660e01b8152600401611674939291906135be565b600060405180830381600087803b15801561168e57600080fd5b505af11580156116a2573d6000803e3d6000fd5b505050506116b0600b612222565b5050565b600f60009054906101000a900473ffffffffffffffffffffffffffffffffffffffff1681565b6000600860009054906101000a900473ffffffffffffffffffffffffffffffffffffffff16905090565b60606001805461171390613d53565b80601f016020809104026020016040519081016040528092919081815260200182805461173f90613d53565b801561178c5780601f106117615761010080835404028352916020019161178c565b820191906000526020600020905b81548152906001019060200180831161176f57829003601f168201915b5050505050905090565b61179e611d80565b73ffffffffffffffffffffffffffffffffffffffff168273ffffffffffffffffffffffffffffffffffffffff16141561180c576040517f08c379a0000000000000000000000000000000000000000000000000000000008152600401611803906137f1565b60405180910390fd5b8060056000611819611d80565b73ffffffffffffffffffffffffffffffffffffffff1673ffffffffffffffffffffffffffffffffffffffff16815260200190815260200160002060008473ffffffffffffffffffffffffffffffffffffffff1673ffffffffffffffffffffffffffffffffffffffff16815260200190815260200160002060006101000a81548160ff0219169083151502179055508173ffffffffffffffffffffffffffffffffffffffff166118c6611d80565b73ffffffffffffffffffffffffffffffffffffffff167f17307eab39ab6107e8899845ad3d59bd9653f200f220920489ca2b5937696c318360405161190b91906136d9565b60405180910390a35050565b60095481565b61192e611928611d80565b83611e48565b61196d576040517f08c379a0000000000000000000000000000000000000000000000000000000008152600401611964906139d1565b60405180910390fd5b611979848484846122fe565b50505050565b606061198a82611d14565b6119c9576040517f08c379a00000000000000000000000000000000000000000000000000000000081526004016119c0906138d1565b60405180910390fd5b60006006600084815260200190815260200160002080546119e990613d53565b80601f0160208091040260200160405190810160405280929190818152602001828054611a1590613d53565b8015611a625780601f10611a3757610100808354040283529160200191611a62565b820191906000526020600020905b815481529060010190602001808311611a4557829003601f168201915b505050505090506000611a7361235a565b9050600081511415611a89578192505050611acc565b600082511115611abe578082604051602001611aa692919061357f565b60405160208183030381529060405292505050611acc565b611ac784612371565b925050505b919050565b600f60149054906101000a900460ff1681565b6000600560008473ffffffffffffffffffffffffffffffffffffffff1673ffffffffffffffffffffffffffffffffffffffff16815260200190815260200160002060008373ffffffffffffffffffffffffffffffffffffffff1673ffffffffffffffffffffffffffffffffffffffff16815260200190815260200160002060009054906101000a900460ff16905092915050565b611b80611d80565b73ffffffffffffffffffffffffffffffffffffffff16611b9e6116da565b73ffffffffffffffffffffffffffffffffffffffff1614611bf4576040517f08c379a0000000000000000000000000000000000000000000000000000000008152600401611beb90613911565b60405180910390fd5b600073ffffffffffffffffffffffffffffffffffffffff168173ffffffffffffffffffffffffffffffffffffffff161415611c64576040517f08c379a0000000000000000000000000000000000000000000000000000000008152600401611c5b90613791565b60405180910390fd5b611c6d81612238565b50565b6000611c7b336111af565b15611c8f57601436033560601c9050611c9e565b611c97611ca2565b9050611c9f565b5b90565b600033905090565b60007f01ffc9a7000000000000000000000000000000000000000000000000000000007bffffffffffffffffffffffffffffffffffffffffffffffffffffffff1916827bffffffffffffffffffffffffffffffffffffffffffffffffffffffff1916149050919050565b60008073ffffffffffffffffffffffffffffffffffffffff166002600084815260200190815260200160002060009054906101000a900473ffffffffffffffffffffffffffffffffffffffff1673ffffffffffffffffffffffffffffffffffffffff1614159050919050565b6000611d8a611c70565b905090565b816004600083815260200190815260200160002060006101000a81548173ffffffffffffffffffffffffffffffffffffffff021916908373ffffffffffffffffffffffffffffffffffffffff160217905550808273ffffffffffffffffffffffffffffffffffffffff16611e0283611209565b73ffffffffffffffffffffffffffffffffffffffff167f8c5be1e5ebec7d5bd14f71427d1e84f3dd0314c0f7b2291e5b200ac8c7c3b92560405160405180910390a45050565b6000611e5382611d14565b611e92576040517f08c379a0000000000000000000000000000000000000000000000000000000008152600401611e8990613811565b60405180910390fd5b6000611e9d83611209565b90508073ffffffffffffffffffffffffffffffffffffffff168473ffffffffffffffffffffffffffffffffffffffff161480611f0c57508373ffffffffffffffffffffffffffffffffffffffff16611ef48461078f565b73ffffffffffffffffffffffffffffffffffffffff16145b80611f1d5750611f1c8185611ae4565b5b91505092915050565b8273ffffffffffffffffffffffffffffffffffffffff16611f4682611209565b73ffffffffffffffffffffffffffffffffffffffff1614611f9c576040517f08c379a0000000000000000000000000000000000000000000000000000000008152600401611f9390613931565b60405180910390fd5b600073ffffffffffffffffffffffffffffffffffffffff168273ffffffffffffffffffffffffffffffffffffffff16141561200c576040517f08c379a0000000000000000000000000000000000000000000000000000000008152600401612003906137d1565b60405180910390fd5b612017838383612418565b612022600082611d8f565b6001600360008573ffffffffffffffffffffffffffffffffffffffff1673ffffffffffffffffffffffffffffffffffffffff16815260200190815260200160002060008282546120729190613c2e565b925050819055506001600360008473ffffffffffffffffffffffffffffffffffffffff1673ffffffffffffffffffffffffffffffffffffffff16815260200190815260200160002060008282546120c99190613b4d565b92505081905550816002600083815260200190815260200160002060006101000a81548173ffffffffffffffffffffffffffffffffffffffff021916908373ffffffffffffffffffffffffffffffffffffffff160217905550808273ffffffffffffffffffffffffffffffffffffffff168473ffffffffffffffffffffffffffffffffffffffff167fddf252ad1be2c89b69c2b068fc378daa952ba7f163c4a11628f55a4df523b3ef60405160405180910390a4505050565b600081600001549050919050565b6121aa82826040518060200160405280600081525061254c565b5050565b6121b782611d14565b6121f6576040517f08c379a00000000000000000000000000000000000000000000000000000000081526004016121ed90613891565b60405180910390fd5b8060066000848152602001908152602001600020908051906020019061221d929190612ad1565b505050565b6001816000016000828254019250508190555050565b6000600860009054906101000a900473ffffffffffffffffffffffffffffffffffffffff16905081600860006101000a81548173ffffffffffffffffffffffffffffffffffffffff021916908373ffffffffffffffffffffffffffffffffffffffff1602179055508173ffffffffffffffffffffffffffffffffffffffff168173ffffffffffffffffffffffffffffffffffffffff167f8be0079c531659141344cd1fd0a4f28419497f9722a3daafe3b4186f6b6457e060405160405180910390a35050565b612309848484611f26565b612315848484846125a7565b612354576040517f08c379a000000000000000000000000000000000000000000000000000000000815260040161234b90613771565b60405180910390fd5b50505050565b606060405180602001604052806000815250905090565b606061237c82611d14565b6123bb576040517f08c379a00000000000000000000000000000000000000000000000000000000081526004016123b290613971565b60405180910390fd5b60006123c561235a565b905060008151116123e55760405180602001604052806000815250612410565b806123ef8461273e565b60405160200161240092919061357f565b6040516020818303038152906040525b915050919050565b600f60159054906101000a900460ff161561243d576124388383836128eb565b612547565b600073ffffffffffffffffffffffffffffffffffffffff168373ffffffffffffffffffffffffffffffffffffffff1614806124c55750600c60009054906101000a900473ffffffffffffffffffffffffffffffffffffffff1673ffffffffffffffffffffffffffffffffffffffff163373ffffffffffffffffffffffffffffffffffffffff16145b806124fc5750600073ffffffffffffffffffffffffffffffffffffffff168273ffffffffffffffffffffffffffffffffffffffff16145b61253b576040517f08c379a0000000000000000000000000000000000000000000000000000000008152600401612532906139b1565b60405180910390fd5b6125468383836128eb565b5b505050565b61255683836128f0565b61256360008484846125a7565b6125a2576040517f08c379a000000000000000000000000000000000000000000000000000000000815260040161259990613771565b60405180910390fd5b505050565b60006125c88473ffffffffffffffffffffffffffffffffffffffff16612abe565b15612731578373ffffffffffffffffffffffffffffffffffffffff1663150b7a026125f1611d80565b8786866040518563ffffffff1660e01b815260040161261394939291906135f5565b602060405180830381600087803b15801561262d57600080fd5b505af192505050801561265e57506040513d601f19601f8201168201806040525081019061265b9190613038565b60015b6126e1573d806000811461268e576040519150601f19603f3d011682016040523d82523d6000602084013e612693565b606091505b506000815114156126d9576040517f08c379a00000000000000000000000000000000000000000000000000000000081526004016126d090613771565b60405180910390fd5b805181602001fd5b63150b7a0260e01b7bffffffffffffffffffffffffffffffffffffffffffffffffffffffff1916817bffffffffffffffffffffffffffffffffffffffffffffffffffffffff191614915050612736565b600190505b949350505050565b60606000821415612786576040518060400160405280600181526020017f300000000000000000000000000000000000000000000000000000000000000081525090506128e6565b600082905060005b600082146127b85780806127a190613db6565b915050600a826127b19190613ba3565b915061278e565b60008167ffffffffffffffff8111156127fa577f4e487b7100000000000000000000000000000000000000000000000000000000600052604160045260246000fd5b6040519080825280601f01601f19166020018201604052801561282c5781602001600182028036833780820191505090505b5090505b600085146128df576001826128459190613c2e565b9150600a856128549190613dff565b60306128609190613b4d565b60f81b81838151811061289c577f4e487b7100000000000000000000000000000000000000000000000000000000600052603260045260246000fd5b60200101907effffffffffffffffffffffffffffffffffffffffffffffffffffffffffffff1916908160001a905350600a856128d89190613ba3565b9450612830565b8093505050505b919050565b505050565b600073ffffffffffffffffffffffffffffffffffffffff168273ffffffffffffffffffffffffffffffffffffffff161415612960576040517f08c379a0000000000000000000000000000000000000000000000000000000008152600401612957906138b1565b60405180910390fd5b61296981611d14565b156129a9576040517f08c379a00000000000000000000000000000000000000000000000000000000081526004016129a0906137b1565b60405180910390fd5b6129b560008383612418565b6001600360008473ffffffffffffffffffffffffffffffffffffffff1673ffffffffffffffffffffffffffffffffffffffff1681526020019081526020016000206000828254612a059190613b4d565b92505081905550816002600083815260200190815260200160002060006101000a81548173ffffffffffffffffffffffffffffffffffffffff021916908373ffffffffffffffffffffffffffffffffffffffff160217905550808273ffffffffffffffffffffffffffffffffffffffff16600073ffffffffffffffffffffffffffffffffffffffff167fddf252ad1be2c89b69c2b068fc378daa952ba7f163c4a11628f55a4df523b3ef60405160405180910390a45050565b600080823b905060008111915050919050565b828054612add90613d53565b90600052602060002090601f016020900481019282612aff5760008555612b46565b82601f10612b1857805160ff1916838001178555612b46565b82800160010185558215612b46579182015b82811115612b45578251825591602001919060010190612b2a565b5b509050612b539190612b57565b5090565b5b80821115612b70576000816000905550600101612b58565b5090565b6000612b87612b8284613aa8565b613a83565b905082815260208101848484011115612b9f57600080fd5b612baa848285613d11565b509392505050565b6000612bc5612bc084613ad9565b613a83565b905082815260208101848484011115612bdd57600080fd5b612be8848285613d11565b509392505050565b600081359050612bff816144e6565b92915050565b60008083601f840112612c1757600080fd5b8235905067ffffffffffffffff811115612c3057600080fd5b602083019150836020820283011115612c4857600080fd5b9250929050565b60008083601f840112612c6157600080fd5b8235905067ffffffffffffffff811115612c7a57600080fd5b602083019150836020820283011115612c9257600080fd5b9250929050565b600081359050612ca8816144fd565b92915050565b600081519050612cbd816144fd565b92915050565b600081359050612cd281614514565b92915050565b600081359050612ce78161452b565b92915050565b600081519050612cfc8161452b565b92915050565b600082601f830112612d1357600080fd5b8135612d23848260208601612b74565b91505092915050565b60008083601f840112612d3e57600080fd5b8235905067ffffffffffffffff811115612d5757600080fd5b602083019150836001820283011115612d6f57600080fd5b9250929050565b600082601f830112612d8757600080fd5b8135612d97848260208601612bb2565b91505092915050565b600081359050612daf81614542565b92915050565b600081359050612dc481614559565b92915050565b600060208284031215612ddc57600080fd5b6000612dea84828501612bf0565b91505092915050565b60008060408385031215612e0657600080fd5b6000612e1485828601612bf0565b9250506020612e2585828601612bf0565b9150509250929050565b600080600060608486031215612e4457600080fd5b6000612e5286828701612bf0565b9350506020612e6386828701612bf0565b9250506040612e7486828701612da0565b9150509250925092565b60008060008060808587031215612e9457600080fd5b6000612ea287828801612bf0565b9450506020612eb387828801612bf0565b9350506040612ec487828801612da0565b925050606085013567ffffffffffffffff811115612ee157600080fd5b612eed87828801612d02565b91505092959194509250565b60008060408385031215612f0c57600080fd5b6000612f1a85828601612bf0565b9250506020612f2b85828601612c99565b9150509250929050565b60008060408385031215612f4857600080fd5b6000612f5685828601612bf0565b9250506020612f6785828601612da0565b9150509250929050565b60008060008060408587031215612f8757600080fd5b600085013567ffffffffffffffff811115612fa157600080fd5b612fad87828801612c05565b9450945050602085013567ffffffffffffffff811115612fcc57600080fd5b612fd887828801612c4f565b925092505092959194509250565b600060208284031215612ff857600080fd5b600061300684828501612cae565b91505092915050565b60006020828403121561302157600080fd5b600061302f84828501612cd8565b91505092915050565b60006020828403121561304a57600080fd5b600061305884828501612ced565b91505092915050565b60008060008060008060a0878903121561307a57600080fd5b600087013567ffffffffffffffff81111561309457600080fd5b6130a089828a01612d2c565b965096505060206130b389828a01612da0565b94505060406130c489828a01612db5565b93505060606130d589828a01612cc3565b92505060806130e689828a01612cc3565b9150509295509295509295565b60006020828403121561310557600080fd5b600082013567ffffffffffffffff81111561311f57600080fd5b61312b84828501612d76565b91505092915050565b60006020828403121561314657600080fd5b600061315484828501612da0565b91505092915050565b61316681613c62565b82525050565b61317581613c74565b82525050565b61318481613c80565b82525050565b600061319582613b0a565b61319f8185613b20565b93506131af818560208601613d20565b6131b881613eec565b840191505092915050565b6131cc81613ced565b82525050565b60006131dd82613b15565b6131e78185613b31565b93506131f7818560208601613d20565b61320081613eec565b840191505092915050565b600061321682613b15565b6132208185613b42565b9350613230818560208601613d20565b80840191505092915050565b6000613249600c83613b31565b915061325482613efd565b602082019050919050565b600061326c601883613b31565b915061327782613f26565b602082019050919050565b600061328f603283613b31565b915061329a82613f4f565b604082019050919050565b60006132b2602683613b31565b91506132bd82613f9e565b604082019050919050565b60006132d5601c83613b31565b91506132e082613fed565b602082019050919050565b60006132f8602483613b31565b915061330382614016565b604082019050919050565b600061331b601983613b31565b915061332682614065565b602082019050919050565b600061333e602c83613b31565b91506133498261408e565b604082019050919050565b6000613361603883613b31565b915061336c826140dd565b604082019050919050565b6000613384602a83613b31565b915061338f8261412c565b604082019050919050565b60006133a7602983613b31565b91506133b28261417b565b604082019050919050565b60006133ca602e83613b31565b91506133d5826141ca565b604082019050919050565b60006133ed602083613b31565b91506133f882614219565b602082019050919050565b6000613410603183613b31565b915061341b82614242565b604082019050919050565b6000613433602c83613b31565b915061343e82614291565b604082019050919050565b6000613456602083613b31565b9150613461826142e0565b602082019050919050565b6000613479602983613b31565b915061348482614309565b604082019050919050565b600061349c601683613b31565b91506134a782614358565b602082019050919050565b60006134bf602f83613b31565b91506134ca82614381565b604082019050919050565b60006134e2602183613b31565b91506134ed826143d0565b604082019050919050565b6000613505602e83613b31565b91506135108261441f565b604082019050919050565b6000613528603183613b31565b91506135338261446e565b604082019050919050565b600061354b601f83613b31565b9150613556826144bd565b602082019050919050565b61356a81613cd6565b82525050565b61357981613ce0565b82525050565b600061358b828561320b565b9150613597828461320b565b91508190509392505050565b60006020820190506135b8600083018461315d565b92915050565b60006060820190506135d3600083018661315d565b6135e0602083018561315d565b6135ed6040830184613561565b949350505050565b600060808201905061360a600083018761315d565b613617602083018661315d565b6136246040830185613561565b8181036060830152613636818461318a565b905095945050505050565b600060e082019050613656600083018a61315d565b613663602083018961315d565b6136706040830188613561565b61367d6060830187613561565b61368a6080830186613570565b61369760a083018561317b565b6136a460c083018461317b565b98975050505050505050565b60006040820190506136c5600083018561315d565b6136d26020830184613561565b9392505050565b60006020820190506136ee600083018461316c565b92915050565b600060208201905061370960008301846131c3565b92915050565b6000602082019050818103600083015261372981846131d2565b905092915050565b6000602082019050818103600083015261374a8161323c565b9050919050565b6000602082019050818103600083015261376a8161325f565b9050919050565b6000602082019050818103600083015261378a81613282565b9050919050565b600060208201905081810360008301526137aa816132a5565b9050919050565b600060208201905081810360008301526137ca816132c8565b9050919050565b600060208201905081810360008301526137ea816132eb565b9050919050565b6000602082019050818103600083015261380a8161330e565b9050919050565b6000602082019050818103600083015261382a81613331565b9050919050565b6000602082019050818103600083015261384a81613354565b9050919050565b6000602082019050818103600083015261386a81613377565b9050919050565b6000602082019050818103600083015261388a8161339a565b9050919050565b600060208201905081810360008301526138aa816133bd565b9050919050565b600060208201905081810360008301526138ca816133e0565b9050919050565b600060208201905081810360008301526138ea81613403565b9050919050565b6000602082019050818103600083015261390a81613426565b9050919050565b6000602082019050818103600083015261392a81613449565b9050919050565b6000602082019050818103600083015261394a8161346c565b9050919050565b6000602082019050818103600083015261396a8161348f565b9050919050565b6000602082019050818103600083015261398a816134b2565b9050919050565b600060208201905081810360008301526139aa816134d5565b9050919050565b600060208201905081810360008301526139ca816134f8565b9050919050565b600060208201905081810360008301526139ea8161351b565b9050919050565b60006020820190508181036000830152613a0a8161353e565b9050919050565b6000602082019050613a266000830184613561565b92915050565b60008083356001602003843603038112613a4557600080fd5b80840192508235915067ffffffffffffffff821115613a6357600080fd5b602083019250600182023603831315613a7b57600080fd5b509250929050565b6000613a8d613a9e565b9050613a998282613d85565b919050565b6000604051905090565b600067ffffffffffffffff821115613ac357613ac2613ebd565b5b613acc82613eec565b9050602081019050919050565b600067ffffffffffffffff821115613af457613af3613ebd565b5b613afd82613eec565b9050602081019050919050565b600081519050919050565b600081519050919050565b600082825260208201905092915050565b600082825260208201905092915050565b600081905092915050565b6000613b5882613cd6565b9150613b6383613cd6565b9250827fffffffffffffffffffffffffffffffffffffffffffffffffffffffffffffffff03821115613b9857613b97613e30565b5b828201905092915050565b6000613bae82613cd6565b9150613bb983613cd6565b925082613bc957613bc8613e5f565b5b828204905092915050565b6000613bdf82613cd6565b9150613bea83613cd6565b9250817fffffffffffffffffffffffffffffffffffffffffffffffffffffffffffffffff0483118215151615613c2357613c22613e30565b5b828202905092915050565b6000613c3982613cd6565b9150613c4483613cd6565b925082821015613c5757613c56613e30565b5b828203905092915050565b6000613c6d82613cb6565b9050919050565b60008115159050919050565b6000819050919050565b60007fffffffff0000000000000000000000000000000000000000000000000000000082169050919050565b600073ffffffffffffffffffffffffffffffffffffffff82169050919050565b6000819050919050565b600060ff82169050919050565b6000613cf882613cff565b9050919050565b6000613d0a82613cb6565b9050919050565b82818337600083830152505050565b60005b83811015613d3e578082015181840152602081019050613d23565b83811115613d4d576000848401525b50505050565b60006002820490506001821680613d6b57607f821691505b60208210811415613d7f57613d7e613e8e565b5b50919050565b613d8e82613eec565b810181811067ffffffffffffffff82111715613dad57613dac613ebd565b5b80604052505050565b6000613dc182613cd6565b91507fffffffffffffffffffffffffffffffffffffffffffffffffffffffffffffffff821415613df457613df3613e30565b5b600182019050919050565b6000613e0a82613cd6565b9150613e1583613cd6565b925082613e2557613e24613e5f565b5b828206905092915050565b7f4e487b7100000000000000000000000000000000000000000000000000000000600052601160045260246000fd5b7f4e487b7100000000000000000000000000000000000000000000000000000000600052601260045260246000fd5b7f4e487b7100000000000000000000000000000000000000000000000000000000600052602260045260246000fd5b7f4e487b7100000000000000000000000000000000000000000000000000000000600052604160045260246000fd5b6000601f19601f8301169050919050565b7f437573746f6d20546f6b656e0000000000000000000000000000000000000000600082015250565b7f4d65746164617461204c656e677468204d69736d617463680000000000000000600082015250565b7f4552433732313a207472616e7366657220746f206e6f6e20455243373231526560008201527f63656976657220696d706c656d656e7465720000000000000000000000000000602082015250565b7f4f776e61626c653a206e6577206f776e657220697320746865207a65726f206160008201527f6464726573730000000000000000000000000000000000000000000000000000602082015250565b7f4552433732313a20746f6b656e20616c7265616479206d696e74656400000000600082015250565b7f4552433732313a207472616e7366657220746f20746865207a65726f2061646460008201527f7265737300000000000000000000000000000000000000000000000000000000602082015250565b7f4552433732313a20617070726f766520746f2063616c6c657200000000000000600082015250565b7f4552433732313a206f70657261746f7220717565727920666f72206e6f6e657860008201527f697374656e7420746f6b656e0000000000000000000000000000000000000000602082015250565b7f4552433732313a20617070726f76652063616c6c6572206973206e6f74206f7760008201527f6e6572206e6f7220617070726f76656420666f7220616c6c0000000000000000602082015250565b7f4552433732313a2062616c616e636520717565727920666f7220746865207a6560008201527f726f206164647265737300000000000000000000000000000000000000000000602082015250565b7f4552433732313a206f776e657220717565727920666f72206e6f6e657869737460008201527f656e7420746f6b656e0000000000000000000000000000000000000000000000602082015250565b7f45524337323155524953746f726167653a2055524920736574206f66206e6f6e60008201527f6578697374656e7420746f6b656e000000000000000000000000000000000000602082015250565b7f4552433732313a206d696e7420746f20746865207a65726f2061646472657373600082015250565b7f45524337323155524953746f726167653a2055524920717565727920666f722060008201527f6e6f6e6578697374656e7420746f6b656e000000000000000000000000000000602082015250565b7f4552433732313a20617070726f76656420717565727920666f72206e6f6e657860008201527f697374656e7420746f6b656e0000000000000000000000000000000000000000602082015250565b7f4f776e61626c653a2063616c6c6572206973206e6f7420746865206f776e6572600082015250565b7f4552433732313a207472616e73666572206f6620746f6b656e2074686174206960008201527f73206e6f74206f776e0000000000000000000000000000000000000000000000602082015250565b7f416c7265616479206d696e746564207469636b65747300000000000000000000600082015250565b7f4552433732314d657461646174613a2055524920717565727920666f72206e6f60008201527f6e6578697374656e7420746f6b656e0000000000000000000000000000000000602082015250565b7f4552433732313a20617070726f76616c20746f2063757272656e74206f776e6560008201527f7200000000000000000000000000000000000000000000000000000000000000602082015250565b7f4e6f6e5472616e736665727261626c65455243373231546f6b656e3a206e6f6e60008201527f207472616e736665727261626c65000000000000000000000000000000000000602082015250565b7f4552433732313a207472616e736665722063616c6c6572206973206e6f74206f60008201527f776e6572206e6f7220617070726f766564000000000000000000000000000000602082015250565b7f4e617469766520546f6b656e2c2075736520676574546978206d6574686f6400600082015250565b6144ef81613c62565b81146144fa57600080fd5b50565b61450681613c74565b811461451157600080fd5b50565b61451d81613c80565b811461452857600080fd5b50565b61453481613c8a565b811461453f57600080fd5b50565b61454b81613cd6565b811461455657600080fd5b50565b61456281613ce0565b811461456d57600080fd5b5056fea2646970667358221220293b70d39494c8991bc17542dec502dad8ef75f09ae8e02a99a7e26e282eb74164736f6c63430008040033a26469706673582212201db5dbdbf5a1a0fe0479e4a7c264ecc169fd23b12186101ab31e4b8a7e74b3ec64736f6c63430008040033",
  "linkReferences": {},
  "deployedLinkReferences": {}
}