{
    "_format": "hh-sol-artifact-1",
    "contractName": "Metapass",
    "sourceName": "contracts/Metapass.sol",
    "abi": [
        {
            "inputs": [
                {
                    "internalType": "uint256",
                    "name": "_cutNum",
                    "type": "uint256"
                },
                {
                    "internalType": "uint256",
                    "name": "_cutDen",
                    "type": "uint256"
                },
                {
                    "internalType": "address",
                    "name": "_owner",
                    "type": "address"
                },
                {
                    "internalType": "uint256",
                    "name": "_cost",
                    "type": "uint256"
                },
                {
                    "internalType": "address",
                    "name": "_storageProxy",
                    "type": "address"
                },
                {
                    "internalType": "address",
                    "name": "_forwarder",
                    "type": "address"
                }
            ],
            "stateMutability": "nonpayable",
            "type": "constructor"
        },
        {
            "anonymous": false,
            "inputs": [
                {
                    "indexed": true,
                    "internalType": "address",
                    "name": "owner",
                    "type": "address"
                },
                {
                    "indexed": true,
                    "internalType": "address",
                    "name": "approved",
                    "type": "address"
                },
                {
                    "indexed": true,
                    "internalType": "uint256",
                    "name": "tokenId",
                    "type": "uint256"
                }
            ],
            "name": "Approval",
            "type": "event"
        },
        {
            "anonymous": false,
            "inputs": [
                {
                    "indexed": true,
                    "internalType": "address",
                    "name": "owner",
                    "type": "address"
                },
                {
                    "indexed": true,
                    "internalType": "address",
                    "name": "operator",
                    "type": "address"
                },
                {
                    "indexed": false,
                    "internalType": "bool",
                    "name": "approved",
                    "type": "bool"
                }
            ],
            "name": "ApprovalForAll",
            "type": "event"
        },
        {
            "anonymous": false,
            "inputs": [
                {
                    "indexed": false,
                    "internalType": "uint256",
                    "name": "tokenID",
                    "type": "uint256"
                }
            ],
            "name": "Minted",
            "type": "event"
        },
        {
            "anonymous": false,
            "inputs": [
                {
                    "indexed": true,
                    "internalType": "address",
                    "name": "previousOwner",
                    "type": "address"
                },
                {
                    "indexed": true,
                    "internalType": "address",
                    "name": "newOwner",
                    "type": "address"
                }
            ],
            "name": "OwnershipTransferred",
            "type": "event"
        },
        {
            "anonymous": false,
            "inputs": [
                {
                    "indexed": true,
                    "internalType": "address",
                    "name": "from",
                    "type": "address"
                },
                {
                    "indexed": true,
                    "internalType": "address",
                    "name": "to",
                    "type": "address"
                },
                {
                    "indexed": true,
                    "internalType": "uint256",
                    "name": "tokenId",
                    "type": "uint256"
                }
            ],
            "name": "Transfer",
            "type": "event"
        },
        {
            "inputs": [
                {
                    "internalType": "address",
                    "name": "to",
                    "type": "address"
                },
                {
                    "internalType": "uint256",
                    "name": "tokenId",
                    "type": "uint256"
                }
            ],
            "name": "approve",
            "outputs": [],
            "stateMutability": "nonpayable",
            "type": "function"
        },
        {
            "inputs": [
                {
                    "internalType": "address",
                    "name": "owner",
                    "type": "address"
                }
            ],
            "name": "balanceOf",
            "outputs": [
                {
                    "internalType": "uint256",
                    "name": "",
                    "type": "uint256"
                }
            ],
            "stateMutability": "view",
            "type": "function"
        },
        {
            "inputs": [],
            "name": "cutDenominator",
            "outputs": [
                {
                    "internalType": "uint256",
                    "name": "",
                    "type": "uint256"
                }
            ],
            "stateMutability": "view",
            "type": "function"
        },
        {
            "inputs": [],
            "name": "cutNumerator",
            "outputs": [
                {
                    "internalType": "uint256",
                    "name": "",
                    "type": "uint256"
                }
            ],
            "stateMutability": "view",
            "type": "function"
        },
        {
            "inputs": [],
            "name": "eventHost",
            "outputs": [
                {
                    "internalType": "address",
                    "name": "",
                    "type": "address"
                }
            ],
            "stateMutability": "view",
            "type": "function"
        },
        {
            "inputs": [
                {
                    "internalType": "uint256",
                    "name": "tokenId",
                    "type": "uint256"
                }
            ],
            "name": "getApproved",
            "outputs": [
                {
                    "internalType": "address",
                    "name": "",
                    "type": "address"
                }
            ],
            "stateMutability": "view",
            "type": "function"
        },
        {
            "inputs": [
                {
                    "internalType": "string",
                    "name": "tokenMetadata",
                    "type": "string"
                }
            ],
            "name": "getTix",
            "outputs": [],
            "stateMutability": "payable",
            "type": "function"
        },
        {
            "inputs": [
                {
                    "internalType": "address",
                    "name": "owner",
                    "type": "address"
                },
                {
                    "internalType": "address",
                    "name": "operator",
                    "type": "address"
                }
            ],
            "name": "isApprovedForAll",
            "outputs": [
                {
                    "internalType": "bool",
                    "name": "",
                    "type": "bool"
                }
            ],
            "stateMutability": "view",
            "type": "function"
        },
        {
            "inputs": [
                {
                    "internalType": "address",
                    "name": "forwarder",
                    "type": "address"
                }
            ],
            "name": "isTrustedForwarder",
            "outputs": [
                {
                    "internalType": "bool",
                    "name": "",
                    "type": "bool"
                }
            ],
            "stateMutability": "view",
            "type": "function"
        },
        {
            "inputs": [],
            "name": "name",
            "outputs": [
                {
                    "internalType": "string",
                    "name": "",
                    "type": "string"
                }
            ],
            "stateMutability": "view",
            "type": "function"
        },
        {
            "inputs": [],
            "name": "owner",
            "outputs": [
                {
                    "internalType": "address",
                    "name": "",
                    "type": "address"
                }
            ],
            "stateMutability": "view",
            "type": "function"
        },
        {
            "inputs": [
                {
                    "internalType": "uint256",
                    "name": "tokenId",
                    "type": "uint256"
                }
            ],
            "name": "ownerOf",
            "outputs": [
                {
                    "internalType": "address",
                    "name": "",
                    "type": "address"
                }
            ],
            "stateMutability": "view",
            "type": "function"
        },
        {
            "inputs": [],
            "name": "renounceOwnership",
            "outputs": [],
            "stateMutability": "nonpayable",
            "type": "function"
        },
        {
            "inputs": [
                {
                    "internalType": "address",
                    "name": "from",
                    "type": "address"
                },
                {
                    "internalType": "address",
                    "name": "to",
                    "type": "address"
                },
                {
                    "internalType": "uint256",
                    "name": "tokenId",
                    "type": "uint256"
                }
            ],
            "name": "safeTransferFrom",
            "outputs": [],
            "stateMutability": "nonpayable",
            "type": "function"
        },
        {
            "inputs": [
                {
                    "internalType": "address",
                    "name": "from",
                    "type": "address"
                },
                {
                    "internalType": "address",
                    "name": "to",
                    "type": "address"
                },
                {
                    "internalType": "uint256",
                    "name": "tokenId",
                    "type": "uint256"
                },
                {
                    "internalType": "bytes",
                    "name": "_data",
                    "type": "bytes"
                }
            ],
            "name": "safeTransferFrom",
            "outputs": [],
            "stateMutability": "nonpayable",
            "type": "function"
        },
        {
            "inputs": [
                {
                    "internalType": "address",
                    "name": "operator",
                    "type": "address"
                },
                {
                    "internalType": "bool",
                    "name": "approved",
                    "type": "bool"
                }
            ],
            "name": "setApprovalForAll",
            "outputs": [],
            "stateMutability": "nonpayable",
            "type": "function"
        },
        {
            "inputs": [
                {
                    "internalType": "bytes4",
                    "name": "interfaceId",
                    "type": "bytes4"
                }
            ],
            "name": "supportsInterface",
            "outputs": [
                {
                    "internalType": "bool",
                    "name": "",
                    "type": "bool"
                }
            ],
            "stateMutability": "view",
            "type": "function"
        },
        {
            "inputs": [],
            "name": "symbol",
            "outputs": [
                {
                    "internalType": "string",
                    "name": "",
                    "type": "string"
                }
            ],
            "stateMutability": "view",
            "type": "function"
        },
        {
            "inputs": [
                {
                    "internalType": "uint256",
                    "name": "tokenId",
                    "type": "uint256"
                }
            ],
            "name": "tokenURI",
            "outputs": [
                {
                    "internalType": "string",
                    "name": "",
                    "type": "string"
                }
            ],
            "stateMutability": "view",
            "type": "function"
        },
        {
            "inputs": [
                {
                    "internalType": "address",
                    "name": "from",
                    "type": "address"
                },
                {
                    "internalType": "address",
                    "name": "to",
                    "type": "address"
                },
                {
                    "internalType": "uint256",
                    "name": "tokenId",
                    "type": "uint256"
                }
            ],
            "name": "transferFrom",
            "outputs": [],
            "stateMutability": "nonpayable",
            "type": "function"
        },
        {
            "inputs": [
                {
                    "internalType": "address",
                    "name": "newOwner",
                    "type": "address"
                }
            ],
            "name": "transferOwnership",
            "outputs": [],
            "stateMutability": "nonpayable",
            "type": "function"
        },
        {
            "inputs": [],
            "name": "trustedForwarder",
            "outputs": [
                {
                    "internalType": "address",
                    "name": "",
                    "type": "address"
                }
            ],
            "stateMutability": "view",
            "type": "function"
        },
        {
            "inputs": [],
            "name": "versionRecipient",
            "outputs": [
                {
                    "internalType": "string",
                    "name": "",
                    "type": "string"
                }
            ],
            "stateMutability": "view",
            "type": "function"
        }
    ],
    "bytecode": "0x608060405260006009556064600a556040518060400160405280600581526020017f322e322e30000000000000000000000000000000000000000000000000000000815250600f90805190602001906200005b92919062000538565b503480156200006957600080fd5b50604051620040503803806200405083398181016040528101906200008f919062000616565b6040518060400160405280600f81526020017f4d657461706173735469636b65747300000000000000000000000000000000008152506040518060400160405280600881526020017f4d4554415041535300000000000000000000000000000000000000000000000081525081600090805190602001906200011392919062000538565b5080600190805190602001906200012c92919062000538565b5050506200014f620001436200023660201b60201c565b6200025260201b60201c565b8560098190555084600a8190555082600d8190555083600c60006101000a81548173ffffffffffffffffffffffffffffffffffffffff021916908373ffffffffffffffffffffffffffffffffffffffff16021790555081600e60006101000a81548173ffffffffffffffffffffffffffffffffffffffff021916908373ffffffffffffffffffffffffffffffffffffffff16021790555062000219600c60009054906101000a900473ffffffffffffffffffffffffffffffffffffffff166200031860201b60201c565b6200022a816200042e60201b60201c565b5050505050506200089e565b60006200024d6200047260201b6200141e1760201c565b905090565b6000600760009054906101000a900473ffffffffffffffffffffffffffffffffffffffff16905081600760006101000a81548173ffffffffffffffffffffffffffffffffffffffff021916908373ffffffffffffffffffffffffffffffffffffffff1602179055508173ffffffffffffffffffffffffffffffffffffffff168173ffffffffffffffffffffffffffffffffffffffff167f8be0079c531659141344cd1fd0a4f28419497f9722a3daafe3b4186f6b6457e060405160405180910390a35050565b620003286200023660201b60201c565b73ffffffffffffffffffffffffffffffffffffffff166200034e620004b460201b60201c565b73ffffffffffffffffffffffffffffffffffffffff1614620003a7576040517f08c379a00000000000000000000000000000000000000000000000000000000081526004016200039e906200071c565b60405180910390fd5b600073ffffffffffffffffffffffffffffffffffffffff168173ffffffffffffffffffffffffffffffffffffffff1614156200041a576040517f08c379a00000000000000000000000000000000000000000000000000000000081526004016200041190620006fa565b60405180910390fd5b6200042b816200025260201b60201c565b50565b80600860006101000a81548173ffffffffffffffffffffffffffffffffffffffff021916908373ffffffffffffffffffffffffffffffffffffffff16021790555050565b600060146000369050101580156200049757506200049633620004de60201b60201c565b5b15620004ad57601436033560601c9050620004b1565b3390505b90565b6000600760009054906101000a900473ffffffffffffffffffffffffffffffffffffffff16905090565b6000600860009054906101000a900473ffffffffffffffffffffffffffffffffffffffff1673ffffffffffffffffffffffffffffffffffffffff168273ffffffffffffffffffffffffffffffffffffffff16149050919050565b82805462000546906200078d565b90600052602060002090601f0160209004810192826200056a5760008555620005b6565b82601f106200058557805160ff1916838001178555620005b6565b82800160010185558215620005b6579182015b82811115620005b557825182559160200191906001019062000598565b5b509050620005c59190620005c9565b5090565b5b80821115620005e4576000816000905550600101620005ca565b5090565b600081519050620005f9816200086a565b92915050565b600081519050620006108162000884565b92915050565b60008060008060008060c087890312156200063057600080fd5b60006200064089828a01620005ff565b96505060206200065389828a01620005ff565b95505060406200066689828a01620005e8565b94505060606200067989828a01620005ff565b93505060806200068c89828a01620005e8565b92505060a06200069f89828a01620005e8565b9150509295509295509295565b6000620006bb6026836200073e565b9150620006c882620007f2565b604082019050919050565b6000620006e26020836200073e565b9150620006ef8262000841565b602082019050919050565b600060208201905081810360008301526200071581620006ac565b9050919050565b600060208201905081810360008301526200073781620006d3565b9050919050565b600082825260208201905092915050565b60006200075c8262000763565b9050919050565b600073ffffffffffffffffffffffffffffffffffffffff82169050919050565b6000819050919050565b60006002820490506001821680620007a657607f821691505b60208210811415620007bd57620007bc620007c3565b5b50919050565b7f4e487b7100000000000000000000000000000000000000000000000000000000600052602260045260246000fd5b7f4f776e61626c653a206e6577206f776e657220697320746865207a65726f206160008201527f6464726573730000000000000000000000000000000000000000000000000000602082015250565b7f4f776e61626c653a2063616c6c6572206973206e6f7420746865206f776e6572600082015250565b62000875816200074f565b81146200088157600080fd5b50565b6200088f8162000783565b81146200089b57600080fd5b50565b6137a280620008ae6000396000f3fe6080604052600436106101405760003560e01c806370a08231116100b6578063a22cb4651161006f578063a22cb46514610451578063abf0f5731461047a578063b88d4fde146104a5578063c87b56dd146104ce578063e985e9c51461050b578063f2fde38b1461054857610140565b806370a0823114610360578063715018a61461039d5780637da0a877146103b457806387ab7517146103df5780638da5cb5b146103fb57806395d89b411461042657610140565b806322e8f8451161010857806322e8f8451461023e57806323b872dd1461026957806342842e0e14610292578063486ff0cd146102bb578063572b6c05146102e65780636352211e1461032357610140565b806301ffc9a71461014557806306fdde0314610182578063081812fc146101ad578063089eb32d146101ea578063095ea7b314610215575b600080fd5b34801561015157600080fd5b5061016c60048036038101906101679190612581565b610571565b6040516101799190612a8b565b60405180910390f35b34801561018e57600080fd5b50610197610653565b6040516101a49190612aa6565b60405180910390f35b3480156101b957600080fd5b506101d460048036038101906101cf9190612614565b6106e5565b6040516101e191906129ed565b60405180910390f35b3480156101f657600080fd5b506101ff61076a565b60405161020c9190612d48565b60405180910390f35b34801561022157600080fd5b5061023c60048036038101906102379190612545565b610770565b005b34801561024a57600080fd5b50610253610888565b60405161026091906129ed565b60405180910390f35b34801561027557600080fd5b50610290600480360381019061028b919061243f565b6108ae565b005b34801561029e57600080fd5b506102b960048036038101906102b4919061243f565b61090e565b005b3480156102c757600080fd5b506102d061092e565b6040516102dd9190612aa6565b60405180910390f35b3480156102f257600080fd5b5061030d600480360381019061030891906123da565b6109bc565b60405161031a9190612a8b565b60405180910390f35b34801561032f57600080fd5b5061034a60048036038101906103459190612614565b610a16565b60405161035791906129ed565b60405180910390f35b34801561036c57600080fd5b50610387600480360381019061038291906123da565b610ac8565b6040516103949190612d48565b60405180910390f35b3480156103a957600080fd5b506103b2610b80565b005b3480156103c057600080fd5b506103c9610c08565b6040516103d691906129ed565b60405180910390f35b6103f960048036038101906103f491906125d3565b610c32565b005b34801561040757600080fd5b50610410610e9b565b60405161041d91906129ed565b60405180910390f35b34801561043257600080fd5b5061043b610ec5565b6040516104489190612aa6565b60405180910390f35b34801561045d57600080fd5b5061047860048036038101906104739190612509565b610f57565b005b34801561048657600080fd5b5061048f6110d8565b60405161049c9190612d48565b60405180910390f35b3480156104b157600080fd5b506104cc60048036038101906104c7919061248e565b6110de565b005b3480156104da57600080fd5b506104f560048036038101906104f09190612614565b611140565b6040516105029190612aa6565b60405180910390f35b34801561051757600080fd5b50610532600480360381019061052d9190612403565b611292565b60405161053f9190612a8b565b60405180910390f35b34801561055457600080fd5b5061056f600480360381019061056a91906123da565b611326565b005b60007f80ac58cd000000000000000000000000000000000000000000000000000000007bffffffffffffffffffffffffffffffffffffffffffffffffffffffff1916827bffffffffffffffffffffffffffffffffffffffffffffffffffffffff1916148061063c57507f5b5e139f000000000000000000000000000000000000000000000000000000007bffffffffffffffffffffffffffffffffffffffffffffffffffffffff1916827bffffffffffffffffffffffffffffffffffffffffffffffffffffffff1916145b8061064c575061064b82611455565b5b9050919050565b60606000805461066290612ff8565b80601f016020809104026020016040519081016040528092919081815260200182805461068e90612ff8565b80156106db5780601f106106b0576101008083540402835291602001916106db565b820191906000526020600020905b8154815290600101906020018083116106be57829003601f168201915b5050505050905090565b60006106f0826114bf565b61072f576040517f08c379a000000000000000000000000000000000000000000000000000000000815260040161072690612c48565b60405180910390fd5b6004600083815260200190815260200160002060009054906101000a900473ffffffffffffffffffffffffffffffffffffffff169050919050565b600a5481565b600061077b82610a16565b90508073ffffffffffffffffffffffffffffffffffffffff168373ffffffffffffffffffffffffffffffffffffffff1614156107ec576040517f08c379a00000000000000000000000000000000000000000000000000000000081526004016107e390612ce8565b60405180910390fd5b8073ffffffffffffffffffffffffffffffffffffffff1661080b61152b565b73ffffffffffffffffffffffffffffffffffffffff16148061083a57506108398161083461152b565b611292565b5b610879576040517f08c379a000000000000000000000000000000000000000000000000000000000815260040161087090612b88565b60405180910390fd5b610883838361153a565b505050565b600c60009054906101000a900473ffffffffffffffffffffffffffffffffffffffff1681565b6108bf6108b961152b565b826115f3565b6108fe576040517f08c379a00000000000000000000000000000000000000000000000000000000081526004016108f590612d28565b60405180910390fd5b6109098383836116d1565b505050565b610929838383604051806020016040528060008152506110de565b505050565b600f805461093b90612ff8565b80601f016020809104026020016040519081016040528092919081815260200182805461096790612ff8565b80156109b45780601f10610989576101008083540402835291602001916109b4565b820191906000526020600020905b81548152906001019060200180831161099757829003601f168201915b505050505081565b6000600860009054906101000a900473ffffffffffffffffffffffffffffffffffffffff1673ffffffffffffffffffffffffffffffffffffffff168273ffffffffffffffffffffffffffffffffffffffff16149050919050565b6000806002600084815260200190815260200160002060009054906101000a900473ffffffffffffffffffffffffffffffffffffffff169050600073ffffffffffffffffffffffffffffffffffffffff168173ffffffffffffffffffffffffffffffffffffffff161415610abf576040517f08c379a0000000000000000000000000000000000000000000000000000000008152600401610ab690612bc8565b60405180910390fd5b80915050919050565b60008073ffffffffffffffffffffffffffffffffffffffff168273ffffffffffffffffffffffffffffffffffffffff161415610b39576040517f08c379a0000000000000000000000000000000000000000000000000000000008152600401610b3090612ba8565b60405180910390fd5b600360008373ffffffffffffffffffffffffffffffffffffffff1673ffffffffffffffffffffffffffffffffffffffff168152602001908152602001600020549050919050565b610b8861152b565b73ffffffffffffffffffffffffffffffffffffffff16610ba6610e9b565b73ffffffffffffffffffffffffffffffffffffffff1614610bfc576040517f08c379a0000000000000000000000000000000000000000000000000000000008152600401610bf390612c68565b60405180910390fd5b610c06600061192d565b565b6000600860009054906101000a900473ffffffffffffffffffffffffffffffffffffffff16905090565b6000610c44610c3f61152b565b610ac8565b14610c84576040517f08c379a0000000000000000000000000000000000000000000000000000000008152600401610c7b90612ca8565b60405180910390fd5b610c9e610c8f61152b565b610c99600b6119f3565b611a01565b610cb1610cab600b6119f3565b82611a1f565b7f176b02bb2d12439ff7a20b59f402cca16c76f50508b13ef3166a600eb719354a610cdc600b6119f3565b604051610ce99190612d48565b60405180910390a16000600a5460095434610d049190612eb4565b610d0e9190612e83565b90506000811115610d8357600e60009054906101000a900473ffffffffffffffffffffffffffffffffffffffff1673ffffffffffffffffffffffffffffffffffffffff166108fc829081150290604051600060405180830381858888f19350505050158015610d81573d6000803e3d6000fd5b505b600c60009054906101000a900473ffffffffffffffffffffffffffffffffffffffff1673ffffffffffffffffffffffffffffffffffffffff166108fc479081150290604051600060405180830381858888f19350505050158015610deb573d6000803e3d6000fd5b50600e60009054906101000a900473ffffffffffffffffffffffffffffffffffffffff1673ffffffffffffffffffffffffffffffffffffffff1663701ebddd30610e3361152b565b610e3d600b6119f3565b6040518463ffffffff1660e01b8152600401610e5b93929190612a08565b600060405180830381600087803b158015610e7557600080fd5b505af1158015610e89573d6000803e3d6000fd5b50505050610e97600b611a93565b5050565b6000600760009054906101000a900473ffffffffffffffffffffffffffffffffffffffff16905090565b606060018054610ed490612ff8565b80601f0160208091040260200160405190810160405280929190818152602001828054610f0090612ff8565b8015610f4d5780601f10610f2257610100808354040283529160200191610f4d565b820191906000526020600020905b815481529060010190602001808311610f3057829003601f168201915b5050505050905090565b610f5f61152b565b73ffffffffffffffffffffffffffffffffffffffff168273ffffffffffffffffffffffffffffffffffffffff161415610fcd576040517f08c379a0000000000000000000000000000000000000000000000000000000008152600401610fc490612b48565b60405180910390fd5b8060056000610fda61152b565b73ffffffffffffffffffffffffffffffffffffffff1673ffffffffffffffffffffffffffffffffffffffff16815260200190815260200160002060008473ffffffffffffffffffffffffffffffffffffffff1673ffffffffffffffffffffffffffffffffffffffff16815260200190815260200160002060006101000a81548160ff0219169083151502179055508173ffffffffffffffffffffffffffffffffffffffff1661108761152b565b73ffffffffffffffffffffffffffffffffffffffff167f17307eab39ab6107e8899845ad3d59bd9653f200f220920489ca2b5937696c31836040516110cc9190612a8b565b60405180910390a35050565b60095481565b6110ef6110e961152b565b836115f3565b61112e576040517f08c379a000000000000000000000000000000000000000000000000000000000815260040161112590612d28565b60405180910390fd5b61113a84848484611aa9565b50505050565b606061114b826114bf565b61118a576040517f08c379a000000000000000000000000000000000000000000000000000000000815260040161118190612c28565b60405180910390fd5b60006006600084815260200190815260200160002080546111aa90612ff8565b80601f01602080910402602001604051908101604052809291908181526020018280546111d690612ff8565b80156112235780601f106111f857610100808354040283529160200191611223565b820191906000526020600020905b81548152906001019060200180831161120657829003601f168201915b505050505090506000611234611b05565b905060008151141561124a57819250505061128d565b60008251111561127f5780826040516020016112679291906129c9565b6040516020818303038152906040529250505061128d565b61128884611b1c565b925050505b919050565b6000600560008473ffffffffffffffffffffffffffffffffffffffff1673ffffffffffffffffffffffffffffffffffffffff16815260200190815260200160002060008373ffffffffffffffffffffffffffffffffffffffff1673ffffffffffffffffffffffffffffffffffffffff16815260200190815260200160002060009054906101000a900460ff16905092915050565b61132e61152b565b73ffffffffffffffffffffffffffffffffffffffff1661134c610e9b565b73ffffffffffffffffffffffffffffffffffffffff16146113a2576040517f08c379a000000000000000000000000000000000000000000000000000000000815260040161139990612c68565b60405180910390fd5b600073ffffffffffffffffffffffffffffffffffffffff168173ffffffffffffffffffffffffffffffffffffffff161415611412576040517f08c379a000000000000000000000000000000000000000000000000000000000815260040161140990612ae8565b60405180910390fd5b61141b8161192d565b50565b6000601460003690501015801561143a5750611439336109bc565b5b1561144e57601436033560601c9050611452565b3390505b90565b60007f01ffc9a7000000000000000000000000000000000000000000000000000000007bffffffffffffffffffffffffffffffffffffffffffffffffffffffff1916827bffffffffffffffffffffffffffffffffffffffffffffffffffffffff1916149050919050565b60008073ffffffffffffffffffffffffffffffffffffffff166002600084815260200190815260200160002060009054906101000a900473ffffffffffffffffffffffffffffffffffffffff1673ffffffffffffffffffffffffffffffffffffffff1614159050919050565b600061153561141e565b905090565b816004600083815260200190815260200160002060006101000a81548173ffffffffffffffffffffffffffffffffffffffff021916908373ffffffffffffffffffffffffffffffffffffffff160217905550808273ffffffffffffffffffffffffffffffffffffffff166115ad83610a16565b73ffffffffffffffffffffffffffffffffffffffff167f8c5be1e5ebec7d5bd14f71427d1e84f3dd0314c0f7b2291e5b200ac8c7c3b92560405160405180910390a45050565b60006115fe826114bf565b61163d576040517f08c379a000000000000000000000000000000000000000000000000000000000815260040161163490612b68565b60405180910390fd5b600061164883610a16565b90508073ffffffffffffffffffffffffffffffffffffffff168473ffffffffffffffffffffffffffffffffffffffff1614806116b757508373ffffffffffffffffffffffffffffffffffffffff1661169f846106e5565b73ffffffffffffffffffffffffffffffffffffffff16145b806116c857506116c78185611292565b5b91505092915050565b8273ffffffffffffffffffffffffffffffffffffffff166116f182610a16565b73ffffffffffffffffffffffffffffffffffffffff1614611747576040517f08c379a000000000000000000000000000000000000000000000000000000000815260040161173e90612c88565b60405180910390fd5b600073ffffffffffffffffffffffffffffffffffffffff168273ffffffffffffffffffffffffffffffffffffffff1614156117b7576040517f08c379a00000000000000000000000000000000000000000000000000000000081526004016117ae90612b28565b60405180910390fd5b6117c2838383611bc3565b6117cd60008261153a565b6001600360008573ffffffffffffffffffffffffffffffffffffffff1673ffffffffffffffffffffffffffffffffffffffff168152602001908152602001600020600082825461181d9190612f0e565b925050819055506001600360008473ffffffffffffffffffffffffffffffffffffffff1673ffffffffffffffffffffffffffffffffffffffff16815260200190815260200160002060008282546118749190612e2d565b92505081905550816002600083815260200190815260200160002060006101000a81548173ffffffffffffffffffffffffffffffffffffffff021916908373ffffffffffffffffffffffffffffffffffffffff160217905550808273ffffffffffffffffffffffffffffffffffffffff168473ffffffffffffffffffffffffffffffffffffffff167fddf252ad1be2c89b69c2b068fc378daa952ba7f163c4a11628f55a4df523b3ef60405160405180910390a4505050565b6000600760009054906101000a900473ffffffffffffffffffffffffffffffffffffffff16905081600760006101000a81548173ffffffffffffffffffffffffffffffffffffffff021916908373ffffffffffffffffffffffffffffffffffffffff1602179055508173ffffffffffffffffffffffffffffffffffffffff168173ffffffffffffffffffffffffffffffffffffffff167f8be0079c531659141344cd1fd0a4f28419497f9722a3daafe3b4186f6b6457e060405160405180910390a35050565b600081600001549050919050565b611a1b828260405180602001604052806000815250611c79565b5050565b611a28826114bf565b611a67576040517f08c379a0000000000000000000000000000000000000000000000000000000008152600401611a5e90612be8565b60405180910390fd5b80600660008481526020019081526020016000209080519060200190611a8e9291906121fe565b505050565b6001816000016000828254019250508190555050565b611ab48484846116d1565b611ac084848484611cd4565b611aff576040517f08c379a0000000000000000000000000000000000000000000000000000000008152600401611af690612ac8565b60405180910390fd5b50505050565b606060405180602001604052806000815250905090565b6060611b27826114bf565b611b66576040517f08c379a0000000000000000000000000000000000000000000000000000000008152600401611b5d90612cc8565b60405180910390fd5b6000611b70611b05565b90506000815111611b905760405180602001604052806000815250611bbb565b80611b9a84611e6b565b604051602001611bab9291906129c9565b6040516020818303038152906040525b915050919050565b600073ffffffffffffffffffffffffffffffffffffffff168373ffffffffffffffffffffffffffffffffffffffff161480611c2a5750600073ffffffffffffffffffffffffffffffffffffffff168273ffffffffffffffffffffffffffffffffffffffff16145b611c69576040517f08c379a0000000000000000000000000000000000000000000000000000000008152600401611c6090612d08565b60405180910390fd5b611c74838383612018565b505050565b611c83838361201d565b611c906000848484611cd4565b611ccf576040517f08c379a0000000000000000000000000000000000000000000000000000000008152600401611cc690612ac8565b60405180910390fd5b505050565b6000611cf58473ffffffffffffffffffffffffffffffffffffffff166121eb565b15611e5e578373ffffffffffffffffffffffffffffffffffffffff1663150b7a02611d1e61152b565b8786866040518563ffffffff1660e01b8152600401611d409493929190612a3f565b602060405180830381600087803b158015611d5a57600080fd5b505af1925050508015611d8b57506040513d601f19601f82011682018060405250810190611d8891906125aa565b60015b611e0e573d8060008114611dbb576040519150601f19603f3d011682016040523d82523d6000602084013e611dc0565b606091505b50600081511415611e06576040517f08c379a0000000000000000000000000000000000000000000000000000000008152600401611dfd90612ac8565b60405180910390fd5b805181602001fd5b63150b7a0260e01b7bffffffffffffffffffffffffffffffffffffffffffffffffffffffff1916817bffffffffffffffffffffffffffffffffffffffffffffffffffffffff191614915050611e63565b600190505b949350505050565b60606000821415611eb3576040518060400160405280600181526020017f30000000000000000000000000000000000000000000000000000000000000008152509050612013565b600082905060005b60008214611ee5578080611ece9061305b565b915050600a82611ede9190612e83565b9150611ebb565b60008167ffffffffffffffff811115611f27577f4e487b7100000000000000000000000000000000000000000000000000000000600052604160045260246000fd5b6040519080825280601f01601f191660200182016040528015611f595781602001600182028036833780820191505090505b5090505b6000851461200c57600182611f729190612f0e565b9150600a85611f8191906130a4565b6030611f8d9190612e2d565b60f81b818381518110611fc9577f4e487b7100000000000000000000000000000000000000000000000000000000600052603260045260246000fd5b60200101907effffffffffffffffffffffffffffffffffffffffffffffffffffffffffffff1916908160001a905350600a856120059190612e83565b9450611f5d565b8093505050505b919050565b505050565b600073ffffffffffffffffffffffffffffffffffffffff168273ffffffffffffffffffffffffffffffffffffffff16141561208d576040517f08c379a000000000000000000000000000000000000000000000000000000000815260040161208490612c08565b60405180910390fd5b612096816114bf565b156120d6576040517f08c379a00000000000000000000000000000000000000000000000000000000081526004016120cd90612b08565b60405180910390fd5b6120e260008383611bc3565b6001600360008473ffffffffffffffffffffffffffffffffffffffff1673ffffffffffffffffffffffffffffffffffffffff16815260200190815260200160002060008282546121329190612e2d565b92505081905550816002600083815260200190815260200160002060006101000a81548173ffffffffffffffffffffffffffffffffffffffff021916908373ffffffffffffffffffffffffffffffffffffffff160217905550808273ffffffffffffffffffffffffffffffffffffffff16600073ffffffffffffffffffffffffffffffffffffffff167fddf252ad1be2c89b69c2b068fc378daa952ba7f163c4a11628f55a4df523b3ef60405160405180910390a45050565b600080823b905060008111915050919050565b82805461220a90612ff8565b90600052602060002090601f01602090048101928261222c5760008555612273565b82601f1061224557805160ff1916838001178555612273565b82800160010185558215612273579182015b82811115612272578251825591602001919060010190612257565b5b5090506122809190612284565b5090565b5b8082111561229d576000816000905550600101612285565b5090565b60006122b46122af84612d88565b612d63565b9050828152602081018484840111156122cc57600080fd5b6122d7848285612fb6565b509392505050565b60006122f26122ed84612db9565b612d63565b90508281526020810184848401111561230a57600080fd5b612315848285612fb6565b509392505050565b60008135905061232c81613710565b92915050565b60008135905061234181613727565b92915050565b6000813590506123568161373e565b92915050565b60008151905061236b8161373e565b92915050565b600082601f83011261238257600080fd5b81356123928482602086016122a1565b91505092915050565b600082601f8301126123ac57600080fd5b81356123bc8482602086016122df565b91505092915050565b6000813590506123d481613755565b92915050565b6000602082840312156123ec57600080fd5b60006123fa8482850161231d565b91505092915050565b6000806040838503121561241657600080fd5b60006124248582860161231d565b92505060206124358582860161231d565b9150509250929050565b60008060006060848603121561245457600080fd5b60006124628682870161231d565b93505060206124738682870161231d565b9250506040612484868287016123c5565b9150509250925092565b600080600080608085870312156124a457600080fd5b60006124b28782880161231d565b94505060206124c38782880161231d565b93505060406124d4878288016123c5565b925050606085013567ffffffffffffffff8111156124f157600080fd5b6124fd87828801612371565b91505092959194509250565b6000806040838503121561251c57600080fd5b600061252a8582860161231d565b925050602061253b85828601612332565b9150509250929050565b6000806040838503121561255857600080fd5b60006125668582860161231d565b9250506020612577858286016123c5565b9150509250929050565b60006020828403121561259357600080fd5b60006125a184828501612347565b91505092915050565b6000602082840312156125bc57600080fd5b60006125ca8482850161235c565b91505092915050565b6000602082840312156125e557600080fd5b600082013567ffffffffffffffff8111156125ff57600080fd5b61260b8482850161239b565b91505092915050565b60006020828403121561262657600080fd5b6000612634848285016123c5565b91505092915050565b61264681612f42565b82525050565b61265581612f54565b82525050565b600061266682612dea565b6126708185612e00565b9350612680818560208601612fc5565b61268981613191565b840191505092915050565b600061269f82612df5565b6126a98185612e11565b93506126b9818560208601612fc5565b6126c281613191565b840191505092915050565b60006126d882612df5565b6126e28185612e22565b93506126f2818560208601612fc5565b80840191505092915050565b600061270b603283612e11565b9150612716826131a2565b604082019050919050565b600061272e602683612e11565b9150612739826131f1565b604082019050919050565b6000612751601c83612e11565b915061275c82613240565b602082019050919050565b6000612774602483612e11565b915061277f82613269565b604082019050919050565b6000612797601983612e11565b91506127a2826132b8565b602082019050919050565b60006127ba602c83612e11565b91506127c5826132e1565b604082019050919050565b60006127dd603883612e11565b91506127e882613330565b604082019050919050565b6000612800602a83612e11565b915061280b8261337f565b604082019050919050565b6000612823602983612e11565b915061282e826133ce565b604082019050919050565b6000612846602e83612e11565b91506128518261341d565b604082019050919050565b6000612869602083612e11565b91506128748261346c565b602082019050919050565b600061288c603183612e11565b915061289782613495565b604082019050919050565b60006128af602c83612e11565b91506128ba826134e4565b604082019050919050565b60006128d2602083612e11565b91506128dd82613533565b602082019050919050565b60006128f5602983612e11565b91506129008261355c565b604082019050919050565b6000612918601683612e11565b9150612923826135ab565b602082019050919050565b600061293b602f83612e11565b9150612946826135d4565b604082019050919050565b600061295e602183612e11565b915061296982613623565b604082019050919050565b6000612981602e83612e11565b915061298c82613672565b604082019050919050565b60006129a4603183612e11565b91506129af826136c1565b604082019050919050565b6129c381612fac565b82525050565b60006129d582856126cd565b91506129e182846126cd565b91508190509392505050565b6000602082019050612a02600083018461263d565b92915050565b6000606082019050612a1d600083018661263d565b612a2a602083018561263d565b612a3760408301846129ba565b949350505050565b6000608082019050612a54600083018761263d565b612a61602083018661263d565b612a6e60408301856129ba565b8181036060830152612a80818461265b565b905095945050505050565b6000602082019050612aa0600083018461264c565b92915050565b60006020820190508181036000830152612ac08184612694565b905092915050565b60006020820190508181036000830152612ae1816126fe565b9050919050565b60006020820190508181036000830152612b0181612721565b9050919050565b60006020820190508181036000830152612b2181612744565b9050919050565b60006020820190508181036000830152612b4181612767565b9050919050565b60006020820190508181036000830152612b618161278a565b9050919050565b60006020820190508181036000830152612b81816127ad565b9050919050565b60006020820190508181036000830152612ba1816127d0565b9050919050565b60006020820190508181036000830152612bc1816127f3565b9050919050565b60006020820190508181036000830152612be181612816565b9050919050565b60006020820190508181036000830152612c0181612839565b9050919050565b60006020820190508181036000830152612c218161285c565b9050919050565b60006020820190508181036000830152612c418161287f565b9050919050565b60006020820190508181036000830152612c61816128a2565b9050919050565b60006020820190508181036000830152612c81816128c5565b9050919050565b60006020820190508181036000830152612ca1816128e8565b9050919050565b60006020820190508181036000830152612cc18161290b565b9050919050565b60006020820190508181036000830152612ce18161292e565b9050919050565b60006020820190508181036000830152612d0181612951565b9050919050565b60006020820190508181036000830152612d2181612974565b9050919050565b60006020820190508181036000830152612d4181612997565b9050919050565b6000602082019050612d5d60008301846129ba565b92915050565b6000612d6d612d7e565b9050612d79828261302a565b919050565b6000604051905090565b600067ffffffffffffffff821115612da357612da2613162565b5b612dac82613191565b9050602081019050919050565b600067ffffffffffffffff821115612dd457612dd3613162565b5b612ddd82613191565b9050602081019050919050565b600081519050919050565b600081519050919050565b600082825260208201905092915050565b600082825260208201905092915050565b600081905092915050565b6000612e3882612fac565b9150612e4383612fac565b9250827fffffffffffffffffffffffffffffffffffffffffffffffffffffffffffffffff03821115612e7857612e776130d5565b5b828201905092915050565b6000612e8e82612fac565b9150612e9983612fac565b925082612ea957612ea8613104565b5b828204905092915050565b6000612ebf82612fac565b9150612eca83612fac565b9250817fffffffffffffffffffffffffffffffffffffffffffffffffffffffffffffffff0483118215151615612f0357612f026130d5565b5b828202905092915050565b6000612f1982612fac565b9150612f2483612fac565b925082821015612f3757612f366130d5565b5b828203905092915050565b6000612f4d82612f8c565b9050919050565b60008115159050919050565b60007fffffffff0000000000000000000000000000000000000000000000000000000082169050919050565b600073ffffffffffffffffffffffffffffffffffffffff82169050919050565b6000819050919050565b82818337600083830152505050565b60005b83811015612fe3578082015181840152602081019050612fc8565b83811115612ff2576000848401525b50505050565b6000600282049050600182168061301057607f821691505b6020821081141561302457613023613133565b5b50919050565b61303382613191565b810181811067ffffffffffffffff8211171561305257613051613162565b5b80604052505050565b600061306682612fac565b91507fffffffffffffffffffffffffffffffffffffffffffffffffffffffffffffffff821415613099576130986130d5565b5b600182019050919050565b60006130af82612fac565b91506130ba83612fac565b9250826130ca576130c9613104565b5b828206905092915050565b7f4e487b7100000000000000000000000000000000000000000000000000000000600052601160045260246000fd5b7f4e487b7100000000000000000000000000000000000000000000000000000000600052601260045260246000fd5b7f4e487b7100000000000000000000000000000000000000000000000000000000600052602260045260246000fd5b7f4e487b7100000000000000000000000000000000000000000000000000000000600052604160045260246000fd5b6000601f19601f8301169050919050565b7f4552433732313a207472616e7366657220746f206e6f6e20455243373231526560008201527f63656976657220696d706c656d656e7465720000000000000000000000000000602082015250565b7f4f776e61626c653a206e6577206f776e657220697320746865207a65726f206160008201527f6464726573730000000000000000000000000000000000000000000000000000602082015250565b7f4552433732313a20746f6b656e20616c7265616479206d696e74656400000000600082015250565b7f4552433732313a207472616e7366657220746f20746865207a65726f2061646460008201527f7265737300000000000000000000000000000000000000000000000000000000602082015250565b7f4552433732313a20617070726f766520746f2063616c6c657200000000000000600082015250565b7f4552433732313a206f70657261746f7220717565727920666f72206e6f6e657860008201527f697374656e7420746f6b656e0000000000000000000000000000000000000000602082015250565b7f4552433732313a20617070726f76652063616c6c6572206973206e6f74206f7760008201527f6e6572206e6f7220617070726f76656420666f7220616c6c0000000000000000602082015250565b7f4552433732313a2062616c616e636520717565727920666f7220746865207a6560008201527f726f206164647265737300000000000000000000000000000000000000000000602082015250565b7f4552433732313a206f776e657220717565727920666f72206e6f6e657869737460008201527f656e7420746f6b656e0000000000000000000000000000000000000000000000602082015250565b7f45524337323155524953746f726167653a2055524920736574206f66206e6f6e60008201527f6578697374656e7420746f6b656e000000000000000000000000000000000000602082015250565b7f4552433732313a206d696e7420746f20746865207a65726f2061646472657373600082015250565b7f45524337323155524953746f726167653a2055524920717565727920666f722060008201527f6e6f6e6578697374656e7420746f6b656e000000000000000000000000000000602082015250565b7f4552433732313a20617070726f76656420717565727920666f72206e6f6e657860008201527f697374656e7420746f6b656e0000000000000000000000000000000000000000602082015250565b7f4f776e61626c653a2063616c6c6572206973206e6f7420746865206f776e6572600082015250565b7f4552433732313a207472616e73666572206f6620746f6b656e2074686174206960008201527f73206e6f74206f776e0000000000000000000000000000000000000000000000602082015250565b7f416c7265616479206d696e746564207469636b65747300000000000000000000600082015250565b7f4552433732314d657461646174613a2055524920717565727920666f72206e6f60008201527f6e6578697374656e7420746f6b656e0000000000000000000000000000000000602082015250565b7f4552433732313a20617070726f76616c20746f2063757272656e74206f776e6560008201527f7200000000000000000000000000000000000000000000000000000000000000602082015250565b7f4e6f6e5472616e736665727261626c65455243373231546f6b656e3a206e6f6e60008201527f207472616e736665727261626c65000000000000000000000000000000000000602082015250565b7f4552433732313a207472616e736665722063616c6c6572206973206e6f74206f60008201527f776e6572206e6f7220617070726f766564000000000000000000000000000000602082015250565b61371981612f42565b811461372457600080fd5b50565b61373081612f54565b811461373b57600080fd5b50565b61374781612f60565b811461375257600080fd5b50565b61375e81612fac565b811461376957600080fd5b5056fea2646970667358221220c0d0d391d5745fd44fbbdbf9304073fd9b52e35cbb19ea95df48c84b7724829964736f6c63430008040033",
    "linkReferences": {},
    "deployedLinkReferences": {}
}