{
  "_format": "hh-sol-artifact-1",
  "contractName": "Metapass",
  "sourceName": "contracts/Metapass.sol",
  "abi": [
    {
      "inputs": [
        {
          "internalType": "uint256",
          "name": "_cutNum",
          "type": "uint256"
        },
        {
          "internalType": "uint256",
          "name": "_cutDen",
          "type": "uint256"
        },
        {
          "internalType": "address",
          "name": "_owner",
          "type": "address"
        },
        {
          "internalType": "uint256",
          "name": "_cost",
          "type": "uint256"
        },
        {
          "internalType": "address",
          "name": "_storageProxy",
          "type": "address"
        }
      ],
      "stateMutability": "nonpayable",
      "type": "constructor"
    },
    {
      "anonymous": false,
      "inputs": [
        {
          "indexed": true,
          "internalType": "address",
          "name": "owner",
          "type": "address"
        },
        {
          "indexed": true,
          "internalType": "address",
          "name": "approved",
          "type": "address"
        },
        {
          "indexed": true,
          "internalType": "uint256",
          "name": "tokenId",
          "type": "uint256"
        }
      ],
      "name": "Approval",
      "type": "event"
    },
    {
      "anonymous": false,
      "inputs": [
        {
          "indexed": true,
          "internalType": "address",
          "name": "owner",
          "type": "address"
        },
        {
          "indexed": true,
          "internalType": "address",
          "name": "operator",
          "type": "address"
        },
        {
          "indexed": false,
          "internalType": "bool",
          "name": "approved",
          "type": "bool"
        }
      ],
      "name": "ApprovalForAll",
      "type": "event"
    },
    {
      "anonymous": false,
      "inputs": [
        {
          "indexed": false,
          "internalType": "uint256",
          "name": "tokenID",
          "type": "uint256"
        }
      ],
      "name": "Minted",
      "type": "event"
    },
    {
      "anonymous": false,
      "inputs": [
        {
          "indexed": true,
          "internalType": "address",
          "name": "previousOwner",
          "type": "address"
        },
        {
          "indexed": true,
          "internalType": "address",
          "name": "newOwner",
          "type": "address"
        }
      ],
      "name": "OwnershipTransferred",
      "type": "event"
    },
    {
      "anonymous": false,
      "inputs": [
        {
          "indexed": true,
          "internalType": "address",
          "name": "from",
          "type": "address"
        },
        {
          "indexed": true,
          "internalType": "address",
          "name": "to",
          "type": "address"
        },
        {
          "indexed": true,
          "internalType": "uint256",
          "name": "tokenId",
          "type": "uint256"
        }
      ],
      "name": "Transfer",
      "type": "event"
    },
    {
      "inputs": [
        {
          "internalType": "address",
          "name": "to",
          "type": "address"
        },
        {
          "internalType": "uint256",
          "name": "tokenId",
          "type": "uint256"
        }
      ],
      "name": "approve",
      "outputs": [],
      "stateMutability": "nonpayable",
      "type": "function"
    },
    {
      "inputs": [
        {
          "internalType": "address",
          "name": "owner",
          "type": "address"
        }
      ],
      "name": "balanceOf",
      "outputs": [
        {
          "internalType": "uint256",
          "name": "",
          "type": "uint256"
        }
      ],
      "stateMutability": "view",
      "type": "function"
    },
    {
      "inputs": [],
      "name": "cutDenominator",
      "outputs": [
        {
          "internalType": "uint256",
          "name": "",
          "type": "uint256"
        }
      ],
      "stateMutability": "view",
      "type": "function"
    },
    {
      "inputs": [],
      "name": "cutNumerator",
      "outputs": [
        {
          "internalType": "uint256",
          "name": "",
          "type": "uint256"
        }
      ],
      "stateMutability": "view",
      "type": "function"
    },
    {
      "inputs": [],
      "name": "eventHost",
      "outputs": [
        {
          "internalType": "address",
          "name": "",
          "type": "address"
        }
      ],
      "stateMutability": "view",
      "type": "function"
    },
    {
      "inputs": [
        {
          "internalType": "uint256",
          "name": "tokenId",
          "type": "uint256"
        }
      ],
      "name": "getApproved",
      "outputs": [
        {
          "internalType": "address",
          "name": "",
          "type": "address"
        }
      ],
      "stateMutability": "view",
      "type": "function"
    },
    {
      "inputs": [],
      "name": "getLastTokenId",
      "outputs": [
        {
          "internalType": "uint256",
          "name": "",
          "type": "uint256"
        }
      ],
      "stateMutability": "view",
      "type": "function"
    },
    {
      "inputs": [
        {
          "internalType": "string",
          "name": "tokenMetadata",
          "type": "string"
        }
      ],
      "name": "getTix",
      "outputs": [],
      "stateMutability": "payable",
      "type": "function"
    },
    {
      "inputs": [
        {
          "internalType": "address",
          "name": "owner",
          "type": "address"
        },
        {
          "internalType": "address",
          "name": "operator",
          "type": "address"
        }
      ],
      "name": "isApprovedForAll",
      "outputs": [
        {
          "internalType": "bool",
          "name": "",
          "type": "bool"
        }
      ],
      "stateMutability": "view",
      "type": "function"
    },
    {
      "inputs": [],
      "name": "name",
      "outputs": [
        {
          "internalType": "string",
          "name": "",
          "type": "string"
        }
      ],
      "stateMutability": "view",
      "type": "function"
    },
    {
      "inputs": [],
      "name": "owner",
      "outputs": [
        {
          "internalType": "address",
          "name": "",
          "type": "address"
        }
      ],
      "stateMutability": "view",
      "type": "function"
    },
    {
      "inputs": [
        {
          "internalType": "uint256",
          "name": "tokenId",
          "type": "uint256"
        }
      ],
      "name": "ownerOf",
      "outputs": [
        {
          "internalType": "address",
          "name": "",
          "type": "address"
        }
      ],
      "stateMutability": "view",
      "type": "function"
    },
    {
      "inputs": [],
      "name": "renounceOwnership",
      "outputs": [],
      "stateMutability": "nonpayable",
      "type": "function"
    },
    {
      "inputs": [
        {
          "internalType": "address",
          "name": "from",
          "type": "address"
        },
        {
          "internalType": "address",
          "name": "to",
          "type": "address"
        },
        {
          "internalType": "uint256",
          "name": "tokenId",
          "type": "uint256"
        }
      ],
      "name": "safeTransferFrom",
      "outputs": [],
      "stateMutability": "nonpayable",
      "type": "function"
    },
    {
      "inputs": [
        {
          "internalType": "address",
          "name": "from",
          "type": "address"
        },
        {
          "internalType": "address",
          "name": "to",
          "type": "address"
        },
        {
          "internalType": "uint256",
          "name": "tokenId",
          "type": "uint256"
        },
        {
          "internalType": "bytes",
          "name": "_data",
          "type": "bytes"
        }
      ],
      "name": "safeTransferFrom",
      "outputs": [],
      "stateMutability": "nonpayable",
      "type": "function"
    },
    {
      "inputs": [
        {
          "internalType": "address",
          "name": "operator",
          "type": "address"
        },
        {
          "internalType": "bool",
          "name": "approved",
          "type": "bool"
        }
      ],
      "name": "setApprovalForAll",
      "outputs": [],
      "stateMutability": "nonpayable",
      "type": "function"
    },
    {
      "inputs": [
        {
          "internalType": "bytes4",
          "name": "interfaceId",
          "type": "bytes4"
        }
      ],
      "name": "supportsInterface",
      "outputs": [
        {
          "internalType": "bool",
          "name": "",
          "type": "bool"
        }
      ],
      "stateMutability": "view",
      "type": "function"
    },
    {
      "inputs": [],
      "name": "symbol",
      "outputs": [
        {
          "internalType": "string",
          "name": "",
          "type": "string"
        }
      ],
      "stateMutability": "view",
      "type": "function"
    },
    {
      "inputs": [
        {
          "internalType": "uint256",
          "name": "tokenId",
          "type": "uint256"
        }
      ],
      "name": "tokenURI",
      "outputs": [
        {
          "internalType": "string",
          "name": "",
          "type": "string"
        }
      ],
      "stateMutability": "view",
      "type": "function"
    },
    {
      "inputs": [
        {
          "internalType": "address",
          "name": "from",
          "type": "address"
        },
        {
          "internalType": "address",
          "name": "to",
          "type": "address"
        },
        {
          "internalType": "uint256",
          "name": "tokenId",
          "type": "uint256"
        }
      ],
      "name": "transferFrom",
      "outputs": [],
      "stateMutability": "nonpayable",
      "type": "function"
    },
    {
      "inputs": [
        {
          "internalType": "address",
          "name": "newOwner",
          "type": "address"
        }
      ],
      "name": "transferOwnership",
      "outputs": [],
      "stateMutability": "nonpayable",
      "type": "function"
    }
  ],
  "bytecode": "0x6080604052600060085560646009553480156200001b57600080fd5b50604051620038613803806200386183398181016040528101906200004191906200034f565b6040518060400160405280600f81526020017f4d657461706173735469636b65747300000000000000000000000000000000008152506040518060400160405280600881526020017f4d455441504153530000000000000000000000000000000000000000000000008152508160009080519060200190620000c592919062000271565b508060019080519060200190620000de92919062000271565b50505062000101620000f5620001a360201b60201c565b620001ab60201b60201c565b846008819055508360098190555081600c8190555082600b60006101000a81548173ffffffffffffffffffffffffffffffffffffffff021916908373ffffffffffffffffffffffffffffffffffffffff16021790555080600d60006101000a81548173ffffffffffffffffffffffffffffffffffffffff021916908373ffffffffffffffffffffffffffffffffffffffff1602179055505050505050620004a8565b600033905090565b6000600760009054906101000a900473ffffffffffffffffffffffffffffffffffffffff16905081600760006101000a81548173ffffffffffffffffffffffffffffffffffffffff021916908373ffffffffffffffffffffffffffffffffffffffff1602179055508173ffffffffffffffffffffffffffffffffffffffff168173ffffffffffffffffffffffffffffffffffffffff167f8be0079c531659141344cd1fd0a4f28419497f9722a3daafe3b4186f6b6457e060405160405180910390a35050565b8280546200027f906200040f565b90600052602060002090601f016020900481019282620002a35760008555620002ef565b82601f10620002be57805160ff1916838001178555620002ef565b82800160010185558215620002ef579182015b82811115620002ee578251825591602001919060010190620002d1565b5b509050620002fe919062000302565b5090565b5b808211156200031d57600081600090555060010162000303565b5090565b600081519050620003328162000474565b92915050565b60008151905062000349816200048e565b92915050565b600080600080600060a086880312156200036857600080fd5b6000620003788882890162000338565b95505060206200038b8882890162000338565b94505060406200039e8882890162000321565b9350506060620003b18882890162000338565b9250506080620003c48882890162000321565b9150509295509295909350565b6000620003de82620003e5565b9050919050565b600073ffffffffffffffffffffffffffffffffffffffff82169050919050565b6000819050919050565b600060028204905060018216806200042857607f821691505b602082108114156200043f576200043e62000445565b5b50919050565b7f4e487b7100000000000000000000000000000000000000000000000000000000600052602260045260246000fd5b6200047f81620003d1565b81146200048b57600080fd5b50565b620004998162000405565b8114620004a557600080fd5b50565b6133a980620004b86000396000f3fe60806040526004361061012a5760003560e01c8063715018a6116100ab578063a22cb4651161006f578063a22cb465146103d3578063abf0f573146103fc578063b88d4fde14610427578063c87b56dd14610450578063e985e9c51461048d578063f2fde38b146104ca5761012a565b8063715018a61461031f57806383c4c00d1461033657806387ab7517146103615780638da5cb5b1461037d57806395d89b41146103a85761012a565b806322e8f845116100f257806322e8f8451461022857806323b872dd1461025357806342842e0e1461027c5780636352211e146102a557806370a08231146102e25761012a565b806301ffc9a71461012f57806306fdde031461016c578063081812fc14610197578063089eb32d146101d4578063095ea7b3146101ff575b600080fd5b34801561013b57600080fd5b5061015660048036038101906101519190612294565b6104f3565b604051610163919061274a565b60405180910390f35b34801561017857600080fd5b506101816105d5565b60405161018e9190612765565b60405180910390f35b3480156101a357600080fd5b506101be60048036038101906101b99190612327565b610667565b6040516101cb91906126ba565b60405180910390f35b3480156101e057600080fd5b506101e96106ec565b6040516101f691906129c7565b60405180910390f35b34801561020b57600080fd5b5061022660048036038101906102219190612258565b6106f2565b005b34801561023457600080fd5b5061023d61080a565b60405161024a91906126ba565b60405180910390f35b34801561025f57600080fd5b5061027a60048036038101906102759190612152565b610830565b005b34801561028857600080fd5b506102a3600480360381019061029e9190612152565b610890565b005b3480156102b157600080fd5b506102cc60048036038101906102c79190612327565b6108b0565b6040516102d991906126ba565b60405180910390f35b3480156102ee57600080fd5b50610309600480360381019061030491906120ed565b610962565b60405161031691906129c7565b60405180910390f35b34801561032b57600080fd5b50610334610a1a565b005b34801561034257600080fd5b5061034b610aa2565b60405161035891906129c7565b60405180910390f35b61037b600480360381019061037691906122e6565b610abf565b005b34801561038957600080fd5b50610392610ca2565b60405161039f91906126ba565b60405180910390f35b3480156103b457600080fd5b506103bd610ccc565b6040516103ca9190612765565b60405180910390f35b3480156103df57600080fd5b506103fa60048036038101906103f5919061221c565b610d5e565b005b34801561040857600080fd5b50610411610edf565b60405161041e91906129c7565b60405180910390f35b34801561043357600080fd5b5061044e600480360381019061044991906121a1565b610ee5565b005b34801561045c57600080fd5b5061047760048036038101906104729190612327565b610f47565b6040516104849190612765565b60405180910390f35b34801561049957600080fd5b506104b460048036038101906104af9190612116565b611099565b6040516104c1919061274a565b60405180910390f35b3480156104d657600080fd5b506104f160048036038101906104ec91906120ed565b61112d565b005b60007f80ac58cd000000000000000000000000000000000000000000000000000000007bffffffffffffffffffffffffffffffffffffffffffffffffffffffff1916827bffffffffffffffffffffffffffffffffffffffffffffffffffffffff191614806105be57507f5b5e139f000000000000000000000000000000000000000000000000000000007bffffffffffffffffffffffffffffffffffffffffffffffffffffffff1916827bffffffffffffffffffffffffffffffffffffffffffffffffffffffff1916145b806105ce57506105cd82611225565b5b9050919050565b6060600080546105e490612c77565b80601f016020809104026020016040519081016040528092919081815260200182805461061090612c77565b801561065d5780601f106106325761010080835404028352916020019161065d565b820191906000526020600020905b81548152906001019060200180831161064057829003601f168201915b5050505050905090565b60006106728261128f565b6106b1576040517f08c379a00000000000000000000000000000000000000000000000000000000081526004016106a890612907565b60405180910390fd5b6004600083815260200190815260200160002060009054906101000a900473ffffffffffffffffffffffffffffffffffffffff169050919050565b60095481565b60006106fd826108b0565b90508073ffffffffffffffffffffffffffffffffffffffff168373ffffffffffffffffffffffffffffffffffffffff16141561076e576040517f08c379a000000000000000000000000000000000000000000000000000000000815260040161076590612987565b60405180910390fd5b8073ffffffffffffffffffffffffffffffffffffffff1661078d6112fb565b73ffffffffffffffffffffffffffffffffffffffff1614806107bc57506107bb816107b66112fb565b611099565b5b6107fb576040517f08c379a00000000000000000000000000000000000000000000000000000000081526004016107f290612847565b60405180910390fd5b6108058383611303565b505050565b600b60009054906101000a900473ffffffffffffffffffffffffffffffffffffffff1681565b61084161083b6112fb565b826113bc565b610880576040517f08c379a0000000000000000000000000000000000000000000000000000000008152600401610877906129a7565b60405180910390fd5b61088b83838361149a565b505050565b6108ab83838360405180602001604052806000815250610ee5565b505050565b6000806002600084815260200190815260200160002060009054906101000a900473ffffffffffffffffffffffffffffffffffffffff169050600073ffffffffffffffffffffffffffffffffffffffff168173ffffffffffffffffffffffffffffffffffffffff161415610959576040517f08c379a000000000000000000000000000000000000000000000000000000000815260040161095090612887565b60405180910390fd5b80915050919050565b60008073ffffffffffffffffffffffffffffffffffffffff168273ffffffffffffffffffffffffffffffffffffffff1614156109d3576040517f08c379a00000000000000000000000000000000000000000000000000000000081526004016109ca90612867565b60405180910390fd5b600360008373ffffffffffffffffffffffffffffffffffffffff1673ffffffffffffffffffffffffffffffffffffffff168152602001908152602001600020549050919050565b610a226112fb565b73ffffffffffffffffffffffffffffffffffffffff16610a40610ca2565b73ffffffffffffffffffffffffffffffffffffffff1614610a96576040517f08c379a0000000000000000000000000000000000000000000000000000000008152600401610a8d90612927565b60405180910390fd5b610aa060006116f6565b565b60006001610ab0600a6117bc565b610aba9190612b8d565b905090565b610ad233610acd600a6117bc565b6117ca565b610ae5610adf600a6117bc565b826117e8565b7f176b02bb2d12439ff7a20b59f402cca16c76f50508b13ef3166a600eb719354a610b10600a6117bc565b604051610b1d91906129c7565b60405180910390a1610b2f600a61185c565b600060095460085434610b429190612b33565b610b4c9190612b02565b90506000811115610ba657610b5f610ca2565b73ffffffffffffffffffffffffffffffffffffffff166108fc829081150290604051600060405180830381858888f19350505050158015610ba4573d6000803e3d6000fd5b505b600b60009054906101000a900473ffffffffffffffffffffffffffffffffffffffff1673ffffffffffffffffffffffffffffffffffffffff166108fc479081150290604051600060405180830381858888f19350505050158015610c0e573d6000803e3d6000fd5b50600d60009054906101000a900473ffffffffffffffffffffffffffffffffffffffff1673ffffffffffffffffffffffffffffffffffffffff166397c996a330336040518363ffffffff1660e01b8152600401610c6c9291906126d5565b600060405180830381600087803b158015610c8657600080fd5b505af1158015610c9a573d6000803e3d6000fd5b505050505050565b6000600760009054906101000a900473ffffffffffffffffffffffffffffffffffffffff16905090565b606060018054610cdb90612c77565b80601f0160208091040260200160405190810160405280929190818152602001828054610d0790612c77565b8015610d545780601f10610d2957610100808354040283529160200191610d54565b820191906000526020600020905b815481529060010190602001808311610d3757829003601f168201915b5050505050905090565b610d666112fb565b73ffffffffffffffffffffffffffffffffffffffff168273ffffffffffffffffffffffffffffffffffffffff161415610dd4576040517f08c379a0000000000000000000000000000000000000000000000000000000008152600401610dcb90612807565b60405180910390fd5b8060056000610de16112fb565b73ffffffffffffffffffffffffffffffffffffffff1673ffffffffffffffffffffffffffffffffffffffff16815260200190815260200160002060008473ffffffffffffffffffffffffffffffffffffffff1673ffffffffffffffffffffffffffffffffffffffff16815260200190815260200160002060006101000a81548160ff0219169083151502179055508173ffffffffffffffffffffffffffffffffffffffff16610e8e6112fb565b73ffffffffffffffffffffffffffffffffffffffff167f17307eab39ab6107e8899845ad3d59bd9653f200f220920489ca2b5937696c3183604051610ed3919061274a565b60405180910390a35050565b60085481565b610ef6610ef06112fb565b836113bc565b610f35576040517f08c379a0000000000000000000000000000000000000000000000000000000008152600401610f2c906129a7565b60405180910390fd5b610f4184848484611872565b50505050565b6060610f528261128f565b610f91576040517f08c379a0000000000000000000000000000000000000000000000000000000008152600401610f88906128e7565b60405180910390fd5b6000600660008481526020019081526020016000208054610fb190612c77565b80601f0160208091040260200160405190810160405280929190818152602001828054610fdd90612c77565b801561102a5780601f10610fff5761010080835404028352916020019161102a565b820191906000526020600020905b81548152906001019060200180831161100d57829003601f168201915b50505050509050600061103b6118ce565b9050600081511415611051578192505050611094565b60008251111561108657808260405160200161106e929190612696565b60405160208183030381529060405292505050611094565b61108f846118e5565b925050505b919050565b6000600560008473ffffffffffffffffffffffffffffffffffffffff1673ffffffffffffffffffffffffffffffffffffffff16815260200190815260200160002060008373ffffffffffffffffffffffffffffffffffffffff1673ffffffffffffffffffffffffffffffffffffffff16815260200190815260200160002060009054906101000a900460ff16905092915050565b6111356112fb565b73ffffffffffffffffffffffffffffffffffffffff16611153610ca2565b73ffffffffffffffffffffffffffffffffffffffff16146111a9576040517f08c379a00000000000000000000000000000000000000000000000000000000081526004016111a090612927565b60405180910390fd5b600073ffffffffffffffffffffffffffffffffffffffff168173ffffffffffffffffffffffffffffffffffffffff161415611219576040517f08c379a0000000000000000000000000000000000000000000000000000000008152600401611210906127a7565b60405180910390fd5b611222816116f6565b50565b60007f01ffc9a7000000000000000000000000000000000000000000000000000000007bffffffffffffffffffffffffffffffffffffffffffffffffffffffff1916827bffffffffffffffffffffffffffffffffffffffffffffffffffffffff1916149050919050565b60008073ffffffffffffffffffffffffffffffffffffffff166002600084815260200190815260200160002060009054906101000a900473ffffffffffffffffffffffffffffffffffffffff1673ffffffffffffffffffffffffffffffffffffffff1614159050919050565b600033905090565b816004600083815260200190815260200160002060006101000a81548173ffffffffffffffffffffffffffffffffffffffff021916908373ffffffffffffffffffffffffffffffffffffffff160217905550808273ffffffffffffffffffffffffffffffffffffffff16611376836108b0565b73ffffffffffffffffffffffffffffffffffffffff167f8c5be1e5ebec7d5bd14f71427d1e84f3dd0314c0f7b2291e5b200ac8c7c3b92560405160405180910390a45050565b60006113c78261128f565b611406576040517f08c379a00000000000000000000000000000000000000000000000000000000081526004016113fd90612827565b60405180910390fd5b6000611411836108b0565b90508073ffffffffffffffffffffffffffffffffffffffff168473ffffffffffffffffffffffffffffffffffffffff16148061148057508373ffffffffffffffffffffffffffffffffffffffff1661146884610667565b73ffffffffffffffffffffffffffffffffffffffff16145b8061149157506114908185611099565b5b91505092915050565b8273ffffffffffffffffffffffffffffffffffffffff166114ba826108b0565b73ffffffffffffffffffffffffffffffffffffffff1614611510576040517f08c379a000000000000000000000000000000000000000000000000000000000815260040161150790612947565b60405180910390fd5b600073ffffffffffffffffffffffffffffffffffffffff168273ffffffffffffffffffffffffffffffffffffffff161415611580576040517f08c379a0000000000000000000000000000000000000000000000000000000008152600401611577906127e7565b60405180910390fd5b61158b83838361198c565b611596600082611303565b6001600360008573ffffffffffffffffffffffffffffffffffffffff1673ffffffffffffffffffffffffffffffffffffffff16815260200190815260200160002060008282546115e69190612b8d565b925050819055506001600360008473ffffffffffffffffffffffffffffffffffffffff1673ffffffffffffffffffffffffffffffffffffffff168152602001908152602001600020600082825461163d9190612aac565b92505081905550816002600083815260200190815260200160002060006101000a81548173ffffffffffffffffffffffffffffffffffffffff021916908373ffffffffffffffffffffffffffffffffffffffff160217905550808273ffffffffffffffffffffffffffffffffffffffff168473ffffffffffffffffffffffffffffffffffffffff167fddf252ad1be2c89b69c2b068fc378daa952ba7f163c4a11628f55a4df523b3ef60405160405180910390a4505050565b6000600760009054906101000a900473ffffffffffffffffffffffffffffffffffffffff16905081600760006101000a81548173ffffffffffffffffffffffffffffffffffffffff021916908373ffffffffffffffffffffffffffffffffffffffff1602179055508173ffffffffffffffffffffffffffffffffffffffff168173ffffffffffffffffffffffffffffffffffffffff167f8be0079c531659141344cd1fd0a4f28419497f9722a3daafe3b4186f6b6457e060405160405180910390a35050565b600081600001549050919050565b6117e4828260405180602001604052806000815250611991565b5050565b6117f18261128f565b611830576040517f08c379a0000000000000000000000000000000000000000000000000000000008152600401611827906128a7565b60405180910390fd5b80600660008481526020019081526020016000209080519060200190611857929190611f11565b505050565b6001816000016000828254019250508190555050565b61187d84848461149a565b611889848484846119ec565b6118c8576040517f08c379a00000000000000000000000000000000000000000000000000000000081526004016118bf90612787565b60405180910390fd5b50505050565b606060405180602001604052806000815250905090565b60606118f08261128f565b61192f576040517f08c379a000000000000000000000000000000000000000000000000000000000815260040161192690612967565b60405180910390fd5b60006119396118ce565b905060008151116119595760405180602001604052806000815250611984565b8061196384611b83565b604051602001611974929190612696565b6040516020818303038152906040525b915050919050565b505050565b61199b8383611d30565b6119a860008484846119ec565b6119e7576040517f08c379a00000000000000000000000000000000000000000000000000000000081526004016119de90612787565b60405180910390fd5b505050565b6000611a0d8473ffffffffffffffffffffffffffffffffffffffff16611efe565b15611b76578373ffffffffffffffffffffffffffffffffffffffff1663150b7a02611a366112fb565b8786866040518563ffffffff1660e01b8152600401611a5894939291906126fe565b602060405180830381600087803b158015611a7257600080fd5b505af1925050508015611aa357506040513d601f19601f82011682018060405250810190611aa091906122bd565b60015b611b26573d8060008114611ad3576040519150601f19603f3d011682016040523d82523d6000602084013e611ad8565b606091505b50600081511415611b1e576040517f08c379a0000000000000000000000000000000000000000000000000000000008152600401611b1590612787565b60405180910390fd5b805181602001fd5b63150b7a0260e01b7bffffffffffffffffffffffffffffffffffffffffffffffffffffffff1916817bffffffffffffffffffffffffffffffffffffffffffffffffffffffff191614915050611b7b565b600190505b949350505050565b60606000821415611bcb576040518060400160405280600181526020017f30000000000000000000000000000000000000000000000000000000000000008152509050611d2b565b600082905060005b60008214611bfd578080611be690612cda565b915050600a82611bf69190612b02565b9150611bd3565b60008167ffffffffffffffff811115611c3f577f4e487b7100000000000000000000000000000000000000000000000000000000600052604160045260246000fd5b6040519080825280601f01601f191660200182016040528015611c715781602001600182028036833780820191505090505b5090505b60008514611d2457600182611c8a9190612b8d565b9150600a85611c999190612d23565b6030611ca59190612aac565b60f81b818381518110611ce1577f4e487b7100000000000000000000000000000000000000000000000000000000600052603260045260246000fd5b60200101907effffffffffffffffffffffffffffffffffffffffffffffffffffffffffffff1916908160001a905350600a85611d1d9190612b02565b9450611c75565b8093505050505b919050565b600073ffffffffffffffffffffffffffffffffffffffff168273ffffffffffffffffffffffffffffffffffffffff161415611da0576040517f08c379a0000000000000000000000000000000000000000000000000000000008152600401611d97906128c7565b60405180910390fd5b611da98161128f565b15611de9576040517f08c379a0000000000000000000000000000000000000000000000000000000008152600401611de0906127c7565b60405180910390fd5b611df56000838361198c565b6001600360008473ffffffffffffffffffffffffffffffffffffffff1673ffffffffffffffffffffffffffffffffffffffff1681526020019081526020016000206000828254611e459190612aac565b92505081905550816002600083815260200190815260200160002060006101000a81548173ffffffffffffffffffffffffffffffffffffffff021916908373ffffffffffffffffffffffffffffffffffffffff160217905550808273ffffffffffffffffffffffffffffffffffffffff16600073ffffffffffffffffffffffffffffffffffffffff167fddf252ad1be2c89b69c2b068fc378daa952ba7f163c4a11628f55a4df523b3ef60405160405180910390a45050565b600080823b905060008111915050919050565b828054611f1d90612c77565b90600052602060002090601f016020900481019282611f3f5760008555611f86565b82601f10611f5857805160ff1916838001178555611f86565b82800160010185558215611f86579182015b82811115611f85578251825591602001919060010190611f6a565b5b509050611f939190611f97565b5090565b5b80821115611fb0576000816000905550600101611f98565b5090565b6000611fc7611fc284612a07565b6129e2565b905082815260208101848484011115611fdf57600080fd5b611fea848285612c35565b509392505050565b600061200561200084612a38565b6129e2565b90508281526020810184848401111561201d57600080fd5b612028848285612c35565b509392505050565b60008135905061203f81613317565b92915050565b6000813590506120548161332e565b92915050565b60008135905061206981613345565b92915050565b60008151905061207e81613345565b92915050565b600082601f83011261209557600080fd5b81356120a5848260208601611fb4565b91505092915050565b600082601f8301126120bf57600080fd5b81356120cf848260208601611ff2565b91505092915050565b6000813590506120e78161335c565b92915050565b6000602082840312156120ff57600080fd5b600061210d84828501612030565b91505092915050565b6000806040838503121561212957600080fd5b600061213785828601612030565b925050602061214885828601612030565b9150509250929050565b60008060006060848603121561216757600080fd5b600061217586828701612030565b935050602061218686828701612030565b9250506040612197868287016120d8565b9150509250925092565b600080600080608085870312156121b757600080fd5b60006121c587828801612030565b94505060206121d687828801612030565b93505060406121e7878288016120d8565b925050606085013567ffffffffffffffff81111561220457600080fd5b61221087828801612084565b91505092959194509250565b6000806040838503121561222f57600080fd5b600061223d85828601612030565b925050602061224e85828601612045565b9150509250929050565b6000806040838503121561226b57600080fd5b600061227985828601612030565b925050602061228a858286016120d8565b9150509250929050565b6000602082840312156122a657600080fd5b60006122b48482850161205a565b91505092915050565b6000602082840312156122cf57600080fd5b60006122dd8482850161206f565b91505092915050565b6000602082840312156122f857600080fd5b600082013567ffffffffffffffff81111561231257600080fd5b61231e848285016120ae565b91505092915050565b60006020828403121561233957600080fd5b6000612347848285016120d8565b91505092915050565b61235981612bc1565b82525050565b61236881612bd3565b82525050565b600061237982612a69565b6123838185612a7f565b9350612393818560208601612c44565b61239c81612e10565b840191505092915050565b60006123b282612a74565b6123bc8185612a90565b93506123cc818560208601612c44565b6123d581612e10565b840191505092915050565b60006123eb82612a74565b6123f58185612aa1565b9350612405818560208601612c44565b80840191505092915050565b600061241e603283612a90565b915061242982612e21565b604082019050919050565b6000612441602683612a90565b915061244c82612e70565b604082019050919050565b6000612464601c83612a90565b915061246f82612ebf565b602082019050919050565b6000612487602483612a90565b915061249282612ee8565b604082019050919050565b60006124aa601983612a90565b91506124b582612f37565b602082019050919050565b60006124cd602c83612a90565b91506124d882612f60565b604082019050919050565b60006124f0603883612a90565b91506124fb82612faf565b604082019050919050565b6000612513602a83612a90565b915061251e82612ffe565b604082019050919050565b6000612536602983612a90565b91506125418261304d565b604082019050919050565b6000612559602e83612a90565b91506125648261309c565b604082019050919050565b600061257c602083612a90565b9150612587826130eb565b602082019050919050565b600061259f603183612a90565b91506125aa82613114565b604082019050919050565b60006125c2602c83612a90565b91506125cd82613163565b604082019050919050565b60006125e5602083612a90565b91506125f0826131b2565b602082019050919050565b6000612608602983612a90565b9150612613826131db565b604082019050919050565b600061262b602f83612a90565b91506126368261322a565b604082019050919050565b600061264e602183612a90565b915061265982613279565b604082019050919050565b6000612671603183612a90565b915061267c826132c8565b604082019050919050565b61269081612c2b565b82525050565b60006126a282856123e0565b91506126ae82846123e0565b91508190509392505050565b60006020820190506126cf6000830184612350565b92915050565b60006040820190506126ea6000830185612350565b6126f76020830184612350565b9392505050565b60006080820190506127136000830187612350565b6127206020830186612350565b61272d6040830185612687565b818103606083015261273f818461236e565b905095945050505050565b600060208201905061275f600083018461235f565b92915050565b6000602082019050818103600083015261277f81846123a7565b905092915050565b600060208201905081810360008301526127a081612411565b9050919050565b600060208201905081810360008301526127c081612434565b9050919050565b600060208201905081810360008301526127e081612457565b9050919050565b600060208201905081810360008301526128008161247a565b9050919050565b600060208201905081810360008301526128208161249d565b9050919050565b60006020820190508181036000830152612840816124c0565b9050919050565b60006020820190508181036000830152612860816124e3565b9050919050565b6000602082019050818103600083015261288081612506565b9050919050565b600060208201905081810360008301526128a081612529565b9050919050565b600060208201905081810360008301526128c08161254c565b9050919050565b600060208201905081810360008301526128e08161256f565b9050919050565b6000602082019050818103600083015261290081612592565b9050919050565b60006020820190508181036000830152612920816125b5565b9050919050565b60006020820190508181036000830152612940816125d8565b9050919050565b60006020820190508181036000830152612960816125fb565b9050919050565b600060208201905081810360008301526129808161261e565b9050919050565b600060208201905081810360008301526129a081612641565b9050919050565b600060208201905081810360008301526129c081612664565b9050919050565b60006020820190506129dc6000830184612687565b92915050565b60006129ec6129fd565b90506129f88282612ca9565b919050565b6000604051905090565b600067ffffffffffffffff821115612a2257612a21612de1565b5b612a2b82612e10565b9050602081019050919050565b600067ffffffffffffffff821115612a5357612a52612de1565b5b612a5c82612e10565b9050602081019050919050565b600081519050919050565b600081519050919050565b600082825260208201905092915050565b600082825260208201905092915050565b600081905092915050565b6000612ab782612c2b565b9150612ac283612c2b565b9250827fffffffffffffffffffffffffffffffffffffffffffffffffffffffffffffffff03821115612af757612af6612d54565b5b828201905092915050565b6000612b0d82612c2b565b9150612b1883612c2b565b925082612b2857612b27612d83565b5b828204905092915050565b6000612b3e82612c2b565b9150612b4983612c2b565b9250817fffffffffffffffffffffffffffffffffffffffffffffffffffffffffffffffff0483118215151615612b8257612b81612d54565b5b828202905092915050565b6000612b9882612c2b565b9150612ba383612c2b565b925082821015612bb657612bb5612d54565b5b828203905092915050565b6000612bcc82612c0b565b9050919050565b60008115159050919050565b60007fffffffff0000000000000000000000000000000000000000000000000000000082169050919050565b600073ffffffffffffffffffffffffffffffffffffffff82169050919050565b6000819050919050565b82818337600083830152505050565b60005b83811015612c62578082015181840152602081019050612c47565b83811115612c71576000848401525b50505050565b60006002820490506001821680612c8f57607f821691505b60208210811415612ca357612ca2612db2565b5b50919050565b612cb282612e10565b810181811067ffffffffffffffff82111715612cd157612cd0612de1565b5b80604052505050565b6000612ce582612c2b565b91507fffffffffffffffffffffffffffffffffffffffffffffffffffffffffffffffff821415612d1857612d17612d54565b5b600182019050919050565b6000612d2e82612c2b565b9150612d3983612c2b565b925082612d4957612d48612d83565b5b828206905092915050565b7f4e487b7100000000000000000000000000000000000000000000000000000000600052601160045260246000fd5b7f4e487b7100000000000000000000000000000000000000000000000000000000600052601260045260246000fd5b7f4e487b7100000000000000000000000000000000000000000000000000000000600052602260045260246000fd5b7f4e487b7100000000000000000000000000000000000000000000000000000000600052604160045260246000fd5b6000601f19601f8301169050919050565b7f4552433732313a207472616e7366657220746f206e6f6e20455243373231526560008201527f63656976657220696d706c656d656e7465720000000000000000000000000000602082015250565b7f4f776e61626c653a206e6577206f776e657220697320746865207a65726f206160008201527f6464726573730000000000000000000000000000000000000000000000000000602082015250565b7f4552433732313a20746f6b656e20616c7265616479206d696e74656400000000600082015250565b7f4552433732313a207472616e7366657220746f20746865207a65726f2061646460008201527f7265737300000000000000000000000000000000000000000000000000000000602082015250565b7f4552433732313a20617070726f766520746f2063616c6c657200000000000000600082015250565b7f4552433732313a206f70657261746f7220717565727920666f72206e6f6e657860008201527f697374656e7420746f6b656e0000000000000000000000000000000000000000602082015250565b7f4552433732313a20617070726f76652063616c6c6572206973206e6f74206f7760008201527f6e6572206e6f7220617070726f76656420666f7220616c6c0000000000000000602082015250565b7f4552433732313a2062616c616e636520717565727920666f7220746865207a6560008201527f726f206164647265737300000000000000000000000000000000000000000000602082015250565b7f4552433732313a206f776e657220717565727920666f72206e6f6e657869737460008201527f656e7420746f6b656e0000000000000000000000000000000000000000000000602082015250565b7f45524337323155524953746f726167653a2055524920736574206f66206e6f6e60008201527f6578697374656e7420746f6b656e000000000000000000000000000000000000602082015250565b7f4552433732313a206d696e7420746f20746865207a65726f2061646472657373600082015250565b7f45524337323155524953746f726167653a2055524920717565727920666f722060008201527f6e6f6e6578697374656e7420746f6b656e000000000000000000000000000000602082015250565b7f4552433732313a20617070726f76656420717565727920666f72206e6f6e657860008201527f697374656e7420746f6b656e0000000000000000000000000000000000000000602082015250565b7f4f776e61626c653a2063616c6c6572206973206e6f7420746865206f776e6572600082015250565b7f4552433732313a207472616e73666572206f6620746f6b656e2074686174206960008201527f73206e6f74206f776e0000000000000000000000000000000000000000000000602082015250565b7f4552433732314d657461646174613a2055524920717565727920666f72206e6f60008201527f6e6578697374656e7420746f6b656e0000000000000000000000000000000000602082015250565b7f4552433732313a20617070726f76616c20746f2063757272656e74206f776e6560008201527f7200000000000000000000000000000000000000000000000000000000000000602082015250565b7f4552433732313a207472616e736665722063616c6c6572206973206e6f74206f60008201527f776e6572206e6f7220617070726f766564000000000000000000000000000000602082015250565b61332081612bc1565b811461332b57600080fd5b50565b61333781612bd3565b811461334257600080fd5b50565b61334e81612bdf565b811461335957600080fd5b50565b61336581612c2b565b811461337057600080fd5b5056fea26469706673582212206eb2c9ab7269c8e0d372e2b59481f0ec3376ff2be17ba98924e84413645b51af64736f6c63430008040033",
  "linkReferences": {},
  "deployedLinkReferences": {}
}